{"contracts/NFTMarketplace.sol":{"NFTMarketplace":{"abi":[{"inputs":[],"stateMutability":"nonpayable","type":"constructor"},{"anonymous":false,"inputs":[{"indexed":true,"internalType":"address","name":"owner","type":"address"},{"indexed":true,"internalType":"address","name":"approved","type":"address"},{"indexed":true,"internalType":"uint256","name":"tokenId","type":"uint256"}],"name":"Approval","type":"event"},{"anonymous":false,"inputs":[{"indexed":true,"internalType":"address","name":"owner","type":"address"},{"indexed":true,"internalType":"address","name":"operator","type":"address"},{"indexed":false,"internalType":"bool","name":"approved","type":"bool"}],"name":"ApprovalForAll","type":"event"},{"anonymous":false,"inputs":[{"indexed":false,"internalType":"uint256","name":"_fromTokenId","type":"uint256"},{"indexed":false,"internalType":"uint256","name":"_toTokenId","type":"uint256"}],"name":"BatchMetadataUpdate","type":"event"},{"anonymous":false,"inputs":[{"indexed":false,"internalType":"uint256","name":"_tokenId","type":"uint256"}],"name":"MetadataUpdate","type":"event"},{"anonymous":false,"inputs":[{"indexed":true,"internalType":"uint256","name":"tokenId","type":"uint256"},{"indexed":false,"internalType":"address","name":"owner","type":"address"},{"indexed":false,"internalType":"address","name":"seller","type":"address"},{"indexed":false,"internalType":"uint256","name":"price","type":"uint256"},{"indexed":false,"internalType":"bool","name":"currentlyListed","type":"bool"}],"name":"TokenListedSuccess","type":"event"},{"anonymous":false,"inputs":[{"indexed":true,"internalType":"address","name":"from","type":"address"},{"indexed":true,"internalType":"address","name":"to","type":"address"},{"indexed":true,"internalType":"uint256","name":"tokenId","type":"uint256"}],"name":"Transfer","type":"event"},{"inputs":[{"internalType":"address","name":"to","type":"address"},{"internalType":"uint256","name":"tokenId","type":"uint256"}],"name":"approve","outputs":[],"stateMutability":"nonpayable","type":"function"},{"inputs":[{"internalType":"address","name":"owner","type":"address"}],"name":"balanceOf","outputs":[{"internalType":"uint256","name":"","type":"uint256"}],"stateMutability":"view","type":"function"},{"inputs":[],"name":"coinCraftToken","outputs":[{"internalType":"contract CoinCraft","name":"","type":"address"}],"stateMutability":"view","type":"function"},{"inputs":[{"internalType":"string","name":"tokenURI","type":"string"},{"internalType":"uint256","name":"price","type":"uint256"}],"name":"createListedToken","outputs":[],"stateMutability":"nonpayable","type":"function"},{"inputs":[{"internalType":"string","name":"tokenURI","type":"string"},{"internalType":"uint256","name":"price","type":"uint256"}],"name":"createToken","outputs":[{"internalType":"uint256","name":"","type":"uint256"}],"stateMutability":"payable","type":"function"},{"inputs":[{"internalType":"uint256","name":"tokenId","type":"uint256"}],"name":"executeSale","outputs":[],"stateMutability":"nonpayable","type":"function"},{"inputs":[],"name":"getAllNFTs","outputs":[{"components":[{"internalType":"uint256","name":"tokenId","type":"uint256"},{"internalType":"address payable","name":"owner","type":"address"},{"internalType":"address payable","name":"seller","type":"address"},{"internalType":"uint256","name":"price","type":"uint256"},{"internalType":"bool","name":"currentlyListed","type":"bool"}],"internalType":"struct NFTMarketplace.ListedToken[]","name":"","type":"tuple[]"}],"stateMutability":"view","type":"function"},{"inputs":[{"internalType":"uint256","name":"tokenId","type":"uint256"}],"name":"getApproved","outputs":[{"internalType":"address","name":"","type":"address"}],"stateMutability":"view","type":"function"},{"inputs":[],"name":"getCurrentToken","outputs":[{"internalType":"uint256","name":"","type":"uint256"}],"stateMutability":"view","type":"function"},{"inputs":[],"name":"getLatestIdToListedToken","outputs":[{"components":[{"internalType":"uint256","name":"tokenId","type":"uint256"},{"internalType":"address payable","name":"owner","type":"address"},{"internalType":"address payable","name":"seller","type":"address"},{"internalType":"uint256","name":"price","type":"uint256"},{"internalType":"bool","name":"currentlyListed","type":"bool"}],"internalType":"struct NFTMarketplace.ListedToken","name":"","type":"tuple"}],"stateMutability":"view","type":"function"},{"inputs":[],"name":"getListPrice","outputs":[{"internalType":"uint256","name":"","type":"uint256"}],"stateMutability":"view","type":"function"},{"inputs":[{"internalType":"uint256","name":"tokenId","type":"uint256"}],"name":"getListedTokenForId","outputs":[{"components":[{"internalType":"uint256","name":"tokenId","type":"uint256"},{"internalType":"address payable","name":"owner","type":"address"},{"internalType":"address payable","name":"seller","type":"address"},{"internalType":"uint256","name":"price","type":"uint256"},{"internalType":"bool","name":"currentlyListed","type":"bool"}],"internalType":"struct NFTMarketplace.ListedToken","name":"","type":"tuple"}],"stateMutability":"view","type":"function"},{"inputs":[],"name":"getMyNFTs","outputs":[{"components":[{"internalType":"uint256","name":"tokenId","type":"uint256"},{"internalType":"address payable","name":"owner","type":"address"},{"internalType":"address payable","name":"seller","type":"address"},{"internalType":"uint256","name":"price","type":"uint256"},{"internalType":"bool","name":"currentlyListed","type":"bool"}],"internalType":"struct NFTMarketplace.ListedToken[]","name":"","type":"tuple[]"}],"stateMutability":"view","type":"function"},{"inputs":[{"internalType":"address","name":"owner","type":"address"},{"internalType":"address","name":"operator","type":"address"}],"name":"isApprovedForAll","outputs":[{"internalType":"bool","name":"","type":"bool"}],"stateMutability":"view","type":"function"},{"inputs":[],"name":"name","outputs":[{"internalType":"string","name":"","type":"string"}],"stateMutability":"view","type":"function"},{"inputs":[{"internalType":"uint256","name":"tokenId","type":"uint256"}],"name":"ownerOf","outputs":[{"internalType":"address","name":"","type":"address"}],"stateMutability":"view","type":"function"},{"inputs":[{"internalType":"address","name":"from","type":"address"},{"internalType":"address","name":"to","type":"address"},{"internalType":"uint256","name":"tokenId","type":"uint256"}],"name":"safeTransferFrom","outputs":[],"stateMutability":"nonpayable","type":"function"},{"inputs":[{"internalType":"address","name":"from","type":"address"},{"internalType":"address","name":"to","type":"address"},{"internalType":"uint256","name":"tokenId","type":"uint256"},{"internalType":"bytes","name":"data","type":"bytes"}],"name":"safeTransferFrom","outputs":[],"stateMutability":"nonpayable","type":"function"},{"inputs":[{"internalType":"address","name":"operator","type":"address"},{"internalType":"bool","name":"approved","type":"bool"}],"name":"setApprovalForAll","outputs":[],"stateMutability":"nonpayable","type":"function"},{"inputs":[{"internalType":"address","name":"_tokenAddress","type":"address"}],"name":"setCoinCraftTokenAddress","outputs":[],"stateMutability":"nonpayable","type":"function"},{"inputs":[{"internalType":"address","name":"_tokenContractAddress","type":"address"}],"name":"setCoinCraftTokenContract","outputs":[],"stateMutability":"nonpayable","type":"function"},{"inputs":[{"internalType":"bytes4","name":"interfaceId","type":"bytes4"}],"name":"supportsInterface","outputs":[{"internalType":"bool","name":"","type":"bool"}],"stateMutability":"view","type":"function"},{"inputs":[],"name":"symbol","outputs":[{"internalType":"string","name":"","type":"string"}],"stateMutability":"view","type":"function"},{"inputs":[{"internalType":"uint256","name":"tokenId","type":"uint256"}],"name":"tokenURI","outputs":[{"internalType":"string","name":"","type":"string"}],"stateMutability":"view","type":"function"},{"inputs":[{"internalType":"address","name":"from","type":"address"},{"internalType":"address","name":"to","type":"address"},{"internalType":"uint256","name":"tokenId","type":"uint256"}],"name":"transferFrom","outputs":[],"stateMutability":"nonpayable","type":"function"},{"inputs":[{"internalType":"uint256","name":"_listPrice","type":"uint256"}],"name":"updateListPrice","outputs":[],"stateMutability":"payable","type":"function"}],"evm":{"bytecode":{"linkReferences":{},"object":"6080604052662386f26fc10000600b553480156200001c57600080fd5b50604080518082018252600e81526d4e46544d61726b6574706c61636560901b6020808301918252835180850190945260048452634e46544d60e01b9084015281519192916200006f91600091620000a0565b50805162000085906001906020840190620000a0565b5050600a80546001600160a01b031916331790555062000183565b828054620000ae9062000146565b90600052602060002090601f016020900481019282620000d257600085556200011d565b82601f10620000ed57805160ff19168380011785556200011d565b828001600101855582156200011d579182015b828111156200011d57825182559160200191906001019062000100565b506200012b9291506200012f565b5090565b5b808211156200012b576000815560010162000130565b600181811c908216806200015b57607f821691505b602082108114156200017d57634e487b7160e01b600052602260045260246000fd5b50919050565b6124b980620001936000396000f3fe6080604052600436106101815760003560e01c806395d89b41116100d1578063c322579c1161008a578063d7eb5be411610064578063d7eb5be414610455578063e0391b0914610475578063e985e9c51461048a578063ef2d1746146104d357600080fd5b8063c322579c1461040d578063c87b56dd14610420578063d1a88ae51461044057600080fd5b806395d89b41146103585780639b1225c41461036d578063a22cb4651461038d578063a70e084f146103ad578063aba7878b146103cd578063b88d4fde146103ed57600080fd5b8063629cb2e41161013e5780636f818dfa116101185780636f818dfa146102d857806370a08231146102f857806372b3b620146103185780638e2645901461032b57600080fd5b8063629cb2e4146102775780636352211e1461029957806368f1945f146102b957600080fd5b806301ffc9a71461018657806306fdde03146101bb578063081812fc146101dd578063095ea7b31461021557806323b872dd1461023757806342842e0e14610257575b600080fd5b34801561019257600080fd5b506101a66101a13660046120b0565b6104e8565b60405190151581526020015b60405180910390f35b3480156101c757600080fd5b506101d0610513565b6040516101b29190612294565b3480156101e957600080fd5b506101fd6101f836600461213e565b6105a5565b6040516001600160a01b0390911681526020016101b2565b34801561022157600080fd5b5061023561023036600461206b565b6105cc565b005b34801561024357600080fd5b50610235610252366004611f81565b6106e7565b34801561026357600080fd5b50610235610272366004611f81565b610718565b34801561028357600080fd5b5061028c610733565b6040516101b29190612246565b3480156102a557600080fd5b506101fd6102b436600461213e565b610978565b3480156102c557600080fd5b50600b545b6040519081526020016101b2565b3480156102e457600080fd5b506102356102f33660046120e8565b6109d8565b34801561030457600080fd5b506102ca610313366004611f35565b610be4565b6102ca6103263660046120e8565b610c6a565b34801561033757600080fd5b5061034b61034636600461213e565b610cac565b6040516101b2919061238b565b34801561036457600080fd5b506101d0610d16565b34801561037957600080fd5b5061023561038836600461213e565b610d25565b34801561039957600080fd5b506102356103a8366004612035565b610f96565b3480156103b957600080fd5b506102356103c8366004611f35565b610fa5565b3480156103d957600080fd5b506007546101fd906001600160a01b031681565b3480156103f957600080fd5b50610235610408366004611fbc565b611034565b61023561041b36600461213e565b61106c565b34801561042c57600080fd5b506101d061043b36600461213e565b6110d7565b34801561044c57600080fd5b5061034b6111e8565b34801561046157600080fd5b50610235610470366004611f35565b61125f565b34801561048157600080fd5b5061028c6112cd565b34801561049657600080fd5b506101a66104a5366004611f4f565b6001600160a01b03918216600090815260056020908152604080832093909416825291909152205460ff1690565b3480156104df57600080fd5b506102ca61141b565b60006001600160e01b03198216632483248360e11b148061050d575061050d8261142b565b92915050565b606060008054610522906123dd565b80601f016020809104026020016040519081016040528092919081815260200182805461054e906123dd565b801561059b5780601f106105705761010080835404028352916020019161059b565b820191906000526020600020905b81548152906001019060200180831161057e57829003601f168201915b5050505050905090565b60006105b08261147b565b506000908152600460205260409020546001600160a01b031690565b60006105d782610978565b9050806001600160a01b0316836001600160a01b0316141561064a5760405162461bcd60e51b815260206004820152602160248201527f4552433732313a20617070726f76616c20746f2063757272656e74206f776e656044820152603960f91b60648201526084015b60405180910390fd5b336001600160a01b0382161480610666575061066681336104a5565b6106d85760405162461bcd60e51b815260206004820152603d60248201527f4552433732313a20617070726f76652063616c6c6572206973206e6f7420746f60448201527f6b656e206f776e6572206f7220617070726f76656420666f7220616c6c0000006064820152608401610641565b6106e283836114dd565b505050565b6106f1338261154b565b61070d5760405162461bcd60e51b8152600401610641906122a7565b6106e28383836115c9565b6106e283838360405180602001604052806000815250611034565b6060600061074060085490565b905060008060005b838110156107d85733600c6000610760846001612399565b81526020810191909152604001600020600101546001600160a01b031614806107b3575033600c6000610794846001612399565b81526020810191909152604001600020600201546001600160a01b0316145b156107c6576107c3600184612399565b92505b806107d081612418565b915050610748565b5060008267ffffffffffffffff81111561080257634e487b7160e01b600052604160045260246000fd5b60405190808252806020026020018201604052801561083b57816020015b610828611ddc565b8152602001906001900390816108205790505b50905060005b8481101561096f5733600c6000610859846001612399565b81526020810191909152604001600020600101546001600160a01b031614806108ac575033600c600061088d846001612399565b81526020810191909152604001600020600201546001600160a01b0316145b1561095d5760006108be826001612399565b6000818152600c6020908152604091829020825160a0810184528154815260018201546001600160a01b039081169382019390935260028201549092169282019290925260038201546060820152600482015460ff16151560808201528551929350909185908790811061094257634e487b7160e01b600052603260045260246000fd5b6020908102919091010152610958600186612399565b945050505b8061096781612418565b915050610841565b50949350505050565b6000818152600260205260408120546001600160a01b03168061050d5760405162461bcd60e51b8152602060048201526018602482015277115490cdcc8c4e881a5b9d985b1a59081d1bdad95b88125160421b6044820152606401610641565b600754600b546040516323b872dd60e01b815233600482015230602482015260448101919091526001600160a01b03909116906323b872dd90606401602060405180830381600087803b158015610a2e57600080fd5b505af1158015610a42573d6000803e3d6000fd5b505050506040513d601f19601f82011682018060405250810190610a669190612094565b610aca5760405162461bcd60e51b815260206004820152602f60248201527f5472616e73666572206f6620436f696e437261667420746f6b656e7320666f7260448201526e081b1a5cdd1a5b99c819985a5b1959608a1b6064820152608401610641565b610ad8600880546001019055565b6000610ae360085490565b9050610aef338261172d565b610af98184611747565b6040805160a081018252828152306020808301828152338486018181526060860189815260016080880181815260008b8152600c9097529890952096518755925193860180546001600160a01b039586166001600160a01b03199182161790915590516002870180549190951691161790925551600384015592516004909201805492151560ff1990931692909217909155610b969190836115c9565b604080513081523360208201529081018390526001606082015281907f9339409317fd01fabff48b703019016f49159bacc801ae872d2ca637d226e4c09060800160405180910390a2505050565b60006001600160a01b038216610c4e5760405162461bcd60e51b815260206004820152602960248201527f4552433732313a2061646472657373207a65726f206973206e6f7420612076616044820152683634b21037bbb732b960b91b6064820152608401610641565b506001600160a01b031660009081526003602052604090205490565b6000610c7a600880546001019055565b6000610c8560085490565b9050610c91338261172d565b610c9b8185611747565b610ca584846109d8565b9392505050565b610cb4611ddc565b506000908152600c6020908152604091829020825160a0810184528154815260018201546001600160a01b03908116938201939093526002820154909216928201929092526003820154606082015260049091015460ff161515608082015290565b606060018054610522906123dd565b6000818152600c602052604090819020600381015460029091015460075492516323b872dd60e01b81523360048201526001600160a01b039182166024820181905260448201849052929391909116906323b872dd90606401602060405180830381600087803b158015610d9857600080fd5b505af1158015610dac573d6000803e3d6000fd5b505050506040513d601f19601f82011682018060405250810190610dd09190612094565b610e355760405162461bcd60e51b815260206004820152603060248201527f5472616e73666572206f6620436f696e437261667420746f6b656e7320666f7260448201526f081c1d5c98da185cd94819985a5b195960821b6064820152608401610641565b6007546040516370a0823160e01b81523360048201526000916001600160a01b0316906370a082319060240160206040518083038186803b158015610e7957600080fd5b505afa158015610e8d573d6000803e3d6000fd5b505050506040513d601f19601f82011682018060405250810190610eb19190612156565b905082811015610f035760405162461bcd60e51b815260206004820152601e60248201527f496e73756666696369656e7420436f696e43726166742062616c616e636500006044820152606401610641565b6000848152600c6020526040902060048101805460ff1916905560020180546001600160a01b03191633179055610f3e600980546001019055565b610f493033866115c9565b610f5333856105cc565b600a54600b546040516001600160a01b039092169181156108fc0291906000818181858888f19350505050158015610f8f573d6000803e3d6000fd5b5050505050565b610fa1338383611819565b5050565b600a546001600160a01b031633146110125760405162461bcd60e51b815260206004820152602a60248201527f4f6e6c79206f776e65722063616e2073657420436f696e437261667420746f6b604482015269656e206164647265737360b01b6064820152608401610641565b600780546001600160a01b0319166001600160a01b0392909216919091179055565b61103e338361154b565b61105a5760405162461bcd60e51b8152600401610641906122a7565b611066848484846118e8565b50505050565b600a546001600160a01b031633146110d25760405162461bcd60e51b815260206004820152602360248201527f4f6e6c79206f776e65722063616e20757064617465206c697374696e6720707260448201526269636560e81b6064820152608401610641565b600b55565b60606110e28261147b565b600082815260066020526040812080546110fb906123dd565b80601f0160208091040260200160405190810160405280929190818152602001828054611127906123dd565b80156111745780601f1061114957610100808354040283529160200191611174565b820191906000526020600020905b81548152906001019060200180831161115757829003601f168201915b50505050509050600061119260408051602081019091526000815290565b90508051600014156111a5575092915050565b8151156111d75780826040516020016111bf9291906121da565b60405160208183030381529060405292505050919050565b6111e08461191b565b949350505050565b6111f0611ddc565b60006111fb60085490565b6000908152600c6020908152604091829020825160a0810184528154815260018201546001600160a01b03908116938201939093526002820154909216928201929092526003820154606082015260049091015460ff161515608082015292915050565b600a546001600160a01b031633146110125760405162461bcd60e51b815260206004820152602b60248201527f4f6e6c79206f776e65722063616e2073657420436f696e437261667420746f6b60448201526a195b8818dbdb9d1c9858dd60aa1b6064820152608401610641565b606060006112da60085490565b905060008167ffffffffffffffff81111561130557634e487b7160e01b600052604160045260246000fd5b60405190808252806020026020018201604052801561133e57816020015b61132b611ddc565b8152602001906001900390816113235790505b5090506000805b8381101561141257600061135a826001612399565b6000818152600c6020526040902060048101549192509060ff16156113f0576040805160a0810182528254815260018301546001600160a01b0390811660208301526002840154169181019190915260038201546060820152600482015460ff161515608082015285518690869081106113e457634e487b7160e01b600052603260045260246000fd5b60200260200101819052505b6113fb600185612399565b93505050808061140a90612418565b915050611345565b50909392505050565b600061142660085490565b905090565b60006001600160e01b031982166380ac58cd60e01b148061145c57506001600160e01b03198216635b5e139f60e01b145b8061050d57506301ffc9a760e01b6001600160e01b031983161461050d565b6000818152600260205260409020546001600160a01b03166114da5760405162461bcd60e51b8152602060048201526018602482015277115490cdcc8c4e881a5b9d985b1a59081d1bdad95b88125160421b6044820152606401610641565b50565b600081815260046020526040902080546001600160a01b0319166001600160a01b038416908117909155819061151282610978565b6001600160a01b03167f8c5be1e5ebec7d5bd14f71427d1e84f3dd0314c0f7b2291e5b200ac8c7c3b92560405160405180910390a45050565b60008061155783610978565b9050806001600160a01b0316846001600160a01b0316148061159e57506001600160a01b0380821660009081526005602090815260408083209388168352929052205460ff165b806111e05750836001600160a01b03166115b7846105a5565b6001600160a01b031614949350505050565b826001600160a01b03166115dc82610978565b6001600160a01b0316146116025760405162461bcd60e51b815260040161064190612346565b6001600160a01b0382166116645760405162461bcd60e51b8152602060048201526024808201527f4552433732313a207472616e7366657220746f20746865207a65726f206164646044820152637265737360e01b6064820152608401610641565b826001600160a01b031661167782610978565b6001600160a01b03161461169d5760405162461bcd60e51b815260040161064190612346565b600081815260046020908152604080832080546001600160a01b03199081169091556001600160a01b0387811680865260038552838620805460001901905590871680865283862080546001019055868652600290945282852080549092168417909155905184937fddf252ad1be2c89b69c2b068fc378daa952ba7f163c4a11628f55a4df523b3ef91a4505050565b610fa182826040518060200160405280600081525061198e565b6000828152600260205260409020546001600160a01b03166117c25760405162461bcd60e51b815260206004820152602e60248201527f45524337323155524953746f726167653a2055524920736574206f66206e6f6e60448201526d32bc34b9ba32b73a103a37b5b2b760911b6064820152608401610641565b600082815260066020908152604090912082516117e192840190611e0a565b506040518281527ff8e1a15aba9398e019f0b49df1a4fde98ee17ae345cb5f6b5e2c27f5033e8ce79060200160405180910390a15050565b816001600160a01b0316836001600160a01b0316141561187b5760405162461bcd60e51b815260206004820152601960248201527f4552433732313a20617070726f766520746f2063616c6c6572000000000000006044820152606401610641565b6001600160a01b03838116600081815260056020908152604080832094871680845294825291829020805460ff191686151590811790915591519182527f17307eab39ab6107e8899845ad3d59bd9653f200f220920489ca2b5937696c31910160405180910390a3505050565b6118f38484846115c9565b6118ff848484846119c1565b6110665760405162461bcd60e51b8152600401610641906122f4565b60606119268261147b565b600061193d60408051602081019091526000815290565b9050600081511161195d5760405180602001604052806000815250610ca5565b8061196784611ace565b6040516020016119789291906121da565b6040516020818303038152906040529392505050565b6119988383611b79565b6119a560008484846119c1565b6106e25760405162461bcd60e51b8152600401610641906122f4565b60006001600160a01b0384163b15611ac357604051630a85bd0160e11b81526001600160a01b0385169063150b7a0290611a05903390899088908890600401612209565b602060405180830381600087803b158015611a1f57600080fd5b505af1925050508015611a4f575060408051601f3d908101601f19168201909252611a4c918101906120cc565b60015b611aa9573d808015611a7d576040519150601f19603f3d011682016040523d82523d6000602084013e611a82565b606091505b508051611aa15760405162461bcd60e51b8152600401610641906122f4565b805181602001fd5b6001600160e01b031916630a85bd0160e11b1490506111e0565b506001949350505050565b60606000611adb83611d04565b600101905060008167ffffffffffffffff811115611b0957634e487b7160e01b600052604160045260246000fd5b6040519080825280601f01601f191660200182016040528015611b33576020820181803683370190505b5090508181016020015b600019016f181899199a1a9b1b9c1cb0b131b232b360811b600a86061a8153600a8504945084611b6c57611b71565b611b3d565b509392505050565b6001600160a01b038216611bcf5760405162461bcd60e51b815260206004820181905260248201527f4552433732313a206d696e7420746f20746865207a65726f20616464726573736044820152606401610641565b6000818152600260205260409020546001600160a01b031615611c345760405162461bcd60e51b815260206004820152601c60248201527f4552433732313a20746f6b656e20616c7265616479206d696e746564000000006044820152606401610641565b6000818152600260205260409020546001600160a01b031615611c995760405162461bcd60e51b815260206004820152601c60248201527f4552433732313a20746f6b656e20616c7265616479206d696e746564000000006044820152606401610641565b6001600160a01b038216600081815260036020908152604080832080546001019055848352600290915280822080546001600160a01b0319168417905551839291907fddf252ad1be2c89b69c2b068fc378daa952ba7f163c4a11628f55a4df523b3ef908290a45050565b60008072184f03e93ff9f4daa797ed6e38ed64bf6a1f0160401b8310611d435772184f03e93ff9f4daa797ed6e38ed64bf6a1f0160401b830492506040015b6d04ee2d6d415b85acef81000000008310611d6f576d04ee2d6d415b85acef8100000000830492506020015b662386f26fc100008310611d8d57662386f26fc10000830492506010015b6305f5e1008310611da5576305f5e100830492506008015b6127108310611db957612710830492506004015b60648310611dcb576064830492506002015b600a831061050d5760010192915050565b6040805160a08101825260008082526020820181905291810182905260608101829052608081019190915290565b828054611e16906123dd565b90600052602060002090601f016020900481019282611e385760008555611e7e565b82601f10611e5157805160ff1916838001178555611e7e565b82800160010185558215611e7e579182015b82811115611e7e578251825591602001919060010190611e63565b50611e8a929150611e8e565b5090565b5b80821115611e8a5760008155600101611e8f565b600067ffffffffffffffff80841115611ebe57611ebe612449565b604051601f8501601f19908116603f01168101908282118183101715611ee657611ee6612449565b81604052809350858152868686011115611eff57600080fd5b858560208301376000602087830101525050509392505050565b80356001600160a01b0381168114611f3057600080fd5b919050565b600060208284031215611f46578081fd5b610ca582611f19565b60008060408385031215611f61578081fd5b611f6a83611f19565b9150611f7860208401611f19565b90509250929050565b600080600060608486031215611f95578081fd5b611f9e84611f19565b9250611fac60208501611f19565b9150604084013590509250925092565b60008060008060808587031215611fd1578081fd5b611fda85611f19565b9350611fe860208601611f19565b925060408501359150606085013567ffffffffffffffff81111561200a578182fd5b8501601f8101871361201a578182fd5b61202987823560208401611ea3565b91505092959194509250565b60008060408385031215612047578182fd5b61205083611f19565b915060208301356120608161245f565b809150509250929050565b6000806040838503121561207d578182fd5b61208683611f19565b946020939093013593505050565b6000602082840312156120a5578081fd5b8151610ca58161245f565b6000602082840312156120c1578081fd5b8135610ca58161246d565b6000602082840312156120dd578081fd5b8151610ca58161246d565b600080604083850312156120fa578182fd5b823567ffffffffffffffff811115612110578283fd5b8301601f81018513612120578283fd5b61212f85823560208401611ea3565b95602094909401359450505050565b60006020828403121561214f578081fd5b5035919050565b600060208284031215612167578081fd5b5051919050565b600081518084526121868160208601602086016123b1565b601f01601f19169290920160200192915050565b805182526020808201516001600160a01b039081169184019190915260408083015190911690830152606080820151908301526080908101511515910152565b600083516121ec8184602088016123b1565b8351908301906122008183602088016123b1565b01949350505050565b6001600160a01b038581168252841660208201526040810183905260806060820181905260009061223c9083018461216e565b9695505050505050565b6020808252825182820181905260009190848201906040850190845b818110156122885761227583855161219a565b9284019260a09290920191600101612262565b50909695505050505050565b602081526000610ca5602083018461216e565b6020808252602d908201527f4552433732313a2063616c6c6572206973206e6f7420746f6b656e206f776e6560408201526c1c881bdc88185c1c1c9bdd9959609a1b606082015260800190565b60208082526032908201527f4552433732313a207472616e7366657220746f206e6f6e20455243373231526560408201527131b2b4bb32b91034b6b83632b6b2b73a32b960711b606082015260800190565b60208082526025908201527f4552433732313a207472616e736665722066726f6d20696e636f72726563742060408201526437bbb732b960d91b606082015260800190565b60a0810161050d828461219a565b600082198211156123ac576123ac612433565b500190565b60005b838110156123cc5781810151838201526020016123b4565b838111156110665750506000910152565b600181811c908216806123f157607f821691505b6020821081141561241257634e487b7160e01b600052602260045260246000fd5b50919050565b600060001982141561242c5761242c612433565b5060010190565b634e487b7160e01b600052601160045260246000fd5b634e487b7160e01b600052604160045260246000fd5b80151581146114da57600080fd5b6001600160e01b0319811681146114da57600080fdfea2646970667358221220dc4c2fbaec64198f58b2ae7a537f268e9d597887f0e4afc1a9bfb2fb8005ab4764736f6c63430008040033","opcodes":"PUSH1 0x80 PUSH1 0x40 MSTORE PUSH7 0x2386F26FC10000 PUSH1 0xB SSTORE CALLVALUE DUP1 ISZERO PUSH3 0x1C JUMPI PUSH1 0x0 DUP1 REVERT JUMPDEST POP PUSH1 0x40 DUP1 MLOAD DUP1 DUP3 ADD DUP3 MSTORE PUSH1 0xE DUP2 MSTORE PUSH14 0x4E46544D61726B6574706C616365 PUSH1 0x90 SHL PUSH1 0x20 DUP1 DUP4 ADD SWAP2 DUP3 MSTORE DUP4 MLOAD DUP1 DUP6 ADD SWAP1 SWAP5 MSTORE PUSH1 0x4 DUP5 MSTORE PUSH4 0x4E46544D PUSH1 0xE0 SHL SWAP1 DUP5 ADD MSTORE DUP2 MLOAD SWAP2 SWAP3 SWAP2 PUSH3 0x6F SWAP2 PUSH1 0x0 SWAP2 PUSH3 0xA0 JUMP JUMPDEST POP DUP1 MLOAD PUSH3 0x85 SWAP1 PUSH1 0x1 SWAP1 PUSH1 0x20 DUP5 ADD SWAP1 PUSH3 0xA0 JUMP JUMPDEST POP POP PUSH1 0xA DUP1 SLOAD PUSH1 0x1 PUSH1 0x1 PUSH1 0xA0 SHL SUB NOT AND CALLER OR SWAP1 SSTORE POP PUSH3 0x183 JUMP JUMPDEST DUP3 DUP1 SLOAD PUSH3 0xAE SWAP1 PUSH3 0x146 JUMP JUMPDEST SWAP1 PUSH1 0x0 MSTORE PUSH1 0x20 PUSH1 0x0 KECCAK256 SWAP1 PUSH1 0x1F ADD PUSH1 0x20 SWAP1 DIV DUP2 ADD SWAP3 DUP3 PUSH3 0xD2 JUMPI PUSH1 0x0 DUP6 SSTORE PUSH3 0x11D JUMP JUMPDEST DUP3 PUSH1 0x1F LT PUSH3 0xED JUMPI DUP1 MLOAD PUSH1 0xFF NOT AND DUP4 DUP1 ADD OR DUP6 SSTORE PUSH3 0x11D JUMP JUMPDEST DUP3 DUP1 ADD PUSH1 0x1 ADD DUP6 SSTORE DUP3 ISZERO PUSH3 0x11D JUMPI SWAP2 DUP3 ADD JUMPDEST DUP3 DUP2 GT ISZERO PUSH3 0x11D JUMPI DUP3 MLOAD DUP3 SSTORE SWAP2 PUSH1 0x20 ADD SWAP2 SWAP1 PUSH1 0x1 ADD SWAP1 PUSH3 0x100 JUMP JUMPDEST POP PUSH3 0x12B SWAP3 SWAP2 POP PUSH3 0x12F JUMP JUMPDEST POP SWAP1 JUMP JUMPDEST JUMPDEST DUP1 DUP3 GT ISZERO PUSH3 0x12B JUMPI PUSH1 0x0 DUP2 SSTORE PUSH1 0x1 ADD PUSH3 0x130 JUMP JUMPDEST PUSH1 0x1 DUP2 DUP2 SHR SWAP1 DUP3 AND DUP1 PUSH3 0x15B JUMPI PUSH1 0x7F DUP3 AND SWAP2 POP JUMPDEST PUSH1 0x20 DUP3 LT DUP2 EQ ISZERO PUSH3 0x17D JUMPI PUSH4 0x4E487B71 PUSH1 0xE0 SHL PUSH1 0x0 MSTORE PUSH1 0x22 PUSH1 0x4 MSTORE PUSH1 0x24 PUSH1 0x0 REVERT JUMPDEST POP SWAP2 SWAP1 POP JUMP JUMPDEST PUSH2 0x24B9 DUP1 PUSH3 0x193 PUSH1 0x0 CODECOPY PUSH1 0x0 RETURN INVALID PUSH1 0x80 PUSH1 0x40 MSTORE PUSH1 0x4 CALLDATASIZE LT PUSH2 0x181 JUMPI PUSH1 0x0 CALLDATALOAD PUSH1 0xE0 SHR DUP1 PUSH4 0x95D89B41 GT PUSH2 0xD1 JUMPI DUP1 PUSH4 0xC322579C GT PUSH2 0x8A JUMPI DUP1 PUSH4 0xD7EB5BE4 GT PUSH2 0x64 JUMPI DUP1 PUSH4 0xD7EB5BE4 EQ PUSH2 0x455 JUMPI DUP1 PUSH4 0xE0391B09 EQ PUSH2 0x475 JUMPI DUP1 PUSH4 0xE985E9C5 EQ PUSH2 0x48A JUMPI DUP1 PUSH4 0xEF2D1746 EQ PUSH2 0x4D3 JUMPI PUSH1 0x0 DUP1 REVERT JUMPDEST DUP1 PUSH4 0xC322579C EQ PUSH2 0x40D JUMPI DUP1 PUSH4 0xC87B56DD EQ PUSH2 0x420 JUMPI DUP1 PUSH4 0xD1A88AE5 EQ PUSH2 0x440 JUMPI PUSH1 0x0 DUP1 REVERT JUMPDEST DUP1 PUSH4 0x95D89B41 EQ PUSH2 0x358 JUMPI DUP1 PUSH4 0x9B1225C4 EQ PUSH2 0x36D JUMPI DUP1 PUSH4 0xA22CB465 EQ PUSH2 0x38D JUMPI DUP1 PUSH4 0xA70E084F EQ PUSH2 0x3AD JUMPI DUP1 PUSH4 0xABA7878B EQ PUSH2 0x3CD JUMPI DUP1 PUSH4 0xB88D4FDE EQ PUSH2 0x3ED JUMPI PUSH1 0x0 DUP1 REVERT JUMPDEST DUP1 PUSH4 0x629CB2E4 GT PUSH2 0x13E JUMPI DUP1 PUSH4 0x6F818DFA GT PUSH2 0x118 JUMPI DUP1 PUSH4 0x6F818DFA EQ PUSH2 0x2D8 JUMPI DUP1 PUSH4 0x70A08231 EQ PUSH2 0x2F8 JUMPI DUP1 PUSH4 0x72B3B620 EQ PUSH2 0x318 JUMPI DUP1 PUSH4 0x8E264590 EQ PUSH2 0x32B JUMPI PUSH1 0x0 DUP1 REVERT JUMPDEST DUP1 PUSH4 0x629CB2E4 EQ PUSH2 0x277 JUMPI DUP1 PUSH4 0x6352211E EQ PUSH2 0x299 JUMPI DUP1 PUSH4 0x68F1945F EQ PUSH2 0x2B9 JUMPI PUSH1 0x0 DUP1 REVERT JUMPDEST DUP1 PUSH4 0x1FFC9A7 EQ PUSH2 0x186 JUMPI DUP1 PUSH4 0x6FDDE03 EQ PUSH2 0x1BB JUMPI DUP1 PUSH4 0x81812FC EQ PUSH2 0x1DD JUMPI DUP1 PUSH4 0x95EA7B3 EQ PUSH2 0x215 JUMPI DUP1 PUSH4 0x23B872DD EQ PUSH2 0x237 JUMPI DUP1 PUSH4 0x42842E0E EQ PUSH2 0x257 JUMPI JUMPDEST PUSH1 0x0 DUP1 REVERT JUMPDEST CALLVALUE DUP1 ISZERO PUSH2 0x192 JUMPI PUSH1 0x0 DUP1 REVERT JUMPDEST POP PUSH2 0x1A6 PUSH2 0x1A1 CALLDATASIZE PUSH1 0x4 PUSH2 0x20B0 JUMP JUMPDEST PUSH2 0x4E8 JUMP JUMPDEST PUSH1 0x40 MLOAD SWAP1 ISZERO ISZERO DUP2 MSTORE PUSH1 0x20 ADD JUMPDEST PUSH1 0x40 MLOAD DUP1 SWAP2 SUB SWAP1 RETURN JUMPDEST CALLVALUE DUP1 ISZERO PUSH2 0x1C7 JUMPI PUSH1 0x0 DUP1 REVERT JUMPDEST POP PUSH2 0x1D0 PUSH2 0x513 JUMP JUMPDEST PUSH1 0x40 MLOAD PUSH2 0x1B2 SWAP2 SWAP1 PUSH2 0x2294 JUMP JUMPDEST CALLVALUE DUP1 ISZERO PUSH2 0x1E9 JUMPI PUSH1 0x0 DUP1 REVERT JUMPDEST POP PUSH2 0x1FD PUSH2 0x1F8 CALLDATASIZE PUSH1 0x4 PUSH2 0x213E JUMP JUMPDEST PUSH2 0x5A5 JUMP JUMPDEST PUSH1 0x40 MLOAD PUSH1 0x1 PUSH1 0x1 PUSH1 0xA0 SHL SUB SWAP1 SWAP2 AND DUP2 MSTORE PUSH1 0x20 ADD PUSH2 0x1B2 JUMP JUMPDEST CALLVALUE DUP1 ISZERO PUSH2 0x221 JUMPI PUSH1 0x0 DUP1 REVERT JUMPDEST POP PUSH2 0x235 PUSH2 0x230 CALLDATASIZE PUSH1 0x4 PUSH2 0x206B JUMP JUMPDEST PUSH2 0x5CC JUMP JUMPDEST STOP JUMPDEST CALLVALUE DUP1 ISZERO PUSH2 0x243 JUMPI PUSH1 0x0 DUP1 REVERT JUMPDEST POP PUSH2 0x235 PUSH2 0x252 CALLDATASIZE PUSH1 0x4 PUSH2 0x1F81 JUMP JUMPDEST PUSH2 0x6E7 JUMP JUMPDEST CALLVALUE DUP1 ISZERO PUSH2 0x263 JUMPI PUSH1 0x0 DUP1 REVERT JUMPDEST POP PUSH2 0x235 PUSH2 0x272 CALLDATASIZE PUSH1 0x4 PUSH2 0x1F81 JUMP JUMPDEST PUSH2 0x718 JUMP JUMPDEST CALLVALUE DUP1 ISZERO PUSH2 0x283 JUMPI PUSH1 0x0 DUP1 REVERT JUMPDEST POP PUSH2 0x28C PUSH2 0x733 JUMP JUMPDEST PUSH1 0x40 MLOAD PUSH2 0x1B2 SWAP2 SWAP1 PUSH2 0x2246 JUMP JUMPDEST CALLVALUE DUP1 ISZERO PUSH2 0x2A5 JUMPI PUSH1 0x0 DUP1 REVERT JUMPDEST POP PUSH2 0x1FD PUSH2 0x2B4 CALLDATASIZE PUSH1 0x4 PUSH2 0x213E JUMP JUMPDEST PUSH2 0x978 JUMP JUMPDEST CALLVALUE DUP1 ISZERO PUSH2 0x2C5 JUMPI PUSH1 0x0 DUP1 REVERT JUMPDEST POP PUSH1 0xB SLOAD JUMPDEST PUSH1 0x40 MLOAD SWAP1 DUP2 MSTORE PUSH1 0x20 ADD PUSH2 0x1B2 JUMP JUMPDEST CALLVALUE DUP1 ISZERO PUSH2 0x2E4 JUMPI PUSH1 0x0 DUP1 REVERT JUMPDEST POP PUSH2 0x235 PUSH2 0x2F3 CALLDATASIZE PUSH1 0x4 PUSH2 0x20E8 JUMP JUMPDEST PUSH2 0x9D8 JUMP JUMPDEST CALLVALUE DUP1 ISZERO PUSH2 0x304 JUMPI PUSH1 0x0 DUP1 REVERT JUMPDEST POP PUSH2 0x2CA PUSH2 0x313 CALLDATASIZE PUSH1 0x4 PUSH2 0x1F35 JUMP JUMPDEST PUSH2 0xBE4 JUMP JUMPDEST PUSH2 0x2CA PUSH2 0x326 CALLDATASIZE PUSH1 0x4 PUSH2 0x20E8 JUMP JUMPDEST PUSH2 0xC6A JUMP JUMPDEST CALLVALUE DUP1 ISZERO PUSH2 0x337 JUMPI PUSH1 0x0 DUP1 REVERT JUMPDEST POP PUSH2 0x34B PUSH2 0x346 CALLDATASIZE PUSH1 0x4 PUSH2 0x213E JUMP JUMPDEST PUSH2 0xCAC JUMP JUMPDEST PUSH1 0x40 MLOAD PUSH2 0x1B2 SWAP2 SWAP1 PUSH2 0x238B JUMP JUMPDEST CALLVALUE DUP1 ISZERO PUSH2 0x364 JUMPI PUSH1 0x0 DUP1 REVERT JUMPDEST POP PUSH2 0x1D0 PUSH2 0xD16 JUMP JUMPDEST CALLVALUE DUP1 ISZERO PUSH2 0x379 JUMPI PUSH1 0x0 DUP1 REVERT JUMPDEST POP PUSH2 0x235 PUSH2 0x388 CALLDATASIZE PUSH1 0x4 PUSH2 0x213E JUMP JUMPDEST PUSH2 0xD25 JUMP JUMPDEST CALLVALUE DUP1 ISZERO PUSH2 0x399 JUMPI PUSH1 0x0 DUP1 REVERT JUMPDEST POP PUSH2 0x235 PUSH2 0x3A8 CALLDATASIZE PUSH1 0x4 PUSH2 0x2035 JUMP JUMPDEST PUSH2 0xF96 JUMP JUMPDEST CALLVALUE DUP1 ISZERO PUSH2 0x3B9 JUMPI PUSH1 0x0 DUP1 REVERT JUMPDEST POP PUSH2 0x235 PUSH2 0x3C8 CALLDATASIZE PUSH1 0x4 PUSH2 0x1F35 JUMP JUMPDEST PUSH2 0xFA5 JUMP JUMPDEST CALLVALUE DUP1 ISZERO PUSH2 0x3D9 JUMPI PUSH1 0x0 DUP1 REVERT JUMPDEST POP PUSH1 0x7 SLOAD PUSH2 0x1FD SWAP1 PUSH1 0x1 PUSH1 0x1 PUSH1 0xA0 SHL SUB AND DUP2 JUMP JUMPDEST CALLVALUE DUP1 ISZERO PUSH2 0x3F9 JUMPI PUSH1 0x0 DUP1 REVERT JUMPDEST POP PUSH2 0x235 PUSH2 0x408 CALLDATASIZE PUSH1 0x4 PUSH2 0x1FBC JUMP JUMPDEST PUSH2 0x1034 JUMP JUMPDEST PUSH2 0x235 PUSH2 0x41B CALLDATASIZE PUSH1 0x4 PUSH2 0x213E JUMP JUMPDEST PUSH2 0x106C JUMP JUMPDEST CALLVALUE DUP1 ISZERO PUSH2 0x42C JUMPI PUSH1 0x0 DUP1 REVERT JUMPDEST POP PUSH2 0x1D0 PUSH2 0x43B CALLDATASIZE PUSH1 0x4 PUSH2 0x213E JUMP JUMPDEST PUSH2 0x10D7 JUMP JUMPDEST CALLVALUE DUP1 ISZERO PUSH2 0x44C JUMPI PUSH1 0x0 DUP1 REVERT JUMPDEST POP PUSH2 0x34B PUSH2 0x11E8 JUMP JUMPDEST CALLVALUE DUP1 ISZERO PUSH2 0x461 JUMPI PUSH1 0x0 DUP1 REVERT JUMPDEST POP PUSH2 0x235 PUSH2 0x470 CALLDATASIZE PUSH1 0x4 PUSH2 0x1F35 JUMP JUMPDEST PUSH2 0x125F JUMP JUMPDEST CALLVALUE DUP1 ISZERO PUSH2 0x481 JUMPI PUSH1 0x0 DUP1 REVERT JUMPDEST POP PUSH2 0x28C PUSH2 0x12CD JUMP JUMPDEST CALLVALUE DUP1 ISZERO PUSH2 0x496 JUMPI PUSH1 0x0 DUP1 REVERT JUMPDEST POP PUSH2 0x1A6 PUSH2 0x4A5 CALLDATASIZE PUSH1 0x4 PUSH2 0x1F4F JUMP JUMPDEST PUSH1 0x1 PUSH1 0x1 PUSH1 0xA0 SHL SUB SWAP2 DUP3 AND PUSH1 0x0 SWAP1 DUP2 MSTORE PUSH1 0x5 PUSH1 0x20 SWAP1 DUP2 MSTORE PUSH1 0x40 DUP1 DUP4 KECCAK256 SWAP4 SWAP1 SWAP5 AND DUP3 MSTORE SWAP2 SWAP1 SWAP2 MSTORE KECCAK256 SLOAD PUSH1 0xFF AND SWAP1 JUMP JUMPDEST CALLVALUE DUP1 ISZERO PUSH2 0x4DF JUMPI PUSH1 0x0 DUP1 REVERT JUMPDEST POP PUSH2 0x2CA PUSH2 0x141B JUMP JUMPDEST PUSH1 0x0 PUSH1 0x1 PUSH1 0x1 PUSH1 0xE0 SHL SUB NOT DUP3 AND PUSH4 0x24832483 PUSH1 0xE1 SHL EQ DUP1 PUSH2 0x50D JUMPI POP PUSH2 0x50D DUP3 PUSH2 0x142B JUMP JUMPDEST SWAP3 SWAP2 POP POP JUMP JUMPDEST PUSH1 0x60 PUSH1 0x0 DUP1 SLOAD PUSH2 0x522 SWAP1 PUSH2 0x23DD JUMP JUMPDEST DUP1 PUSH1 0x1F ADD PUSH1 0x20 DUP1 SWAP2 DIV MUL PUSH1 0x20 ADD PUSH1 0x40 MLOAD SWAP1 DUP2 ADD PUSH1 0x40 MSTORE DUP1 SWAP3 SWAP2 SWAP1 DUP2 DUP2 MSTORE PUSH1 0x20 ADD DUP3 DUP1 SLOAD PUSH2 0x54E SWAP1 PUSH2 0x23DD JUMP JUMPDEST DUP1 ISZERO PUSH2 0x59B JUMPI DUP1 PUSH1 0x1F LT PUSH2 0x570 JUMPI PUSH2 0x100 DUP1 DUP4 SLOAD DIV MUL DUP4 MSTORE SWAP2 PUSH1 0x20 ADD SWAP2 PUSH2 0x59B JUMP JUMPDEST DUP3 ADD SWAP2 SWAP1 PUSH1 0x0 MSTORE PUSH1 0x20 PUSH1 0x0 KECCAK256 SWAP1 JUMPDEST DUP2 SLOAD DUP2 MSTORE SWAP1 PUSH1 0x1 ADD SWAP1 PUSH1 0x20 ADD DUP1 DUP4 GT PUSH2 0x57E JUMPI DUP3 SWAP1 SUB PUSH1 0x1F AND DUP3 ADD SWAP2 JUMPDEST POP POP POP POP POP SWAP1 POP SWAP1 JUMP JUMPDEST PUSH1 0x0 PUSH2 0x5B0 DUP3 PUSH2 0x147B JUMP JUMPDEST POP PUSH1 0x0 SWAP1 DUP2 MSTORE PUSH1 0x4 PUSH1 0x20 MSTORE PUSH1 0x40 SWAP1 KECCAK256 SLOAD PUSH1 0x1 PUSH1 0x1 PUSH1 0xA0 SHL SUB AND SWAP1 JUMP JUMPDEST PUSH1 0x0 PUSH2 0x5D7 DUP3 PUSH2 0x978 JUMP JUMPDEST SWAP1 POP DUP1 PUSH1 0x1 PUSH1 0x1 PUSH1 0xA0 SHL SUB AND DUP4 PUSH1 0x1 PUSH1 0x1 PUSH1 0xA0 SHL SUB AND EQ ISZERO PUSH2 0x64A JUMPI PUSH1 0x40 MLOAD PUSH3 0x461BCD PUSH1 0xE5 SHL DUP2 MSTORE PUSH1 0x20 PUSH1 0x4 DUP3 ADD MSTORE PUSH1 0x21 PUSH1 0x24 DUP3 ADD MSTORE PUSH32 0x4552433732313A20617070726F76616C20746F2063757272656E74206F776E65 PUSH1 0x44 DUP3 ADD MSTORE PUSH1 0x39 PUSH1 0xF9 SHL PUSH1 0x64 DUP3 ADD MSTORE PUSH1 0x84 ADD JUMPDEST PUSH1 0x40 MLOAD DUP1 SWAP2 SUB SWAP1 REVERT JUMPDEST CALLER PUSH1 0x1 PUSH1 0x1 PUSH1 0xA0 SHL SUB DUP3 AND EQ DUP1 PUSH2 0x666 JUMPI POP PUSH2 0x666 DUP2 CALLER PUSH2 0x4A5 JUMP JUMPDEST PUSH2 0x6D8 JUMPI PUSH1 0x40 MLOAD PUSH3 0x461BCD PUSH1 0xE5 SHL DUP2 MSTORE PUSH1 0x20 PUSH1 0x4 DUP3 ADD MSTORE PUSH1 0x3D PUSH1 0x24 DUP3 ADD MSTORE PUSH32 0x4552433732313A20617070726F76652063616C6C6572206973206E6F7420746F PUSH1 0x44 DUP3 ADD MSTORE PUSH32 0x6B656E206F776E6572206F7220617070726F76656420666F7220616C6C000000 PUSH1 0x64 DUP3 ADD MSTORE PUSH1 0x84 ADD PUSH2 0x641 JUMP JUMPDEST PUSH2 0x6E2 DUP4 DUP4 PUSH2 0x14DD JUMP JUMPDEST POP POP POP JUMP JUMPDEST PUSH2 0x6F1 CALLER DUP3 PUSH2 0x154B JUMP JUMPDEST PUSH2 0x70D JUMPI PUSH1 0x40 MLOAD PUSH3 0x461BCD PUSH1 0xE5 SHL DUP2 MSTORE PUSH1 0x4 ADD PUSH2 0x641 SWAP1 PUSH2 0x22A7 JUMP JUMPDEST PUSH2 0x6E2 DUP4 DUP4 DUP4 PUSH2 0x15C9 JUMP JUMPDEST PUSH2 0x6E2 DUP4 DUP4 DUP4 PUSH1 0x40 MLOAD DUP1 PUSH1 0x20 ADD PUSH1 0x40 MSTORE DUP1 PUSH1 0x0 DUP2 MSTORE POP PUSH2 0x1034 JUMP JUMPDEST PUSH1 0x60 PUSH1 0x0 PUSH2 0x740 PUSH1 0x8 SLOAD SWAP1 JUMP JUMPDEST SWAP1 POP PUSH1 0x0 DUP1 PUSH1 0x0 JUMPDEST DUP4 DUP2 LT ISZERO PUSH2 0x7D8 JUMPI CALLER PUSH1 0xC PUSH1 0x0 PUSH2 0x760 DUP5 PUSH1 0x1 PUSH2 0x2399 JUMP JUMPDEST DUP2 MSTORE PUSH1 0x20 DUP2 ADD SWAP2 SWAP1 SWAP2 MSTORE PUSH1 0x40 ADD PUSH1 0x0 KECCAK256 PUSH1 0x1 ADD SLOAD PUSH1 0x1 PUSH1 0x1 PUSH1 0xA0 SHL SUB AND EQ DUP1 PUSH2 0x7B3 JUMPI POP CALLER PUSH1 0xC PUSH1 0x0 PUSH2 0x794 DUP5 PUSH1 0x1 PUSH2 0x2399 JUMP JUMPDEST DUP2 MSTORE PUSH1 0x20 DUP2 ADD SWAP2 SWAP1 SWAP2 MSTORE PUSH1 0x40 ADD PUSH1 0x0 KECCAK256 PUSH1 0x2 ADD SLOAD PUSH1 0x1 PUSH1 0x1 PUSH1 0xA0 SHL SUB AND EQ JUMPDEST ISZERO PUSH2 0x7C6 JUMPI PUSH2 0x7C3 PUSH1 0x1 DUP5 PUSH2 0x2399 JUMP JUMPDEST SWAP3 POP JUMPDEST DUP1 PUSH2 0x7D0 DUP2 PUSH2 0x2418 JUMP JUMPDEST SWAP2 POP POP PUSH2 0x748 JUMP JUMPDEST POP PUSH1 0x0 DUP3 PUSH8 0xFFFFFFFFFFFFFFFF DUP2 GT ISZERO PUSH2 0x802 JUMPI PUSH4 0x4E487B71 PUSH1 0xE0 SHL PUSH1 0x0 MSTORE PUSH1 0x41 PUSH1 0x4 MSTORE PUSH1 0x24 PUSH1 0x0 REVERT JUMPDEST PUSH1 0x40 MLOAD SWAP1 DUP1 DUP3 MSTORE DUP1 PUSH1 0x20 MUL PUSH1 0x20 ADD DUP3 ADD PUSH1 0x40 MSTORE DUP1 ISZERO PUSH2 0x83B JUMPI DUP2 PUSH1 0x20 ADD JUMPDEST PUSH2 0x828 PUSH2 0x1DDC JUMP JUMPDEST DUP2 MSTORE PUSH1 0x20 ADD SWAP1 PUSH1 0x1 SWAP1 SUB SWAP1 DUP2 PUSH2 0x820 JUMPI SWAP1 POP JUMPDEST POP SWAP1 POP PUSH1 0x0 JUMPDEST DUP5 DUP2 LT ISZERO PUSH2 0x96F JUMPI CALLER PUSH1 0xC PUSH1 0x0 PUSH2 0x859 DUP5 PUSH1 0x1 PUSH2 0x2399 JUMP JUMPDEST DUP2 MSTORE PUSH1 0x20 DUP2 ADD SWAP2 SWAP1 SWAP2 MSTORE PUSH1 0x40 ADD PUSH1 0x0 KECCAK256 PUSH1 0x1 ADD SLOAD PUSH1 0x1 PUSH1 0x1 PUSH1 0xA0 SHL SUB AND EQ DUP1 PUSH2 0x8AC JUMPI POP CALLER PUSH1 0xC PUSH1 0x0 PUSH2 0x88D DUP5 PUSH1 0x1 PUSH2 0x2399 JUMP JUMPDEST DUP2 MSTORE PUSH1 0x20 DUP2 ADD SWAP2 SWAP1 SWAP2 MSTORE PUSH1 0x40 ADD PUSH1 0x0 KECCAK256 PUSH1 0x2 ADD SLOAD PUSH1 0x1 PUSH1 0x1 PUSH1 0xA0 SHL SUB AND EQ JUMPDEST ISZERO PUSH2 0x95D JUMPI PUSH1 0x0 PUSH2 0x8BE DUP3 PUSH1 0x1 PUSH2 0x2399 JUMP JUMPDEST PUSH1 0x0 DUP2 DUP2 MSTORE PUSH1 0xC PUSH1 0x20 SWAP1 DUP2 MSTORE PUSH1 0x40 SWAP2 DUP3 SWAP1 KECCAK256 DUP3 MLOAD PUSH1 0xA0 DUP2 ADD DUP5 MSTORE DUP2 SLOAD DUP2 MSTORE PUSH1 0x1 DUP3 ADD SLOAD PUSH1 0x1 PUSH1 0x1 PUSH1 0xA0 SHL SUB SWAP1 DUP2 AND SWAP4 DUP3 ADD SWAP4 SWAP1 SWAP4 MSTORE PUSH1 0x2 DUP3 ADD SLOAD SWAP1 SWAP3 AND SWAP3 DUP3 ADD SWAP3 SWAP1 SWAP3 MSTORE PUSH1 0x3 DUP3 ADD SLOAD PUSH1 0x60 DUP3 ADD MSTORE PUSH1 0x4 DUP3 ADD SLOAD PUSH1 0xFF AND ISZERO ISZERO PUSH1 0x80 DUP3 ADD MSTORE DUP6 MLOAD SWAP3 SWAP4 POP SWAP1 SWAP2 DUP6 SWAP1 DUP8 SWAP1 DUP2 LT PUSH2 0x942 JUMPI PUSH4 0x4E487B71 PUSH1 0xE0 SHL PUSH1 0x0 MSTORE PUSH1 0x32 PUSH1 0x4 MSTORE PUSH1 0x24 PUSH1 0x0 REVERT JUMPDEST PUSH1 0x20 SWAP1 DUP2 MUL SWAP2 SWAP1 SWAP2 ADD ADD MSTORE PUSH2 0x958 PUSH1 0x1 DUP7 PUSH2 0x2399 JUMP JUMPDEST SWAP5 POP POP POP JUMPDEST DUP1 PUSH2 0x967 DUP2 PUSH2 0x2418 JUMP JUMPDEST SWAP2 POP POP PUSH2 0x841 JUMP JUMPDEST POP SWAP5 SWAP4 POP POP POP POP JUMP JUMPDEST PUSH1 0x0 DUP2 DUP2 MSTORE PUSH1 0x2 PUSH1 0x20 MSTORE PUSH1 0x40 DUP2 KECCAK256 SLOAD PUSH1 0x1 PUSH1 0x1 PUSH1 0xA0 SHL SUB AND DUP1 PUSH2 0x50D JUMPI PUSH1 0x40 MLOAD PUSH3 0x461BCD PUSH1 0xE5 SHL DUP2 MSTORE PUSH1 0x20 PUSH1 0x4 DUP3 ADD MSTORE PUSH1 0x18 PUSH1 0x24 DUP3 ADD MSTORE PUSH24 0x115490CDCC8C4E881A5B9D985B1A59081D1BDAD95B881251 PUSH1 0x42 SHL PUSH1 0x44 DUP3 ADD MSTORE PUSH1 0x64 ADD PUSH2 0x641 JUMP JUMPDEST PUSH1 0x7 SLOAD PUSH1 0xB SLOAD PUSH1 0x40 MLOAD PUSH4 0x23B872DD PUSH1 0xE0 SHL DUP2 MSTORE CALLER PUSH1 0x4 DUP3 ADD MSTORE ADDRESS PUSH1 0x24 DUP3 ADD MSTORE PUSH1 0x44 DUP2 ADD SWAP2 SWAP1 SWAP2 MSTORE PUSH1 0x1 PUSH1 0x1 PUSH1 0xA0 SHL SUB SWAP1 SWAP2 AND SWAP1 PUSH4 0x23B872DD SWAP1 PUSH1 0x64 ADD PUSH1 0x20 PUSH1 0x40 MLOAD DUP1 DUP4 SUB DUP2 PUSH1 0x0 DUP8 DUP1 EXTCODESIZE ISZERO DUP1 ISZERO PUSH2 0xA2E JUMPI PUSH1 0x0 DUP1 REVERT JUMPDEST POP GAS CALL ISZERO DUP1 ISZERO PUSH2 0xA42 JUMPI RETURNDATASIZE PUSH1 0x0 DUP1 RETURNDATACOPY RETURNDATASIZE PUSH1 0x0 REVERT JUMPDEST POP POP POP POP PUSH1 0x40 MLOAD RETURNDATASIZE PUSH1 0x1F NOT PUSH1 0x1F DUP3 ADD AND DUP3 ADD DUP1 PUSH1 0x40 MSTORE POP DUP2 ADD SWAP1 PUSH2 0xA66 SWAP2 SWAP1 PUSH2 0x2094 JUMP JUMPDEST PUSH2 0xACA JUMPI PUSH1 0x40 MLOAD PUSH3 0x461BCD PUSH1 0xE5 SHL DUP2 MSTORE PUSH1 0x20 PUSH1 0x4 DUP3 ADD MSTORE PUSH1 0x2F PUSH1 0x24 DUP3 ADD MSTORE PUSH32 0x5472616E73666572206F6620436F696E437261667420746F6B656E7320666F72 PUSH1 0x44 DUP3 ADD MSTORE PUSH15 0x81B1A5CDD1A5B99C819985A5B1959 PUSH1 0x8A SHL PUSH1 0x64 DUP3 ADD MSTORE PUSH1 0x84 ADD PUSH2 0x641 JUMP JUMPDEST PUSH2 0xAD8 PUSH1 0x8 DUP1 SLOAD PUSH1 0x1 ADD SWAP1 SSTORE JUMP JUMPDEST PUSH1 0x0 PUSH2 0xAE3 PUSH1 0x8 SLOAD SWAP1 JUMP JUMPDEST SWAP1 POP PUSH2 0xAEF CALLER DUP3 PUSH2 0x172D JUMP JUMPDEST PUSH2 0xAF9 DUP2 DUP5 PUSH2 0x1747 JUMP JUMPDEST PUSH1 0x40 DUP1 MLOAD PUSH1 0xA0 DUP2 ADD DUP3 MSTORE DUP3 DUP2 MSTORE ADDRESS PUSH1 0x20 DUP1 DUP4 ADD DUP3 DUP2 MSTORE CALLER DUP5 DUP7 ADD DUP2 DUP2 MSTORE PUSH1 0x60 DUP7 ADD DUP10 DUP2 MSTORE PUSH1 0x1 PUSH1 0x80 DUP9 ADD DUP2 DUP2 MSTORE PUSH1 0x0 DUP12 DUP2 MSTORE PUSH1 0xC SWAP1 SWAP8 MSTORE SWAP9 SWAP1 SWAP6 KECCAK256 SWAP7 MLOAD DUP8 SSTORE SWAP3 MLOAD SWAP4 DUP7 ADD DUP1 SLOAD PUSH1 0x1 PUSH1 0x1 PUSH1 0xA0 SHL SUB SWAP6 DUP7 AND PUSH1 0x1 PUSH1 0x1 PUSH1 0xA0 SHL SUB NOT SWAP2 DUP3 AND OR SWAP1 SWAP2 SSTORE SWAP1 MLOAD PUSH1 0x2 DUP8 ADD DUP1 SLOAD SWAP2 SWAP1 SWAP6 AND SWAP2 AND OR SWAP1 SWAP3 SSTORE MLOAD PUSH1 0x3 DUP5 ADD SSTORE SWAP3 MLOAD PUSH1 0x4 SWAP1 SWAP3 ADD DUP1 SLOAD SWAP3 ISZERO ISZERO PUSH1 0xFF NOT SWAP1 SWAP4 AND SWAP3 SWAP1 SWAP3 OR SWAP1 SWAP2 SSTORE PUSH2 0xB96 SWAP2 SWAP1 DUP4 PUSH2 0x15C9 JUMP JUMPDEST PUSH1 0x40 DUP1 MLOAD ADDRESS DUP2 MSTORE CALLER PUSH1 0x20 DUP3 ADD MSTORE SWAP1 DUP2 ADD DUP4 SWAP1 MSTORE PUSH1 0x1 PUSH1 0x60 DUP3 ADD MSTORE DUP2 SWAP1 PUSH32 0x9339409317FD01FABFF48B703019016F49159BACC801AE872D2CA637D226E4C0 SWAP1 PUSH1 0x80 ADD PUSH1 0x40 MLOAD DUP1 SWAP2 SUB SWAP1 LOG2 POP POP POP JUMP JUMPDEST PUSH1 0x0 PUSH1 0x1 PUSH1 0x1 PUSH1 0xA0 SHL SUB DUP3 AND PUSH2 0xC4E JUMPI PUSH1 0x40 MLOAD PUSH3 0x461BCD PUSH1 0xE5 SHL DUP2 MSTORE PUSH1 0x20 PUSH1 0x4 DUP3 ADD MSTORE PUSH1 0x29 PUSH1 0x24 DUP3 ADD MSTORE PUSH32 0x4552433732313A2061646472657373207A65726F206973206E6F742061207661 PUSH1 0x44 DUP3 ADD MSTORE PUSH9 0x3634B21037BBB732B9 PUSH1 0xB9 SHL PUSH1 0x64 DUP3 ADD MSTORE PUSH1 0x84 ADD PUSH2 0x641 JUMP JUMPDEST POP PUSH1 0x1 PUSH1 0x1 PUSH1 0xA0 SHL SUB AND PUSH1 0x0 SWAP1 DUP2 MSTORE PUSH1 0x3 PUSH1 0x20 MSTORE PUSH1 0x40 SWAP1 KECCAK256 SLOAD SWAP1 JUMP JUMPDEST PUSH1 0x0 PUSH2 0xC7A PUSH1 0x8 DUP1 SLOAD PUSH1 0x1 ADD SWAP1 SSTORE JUMP JUMPDEST PUSH1 0x0 PUSH2 0xC85 PUSH1 0x8 SLOAD SWAP1 JUMP JUMPDEST SWAP1 POP PUSH2 0xC91 CALLER DUP3 PUSH2 0x172D JUMP JUMPDEST PUSH2 0xC9B DUP2 DUP6 PUSH2 0x1747 JUMP JUMPDEST PUSH2 0xCA5 DUP5 DUP5 PUSH2 0x9D8 JUMP JUMPDEST SWAP4 SWAP3 POP POP POP JUMP JUMPDEST PUSH2 0xCB4 PUSH2 0x1DDC JUMP JUMPDEST POP PUSH1 0x0 SWAP1 DUP2 MSTORE PUSH1 0xC PUSH1 0x20 SWAP1 DUP2 MSTORE PUSH1 0x40 SWAP2 DUP3 SWAP1 KECCAK256 DUP3 MLOAD PUSH1 0xA0 DUP2 ADD DUP5 MSTORE DUP2 SLOAD DUP2 MSTORE PUSH1 0x1 DUP3 ADD SLOAD PUSH1 0x1 PUSH1 0x1 PUSH1 0xA0 SHL SUB SWAP1 DUP2 AND SWAP4 DUP3 ADD SWAP4 SWAP1 SWAP4 MSTORE PUSH1 0x2 DUP3 ADD SLOAD SWAP1 SWAP3 AND SWAP3 DUP3 ADD SWAP3 SWAP1 SWAP3 MSTORE PUSH1 0x3 DUP3 ADD SLOAD PUSH1 0x60 DUP3 ADD MSTORE PUSH1 0x4 SWAP1 SWAP2 ADD SLOAD PUSH1 0xFF AND ISZERO ISZERO PUSH1 0x80 DUP3 ADD MSTORE SWAP1 JUMP JUMPDEST PUSH1 0x60 PUSH1 0x1 DUP1 SLOAD PUSH2 0x522 SWAP1 PUSH2 0x23DD JUMP JUMPDEST PUSH1 0x0 DUP2 DUP2 MSTORE PUSH1 0xC PUSH1 0x20 MSTORE PUSH1 0x40 SWAP1 DUP2 SWAP1 KECCAK256 PUSH1 0x3 DUP2 ADD SLOAD PUSH1 0x2 SWAP1 SWAP2 ADD SLOAD PUSH1 0x7 SLOAD SWAP3 MLOAD PUSH4 0x23B872DD PUSH1 0xE0 SHL DUP2 MSTORE CALLER PUSH1 0x4 DUP3 ADD MSTORE PUSH1 0x1 PUSH1 0x1 PUSH1 0xA0 SHL SUB SWAP2 DUP3 AND PUSH1 0x24 DUP3 ADD DUP2 SWAP1 MSTORE PUSH1 0x44 DUP3 ADD DUP5 SWAP1 MSTORE SWAP3 SWAP4 SWAP2 SWAP1 SWAP2 AND SWAP1 PUSH4 0x23B872DD SWAP1 PUSH1 0x64 ADD PUSH1 0x20 PUSH1 0x40 MLOAD DUP1 DUP4 SUB DUP2 PUSH1 0x0 DUP8 DUP1 EXTCODESIZE ISZERO DUP1 ISZERO PUSH2 0xD98 JUMPI PUSH1 0x0 DUP1 REVERT JUMPDEST POP GAS CALL ISZERO DUP1 ISZERO PUSH2 0xDAC JUMPI RETURNDATASIZE PUSH1 0x0 DUP1 RETURNDATACOPY RETURNDATASIZE PUSH1 0x0 REVERT JUMPDEST POP POP POP POP PUSH1 0x40 MLOAD RETURNDATASIZE PUSH1 0x1F NOT PUSH1 0x1F DUP3 ADD AND DUP3 ADD DUP1 PUSH1 0x40 MSTORE POP DUP2 ADD SWAP1 PUSH2 0xDD0 SWAP2 SWAP1 PUSH2 0x2094 JUMP JUMPDEST PUSH2 0xE35 JUMPI PUSH1 0x40 MLOAD PUSH3 0x461BCD PUSH1 0xE5 SHL DUP2 MSTORE PUSH1 0x20 PUSH1 0x4 DUP3 ADD MSTORE PUSH1 0x30 PUSH1 0x24 DUP3 ADD MSTORE PUSH32 0x5472616E73666572206F6620436F696E437261667420746F6B656E7320666F72 PUSH1 0x44 DUP3 ADD MSTORE PUSH16 0x81C1D5C98DA185CD94819985A5B1959 PUSH1 0x82 SHL PUSH1 0x64 DUP3 ADD MSTORE PUSH1 0x84 ADD PUSH2 0x641 JUMP JUMPDEST PUSH1 0x7 SLOAD PUSH1 0x40 MLOAD PUSH4 0x70A08231 PUSH1 0xE0 SHL DUP2 MSTORE CALLER PUSH1 0x4 DUP3 ADD MSTORE PUSH1 0x0 SWAP2 PUSH1 0x1 PUSH1 0x1 PUSH1 0xA0 SHL SUB AND SWAP1 PUSH4 0x70A08231 SWAP1 PUSH1 0x24 ADD PUSH1 0x20 PUSH1 0x40 MLOAD DUP1 DUP4 SUB DUP2 DUP7 DUP1 EXTCODESIZE ISZERO DUP1 ISZERO PUSH2 0xE79 JUMPI PUSH1 0x0 DUP1 REVERT JUMPDEST POP GAS STATICCALL ISZERO DUP1 ISZERO PUSH2 0xE8D JUMPI RETURNDATASIZE PUSH1 0x0 DUP1 RETURNDATACOPY RETURNDATASIZE PUSH1 0x0 REVERT JUMPDEST POP POP POP POP PUSH1 0x40 MLOAD RETURNDATASIZE PUSH1 0x1F NOT PUSH1 0x1F DUP3 ADD AND DUP3 ADD DUP1 PUSH1 0x40 MSTORE POP DUP2 ADD SWAP1 PUSH2 0xEB1 SWAP2 SWAP1 PUSH2 0x2156 JUMP JUMPDEST SWAP1 POP DUP3 DUP2 LT ISZERO PUSH2 0xF03 JUMPI PUSH1 0x40 MLOAD PUSH3 0x461BCD PUSH1 0xE5 SHL DUP2 MSTORE PUSH1 0x20 PUSH1 0x4 DUP3 ADD MSTORE PUSH1 0x1E PUSH1 0x24 DUP3 ADD MSTORE PUSH32 0x496E73756666696369656E7420436F696E43726166742062616C616E63650000 PUSH1 0x44 DUP3 ADD MSTORE PUSH1 0x64 ADD PUSH2 0x641 JUMP JUMPDEST PUSH1 0x0 DUP5 DUP2 MSTORE PUSH1 0xC PUSH1 0x20 MSTORE PUSH1 0x40 SWAP1 KECCAK256 PUSH1 0x4 DUP2 ADD DUP1 SLOAD PUSH1 0xFF NOT AND SWAP1 SSTORE PUSH1 0x2 ADD DUP1 SLOAD PUSH1 0x1 PUSH1 0x1 PUSH1 0xA0 SHL SUB NOT AND CALLER OR SWAP1 SSTORE PUSH2 0xF3E PUSH1 0x9 DUP1 SLOAD PUSH1 0x1 ADD SWAP1 SSTORE JUMP JUMPDEST PUSH2 0xF49 ADDRESS CALLER DUP7 PUSH2 0x15C9 JUMP JUMPDEST PUSH2 0xF53 CALLER DUP6 PUSH2 0x5CC JUMP JUMPDEST PUSH1 0xA SLOAD PUSH1 0xB SLOAD PUSH1 0x40 MLOAD PUSH1 0x1 PUSH1 0x1 PUSH1 0xA0 SHL SUB SWAP1 SWAP3 AND SWAP2 DUP2 ISZERO PUSH2 0x8FC MUL SWAP2 SWAP1 PUSH1 0x0 DUP2 DUP2 DUP2 DUP6 DUP9 DUP9 CALL SWAP4 POP POP POP POP ISZERO DUP1 ISZERO PUSH2 0xF8F JUMPI RETURNDATASIZE PUSH1 0x0 DUP1 RETURNDATACOPY RETURNDATASIZE PUSH1 0x0 REVERT JUMPDEST POP POP POP POP POP JUMP JUMPDEST PUSH2 0xFA1 CALLER DUP4 DUP4 PUSH2 0x1819 JUMP JUMPDEST POP POP JUMP JUMPDEST PUSH1 0xA SLOAD PUSH1 0x1 PUSH1 0x1 PUSH1 0xA0 SHL SUB AND CALLER EQ PUSH2 0x1012 JUMPI PUSH1 0x40 MLOAD PUSH3 0x461BCD PUSH1 0xE5 SHL DUP2 MSTORE PUSH1 0x20 PUSH1 0x4 DUP3 ADD MSTORE PUSH1 0x2A PUSH1 0x24 DUP3 ADD MSTORE PUSH32 0x4F6E6C79206F776E65722063616E2073657420436F696E437261667420746F6B PUSH1 0x44 DUP3 ADD MSTORE PUSH10 0x656E2061646472657373 PUSH1 0xB0 SHL PUSH1 0x64 DUP3 ADD MSTORE PUSH1 0x84 ADD PUSH2 0x641 JUMP JUMPDEST PUSH1 0x7 DUP1 SLOAD PUSH1 0x1 PUSH1 0x1 PUSH1 0xA0 SHL SUB NOT AND PUSH1 0x1 PUSH1 0x1 PUSH1 0xA0 SHL SUB SWAP3 SWAP1 SWAP3 AND SWAP2 SWAP1 SWAP2 OR SWAP1 SSTORE JUMP JUMPDEST PUSH2 0x103E CALLER DUP4 PUSH2 0x154B JUMP JUMPDEST PUSH2 0x105A JUMPI PUSH1 0x40 MLOAD PUSH3 0x461BCD PUSH1 0xE5 SHL DUP2 MSTORE PUSH1 0x4 ADD PUSH2 0x641 SWAP1 PUSH2 0x22A7 JUMP JUMPDEST PUSH2 0x1066 DUP5 DUP5 DUP5 DUP5 PUSH2 0x18E8 JUMP JUMPDEST POP POP POP POP JUMP JUMPDEST PUSH1 0xA SLOAD PUSH1 0x1 PUSH1 0x1 PUSH1 0xA0 SHL SUB AND CALLER EQ PUSH2 0x10D2 JUMPI PUSH1 0x40 MLOAD PUSH3 0x461BCD PUSH1 0xE5 SHL DUP2 MSTORE PUSH1 0x20 PUSH1 0x4 DUP3 ADD MSTORE PUSH1 0x23 PUSH1 0x24 DUP3 ADD MSTORE PUSH32 0x4F6E6C79206F776E65722063616E20757064617465206C697374696E67207072 PUSH1 0x44 DUP3 ADD MSTORE PUSH3 0x696365 PUSH1 0xE8 SHL PUSH1 0x64 DUP3 ADD MSTORE PUSH1 0x84 ADD PUSH2 0x641 JUMP JUMPDEST PUSH1 0xB SSTORE JUMP JUMPDEST PUSH1 0x60 PUSH2 0x10E2 DUP3 PUSH2 0x147B JUMP JUMPDEST PUSH1 0x0 DUP3 DUP2 MSTORE PUSH1 0x6 PUSH1 0x20 MSTORE PUSH1 0x40 DUP2 KECCAK256 DUP1 SLOAD PUSH2 0x10FB SWAP1 PUSH2 0x23DD JUMP JUMPDEST DUP1 PUSH1 0x1F ADD PUSH1 0x20 DUP1 SWAP2 DIV MUL PUSH1 0x20 ADD PUSH1 0x40 MLOAD SWAP1 DUP2 ADD PUSH1 0x40 MSTORE DUP1 SWAP3 SWAP2 SWAP1 DUP2 DUP2 MSTORE PUSH1 0x20 ADD DUP3 DUP1 SLOAD PUSH2 0x1127 SWAP1 PUSH2 0x23DD JUMP JUMPDEST DUP1 ISZERO PUSH2 0x1174 JUMPI DUP1 PUSH1 0x1F LT PUSH2 0x1149 JUMPI PUSH2 0x100 DUP1 DUP4 SLOAD DIV MUL DUP4 MSTORE SWAP2 PUSH1 0x20 ADD SWAP2 PUSH2 0x1174 JUMP JUMPDEST DUP3 ADD SWAP2 SWAP1 PUSH1 0x0 MSTORE PUSH1 0x20 PUSH1 0x0 KECCAK256 SWAP1 JUMPDEST DUP2 SLOAD DUP2 MSTORE SWAP1 PUSH1 0x1 ADD SWAP1 PUSH1 0x20 ADD DUP1 DUP4 GT PUSH2 0x1157 JUMPI DUP3 SWAP1 SUB PUSH1 0x1F AND DUP3 ADD SWAP2 JUMPDEST POP POP POP POP POP SWAP1 POP PUSH1 0x0 PUSH2 0x1192 PUSH1 0x40 DUP1 MLOAD PUSH1 0x20 DUP2 ADD SWAP1 SWAP2 MSTORE PUSH1 0x0 DUP2 MSTORE SWAP1 JUMP JUMPDEST SWAP1 POP DUP1 MLOAD PUSH1 0x0 EQ ISZERO PUSH2 0x11A5 JUMPI POP SWAP3 SWAP2 POP POP JUMP JUMPDEST DUP2 MLOAD ISZERO PUSH2 0x11D7 JUMPI DUP1 DUP3 PUSH1 0x40 MLOAD PUSH1 0x20 ADD PUSH2 0x11BF SWAP3 SWAP2 SWAP1 PUSH2 0x21DA JUMP JUMPDEST PUSH1 0x40 MLOAD PUSH1 0x20 DUP2 DUP4 SUB SUB DUP2 MSTORE SWAP1 PUSH1 0x40 MSTORE SWAP3 POP POP POP SWAP2 SWAP1 POP JUMP JUMPDEST PUSH2 0x11E0 DUP5 PUSH2 0x191B JUMP JUMPDEST SWAP5 SWAP4 POP POP POP POP JUMP JUMPDEST PUSH2 0x11F0 PUSH2 0x1DDC JUMP JUMPDEST PUSH1 0x0 PUSH2 0x11FB PUSH1 0x8 SLOAD SWAP1 JUMP JUMPDEST PUSH1 0x0 SWAP1 DUP2 MSTORE PUSH1 0xC PUSH1 0x20 SWAP1 DUP2 MSTORE PUSH1 0x40 SWAP2 DUP3 SWAP1 KECCAK256 DUP3 MLOAD PUSH1 0xA0 DUP2 ADD DUP5 MSTORE DUP2 SLOAD DUP2 MSTORE PUSH1 0x1 DUP3 ADD SLOAD PUSH1 0x1 PUSH1 0x1 PUSH1 0xA0 SHL SUB SWAP1 DUP2 AND SWAP4 DUP3 ADD SWAP4 SWAP1 SWAP4 MSTORE PUSH1 0x2 DUP3 ADD SLOAD SWAP1 SWAP3 AND SWAP3 DUP3 ADD SWAP3 SWAP1 SWAP3 MSTORE PUSH1 0x3 DUP3 ADD SLOAD PUSH1 0x60 DUP3 ADD MSTORE PUSH1 0x4 SWAP1 SWAP2 ADD SLOAD PUSH1 0xFF AND ISZERO ISZERO PUSH1 0x80 DUP3 ADD MSTORE SWAP3 SWAP2 POP POP JUMP JUMPDEST PUSH1 0xA SLOAD PUSH1 0x1 PUSH1 0x1 PUSH1 0xA0 SHL SUB AND CALLER EQ PUSH2 0x1012 JUMPI PUSH1 0x40 MLOAD PUSH3 0x461BCD PUSH1 0xE5 SHL DUP2 MSTORE PUSH1 0x20 PUSH1 0x4 DUP3 ADD MSTORE PUSH1 0x2B PUSH1 0x24 DUP3 ADD MSTORE PUSH32 0x4F6E6C79206F776E65722063616E2073657420436F696E437261667420746F6B PUSH1 0x44 DUP3 ADD MSTORE PUSH11 0x195B8818DBDB9D1C9858DD PUSH1 0xAA SHL PUSH1 0x64 DUP3 ADD MSTORE PUSH1 0x84 ADD PUSH2 0x641 JUMP JUMPDEST PUSH1 0x60 PUSH1 0x0 PUSH2 0x12DA PUSH1 0x8 SLOAD SWAP1 JUMP JUMPDEST SWAP1 POP PUSH1 0x0 DUP2 PUSH8 0xFFFFFFFFFFFFFFFF DUP2 GT ISZERO PUSH2 0x1305 JUMPI PUSH4 0x4E487B71 PUSH1 0xE0 SHL PUSH1 0x0 MSTORE PUSH1 0x41 PUSH1 0x4 MSTORE PUSH1 0x24 PUSH1 0x0 REVERT JUMPDEST PUSH1 0x40 MLOAD SWAP1 DUP1 DUP3 MSTORE DUP1 PUSH1 0x20 MUL PUSH1 0x20 ADD DUP3 ADD PUSH1 0x40 MSTORE DUP1 ISZERO PUSH2 0x133E JUMPI DUP2 PUSH1 0x20 ADD JUMPDEST PUSH2 0x132B PUSH2 0x1DDC JUMP JUMPDEST DUP2 MSTORE PUSH1 0x20 ADD SWAP1 PUSH1 0x1 SWAP1 SUB SWAP1 DUP2 PUSH2 0x1323 JUMPI SWAP1 POP JUMPDEST POP SWAP1 POP PUSH1 0x0 DUP1 JUMPDEST DUP4 DUP2 LT ISZERO PUSH2 0x1412 JUMPI PUSH1 0x0 PUSH2 0x135A DUP3 PUSH1 0x1 PUSH2 0x2399 JUMP JUMPDEST PUSH1 0x0 DUP2 DUP2 MSTORE PUSH1 0xC PUSH1 0x20 MSTORE PUSH1 0x40 SWAP1 KECCAK256 PUSH1 0x4 DUP2 ADD SLOAD SWAP2 SWAP3 POP SWAP1 PUSH1 0xFF AND ISZERO PUSH2 0x13F0 JUMPI PUSH1 0x40 DUP1 MLOAD PUSH1 0xA0 DUP2 ADD DUP3 MSTORE DUP3 SLOAD DUP2 MSTORE PUSH1 0x1 DUP4 ADD SLOAD PUSH1 0x1 PUSH1 0x1 PUSH1 0xA0 SHL SUB SWAP1 DUP2 AND PUSH1 0x20 DUP4 ADD MSTORE PUSH1 0x2 DUP5 ADD SLOAD AND SWAP2 DUP2 ADD SWAP2 SWAP1 SWAP2 MSTORE PUSH1 0x3 DUP3 ADD SLOAD PUSH1 0x60 DUP3 ADD MSTORE PUSH1 0x4 DUP3 ADD SLOAD PUSH1 0xFF AND ISZERO ISZERO PUSH1 0x80 DUP3 ADD MSTORE DUP6 MLOAD DUP7 SWAP1 DUP7 SWAP1 DUP2 LT PUSH2 0x13E4 JUMPI PUSH4 0x4E487B71 PUSH1 0xE0 SHL PUSH1 0x0 MSTORE PUSH1 0x32 PUSH1 0x4 MSTORE PUSH1 0x24 PUSH1 0x0 REVERT JUMPDEST PUSH1 0x20 MUL PUSH1 0x20 ADD ADD DUP2 SWAP1 MSTORE POP JUMPDEST PUSH2 0x13FB PUSH1 0x1 DUP6 PUSH2 0x2399 JUMP JUMPDEST SWAP4 POP POP POP DUP1 DUP1 PUSH2 0x140A SWAP1 PUSH2 0x2418 JUMP JUMPDEST SWAP2 POP POP PUSH2 0x1345 JUMP JUMPDEST POP SWAP1 SWAP4 SWAP3 POP POP POP JUMP JUMPDEST PUSH1 0x0 PUSH2 0x1426 PUSH1 0x8 SLOAD SWAP1 JUMP JUMPDEST SWAP1 POP SWAP1 JUMP JUMPDEST PUSH1 0x0 PUSH1 0x1 PUSH1 0x1 PUSH1 0xE0 SHL SUB NOT DUP3 AND PUSH4 0x80AC58CD PUSH1 0xE0 SHL EQ DUP1 PUSH2 0x145C JUMPI POP PUSH1 0x1 PUSH1 0x1 PUSH1 0xE0 SHL SUB NOT DUP3 AND PUSH4 0x5B5E139F PUSH1 0xE0 SHL EQ JUMPDEST DUP1 PUSH2 0x50D JUMPI POP PUSH4 0x1FFC9A7 PUSH1 0xE0 SHL PUSH1 0x1 PUSH1 0x1 PUSH1 0xE0 SHL SUB NOT DUP4 AND EQ PUSH2 0x50D JUMP JUMPDEST PUSH1 0x0 DUP2 DUP2 MSTORE PUSH1 0x2 PUSH1 0x20 MSTORE PUSH1 0x40 SWAP1 KECCAK256 SLOAD PUSH1 0x1 PUSH1 0x1 PUSH1 0xA0 SHL SUB AND PUSH2 0x14DA JUMPI PUSH1 0x40 MLOAD PUSH3 0x461BCD PUSH1 0xE5 SHL DUP2 MSTORE PUSH1 0x20 PUSH1 0x4 DUP3 ADD MSTORE PUSH1 0x18 PUSH1 0x24 DUP3 ADD MSTORE PUSH24 0x115490CDCC8C4E881A5B9D985B1A59081D1BDAD95B881251 PUSH1 0x42 SHL PUSH1 0x44 DUP3 ADD MSTORE PUSH1 0x64 ADD PUSH2 0x641 JUMP JUMPDEST POP JUMP JUMPDEST PUSH1 0x0 DUP2 DUP2 MSTORE PUSH1 0x4 PUSH1 0x20 MSTORE PUSH1 0x40 SWAP1 KECCAK256 DUP1 SLOAD PUSH1 0x1 PUSH1 0x1 PUSH1 0xA0 SHL SUB NOT AND PUSH1 0x1 PUSH1 0x1 PUSH1 0xA0 SHL SUB DUP5 AND SWAP1 DUP2 OR SWAP1 SWAP2 SSTORE DUP2 SWAP1 PUSH2 0x1512 DUP3 PUSH2 0x978 JUMP JUMPDEST PUSH1 0x1 PUSH1 0x1 PUSH1 0xA0 SHL SUB AND PUSH32 0x8C5BE1E5EBEC7D5BD14F71427D1E84F3DD0314C0F7B2291E5B200AC8C7C3B925 PUSH1 0x40 MLOAD PUSH1 0x40 MLOAD DUP1 SWAP2 SUB SWAP1 LOG4 POP POP JUMP JUMPDEST PUSH1 0x0 DUP1 PUSH2 0x1557 DUP4 PUSH2 0x978 JUMP JUMPDEST SWAP1 POP DUP1 PUSH1 0x1 PUSH1 0x1 PUSH1 0xA0 SHL SUB AND DUP5 PUSH1 0x1 PUSH1 0x1 PUSH1 0xA0 SHL SUB AND EQ DUP1 PUSH2 0x159E JUMPI POP PUSH1 0x1 PUSH1 0x1 PUSH1 0xA0 SHL SUB DUP1 DUP3 AND PUSH1 0x0 SWAP1 DUP2 MSTORE PUSH1 0x5 PUSH1 0x20 SWAP1 DUP2 MSTORE PUSH1 0x40 DUP1 DUP4 KECCAK256 SWAP4 DUP9 AND DUP4 MSTORE SWAP3 SWAP1 MSTORE KECCAK256 SLOAD PUSH1 0xFF AND JUMPDEST DUP1 PUSH2 0x11E0 JUMPI POP DUP4 PUSH1 0x1 PUSH1 0x1 PUSH1 0xA0 SHL SUB AND PUSH2 0x15B7 DUP5 PUSH2 0x5A5 JUMP JUMPDEST PUSH1 0x1 PUSH1 0x1 PUSH1 0xA0 SHL SUB AND EQ SWAP5 SWAP4 POP POP POP POP JUMP JUMPDEST DUP3 PUSH1 0x1 PUSH1 0x1 PUSH1 0xA0 SHL SUB AND PUSH2 0x15DC DUP3 PUSH2 0x978 JUMP JUMPDEST PUSH1 0x1 PUSH1 0x1 PUSH1 0xA0 SHL SUB AND EQ PUSH2 0x1602 JUMPI PUSH1 0x40 MLOAD PUSH3 0x461BCD PUSH1 0xE5 SHL DUP2 MSTORE PUSH1 0x4 ADD PUSH2 0x641 SWAP1 PUSH2 0x2346 JUMP JUMPDEST PUSH1 0x1 PUSH1 0x1 PUSH1 0xA0 SHL SUB DUP3 AND PUSH2 0x1664 JUMPI PUSH1 0x40 MLOAD PUSH3 0x461BCD PUSH1 0xE5 SHL DUP2 MSTORE PUSH1 0x20 PUSH1 0x4 DUP3 ADD MSTORE PUSH1 0x24 DUP1 DUP3 ADD MSTORE PUSH32 0x4552433732313A207472616E7366657220746F20746865207A65726F20616464 PUSH1 0x44 DUP3 ADD MSTORE PUSH4 0x72657373 PUSH1 0xE0 SHL PUSH1 0x64 DUP3 ADD MSTORE PUSH1 0x84 ADD PUSH2 0x641 JUMP JUMPDEST DUP3 PUSH1 0x1 PUSH1 0x1 PUSH1 0xA0 SHL SUB AND PUSH2 0x1677 DUP3 PUSH2 0x978 JUMP JUMPDEST PUSH1 0x1 PUSH1 0x1 PUSH1 0xA0 SHL SUB AND EQ PUSH2 0x169D JUMPI PUSH1 0x40 MLOAD PUSH3 0x461BCD PUSH1 0xE5 SHL DUP2 MSTORE PUSH1 0x4 ADD PUSH2 0x641 SWAP1 PUSH2 0x2346 JUMP JUMPDEST PUSH1 0x0 DUP2 DUP2 MSTORE PUSH1 0x4 PUSH1 0x20 SWAP1 DUP2 MSTORE PUSH1 0x40 DUP1 DUP4 KECCAK256 DUP1 SLOAD PUSH1 0x1 PUSH1 0x1 PUSH1 0xA0 SHL SUB NOT SWAP1 DUP2 AND SWAP1 SWAP2 SSTORE PUSH1 0x1 PUSH1 0x1 PUSH1 0xA0 SHL SUB DUP8 DUP2 AND DUP1 DUP7 MSTORE PUSH1 0x3 DUP6 MSTORE DUP4 DUP7 KECCAK256 DUP1 SLOAD PUSH1 0x0 NOT ADD SWAP1 SSTORE SWAP1 DUP8 AND DUP1 DUP7 MSTORE DUP4 DUP7 KECCAK256 DUP1 SLOAD PUSH1 0x1 ADD SWAP1 SSTORE DUP7 DUP7 MSTORE PUSH1 0x2 SWAP1 SWAP5 MSTORE DUP3 DUP6 KECCAK256 DUP1 SLOAD SWAP1 SWAP3 AND DUP5 OR SWAP1 SWAP2 SSTORE SWAP1 MLOAD DUP5 SWAP4 PUSH32 0xDDF252AD1BE2C89B69C2B068FC378DAA952BA7F163C4A11628F55A4DF523B3EF SWAP2 LOG4 POP POP POP JUMP JUMPDEST PUSH2 0xFA1 DUP3 DUP3 PUSH1 0x40 MLOAD DUP1 PUSH1 0x20 ADD PUSH1 0x40 MSTORE DUP1 PUSH1 0x0 DUP2 MSTORE POP PUSH2 0x198E JUMP JUMPDEST PUSH1 0x0 DUP3 DUP2 MSTORE PUSH1 0x2 PUSH1 0x20 MSTORE PUSH1 0x40 SWAP1 KECCAK256 SLOAD PUSH1 0x1 PUSH1 0x1 PUSH1 0xA0 SHL SUB AND PUSH2 0x17C2 JUMPI PUSH1 0x40 MLOAD PUSH3 0x461BCD PUSH1 0xE5 SHL DUP2 MSTORE PUSH1 0x20 PUSH1 0x4 DUP3 ADD MSTORE PUSH1 0x2E PUSH1 0x24 DUP3 ADD MSTORE PUSH32 0x45524337323155524953746F726167653A2055524920736574206F66206E6F6E PUSH1 0x44 DUP3 ADD MSTORE PUSH14 0x32BC34B9BA32B73A103A37B5B2B7 PUSH1 0x91 SHL PUSH1 0x64 DUP3 ADD MSTORE PUSH1 0x84 ADD PUSH2 0x641 JUMP JUMPDEST PUSH1 0x0 DUP3 DUP2 MSTORE PUSH1 0x6 PUSH1 0x20 SWAP1 DUP2 MSTORE PUSH1 0x40 SWAP1 SWAP2 KECCAK256 DUP3 MLOAD PUSH2 0x17E1 SWAP3 DUP5 ADD SWAP1 PUSH2 0x1E0A JUMP JUMPDEST POP PUSH1 0x40 MLOAD DUP3 DUP2 MSTORE PUSH32 0xF8E1A15ABA9398E019F0B49DF1A4FDE98EE17AE345CB5F6B5E2C27F5033E8CE7 SWAP1 PUSH1 0x20 ADD PUSH1 0x40 MLOAD DUP1 SWAP2 SUB SWAP1 LOG1 POP POP JUMP JUMPDEST DUP2 PUSH1 0x1 PUSH1 0x1 PUSH1 0xA0 SHL SUB AND DUP4 PUSH1 0x1 PUSH1 0x1 PUSH1 0xA0 SHL SUB AND EQ ISZERO PUSH2 0x187B JUMPI PUSH1 0x40 MLOAD PUSH3 0x461BCD PUSH1 0xE5 SHL DUP2 MSTORE PUSH1 0x20 PUSH1 0x4 DUP3 ADD MSTORE PUSH1 0x19 PUSH1 0x24 DUP3 ADD MSTORE PUSH32 0x4552433732313A20617070726F766520746F2063616C6C657200000000000000 PUSH1 0x44 DUP3 ADD MSTORE PUSH1 0x64 ADD PUSH2 0x641 JUMP JUMPDEST PUSH1 0x1 PUSH1 0x1 PUSH1 0xA0 SHL SUB DUP4 DUP2 AND PUSH1 0x0 DUP2 DUP2 MSTORE PUSH1 0x5 PUSH1 0x20 SWAP1 DUP2 MSTORE PUSH1 0x40 DUP1 DUP4 KECCAK256 SWAP5 DUP8 AND DUP1 DUP5 MSTORE SWAP5 DUP3 MSTORE SWAP2 DUP3 SWAP1 KECCAK256 DUP1 SLOAD PUSH1 0xFF NOT AND DUP7 ISZERO ISZERO SWAP1 DUP2 OR SWAP1 SWAP2 SSTORE SWAP2 MLOAD SWAP2 DUP3 MSTORE PUSH32 0x17307EAB39AB6107E8899845AD3D59BD9653F200F220920489CA2B5937696C31 SWAP2 ADD PUSH1 0x40 MLOAD DUP1 SWAP2 SUB SWAP1 LOG3 POP POP POP JUMP JUMPDEST PUSH2 0x18F3 DUP5 DUP5 DUP5 PUSH2 0x15C9 JUMP JUMPDEST PUSH2 0x18FF DUP5 DUP5 DUP5 DUP5 PUSH2 0x19C1 JUMP JUMPDEST PUSH2 0x1066 JUMPI PUSH1 0x40 MLOAD PUSH3 0x461BCD PUSH1 0xE5 SHL DUP2 MSTORE PUSH1 0x4 ADD PUSH2 0x641 SWAP1 PUSH2 0x22F4 JUMP JUMPDEST PUSH1 0x60 PUSH2 0x1926 DUP3 PUSH2 0x147B JUMP JUMPDEST PUSH1 0x0 PUSH2 0x193D PUSH1 0x40 DUP1 MLOAD PUSH1 0x20 DUP2 ADD SWAP1 SWAP2 MSTORE PUSH1 0x0 DUP2 MSTORE SWAP1 JUMP JUMPDEST SWAP1 POP PUSH1 0x0 DUP2 MLOAD GT PUSH2 0x195D JUMPI PUSH1 0x40 MLOAD DUP1 PUSH1 0x20 ADD PUSH1 0x40 MSTORE DUP1 PUSH1 0x0 DUP2 MSTORE POP PUSH2 0xCA5 JUMP JUMPDEST DUP1 PUSH2 0x1967 DUP5 PUSH2 0x1ACE JUMP JUMPDEST PUSH1 0x40 MLOAD PUSH1 0x20 ADD PUSH2 0x1978 SWAP3 SWAP2 SWAP1 PUSH2 0x21DA JUMP JUMPDEST PUSH1 0x40 MLOAD PUSH1 0x20 DUP2 DUP4 SUB SUB DUP2 MSTORE SWAP1 PUSH1 0x40 MSTORE SWAP4 SWAP3 POP POP POP JUMP JUMPDEST PUSH2 0x1998 DUP4 DUP4 PUSH2 0x1B79 JUMP JUMPDEST PUSH2 0x19A5 PUSH1 0x0 DUP5 DUP5 DUP5 PUSH2 0x19C1 JUMP JUMPDEST PUSH2 0x6E2 JUMPI PUSH1 0x40 MLOAD PUSH3 0x461BCD PUSH1 0xE5 SHL DUP2 MSTORE PUSH1 0x4 ADD PUSH2 0x641 SWAP1 PUSH2 0x22F4 JUMP JUMPDEST PUSH1 0x0 PUSH1 0x1 PUSH1 0x1 PUSH1 0xA0 SHL SUB DUP5 AND EXTCODESIZE ISZERO PUSH2 0x1AC3 JUMPI PUSH1 0x40 MLOAD PUSH4 0xA85BD01 PUSH1 0xE1 SHL DUP2 MSTORE PUSH1 0x1 PUSH1 0x1 PUSH1 0xA0 SHL SUB DUP6 AND SWAP1 PUSH4 0x150B7A02 SWAP1 PUSH2 0x1A05 SWAP1 CALLER SWAP1 DUP10 SWAP1 DUP9 SWAP1 DUP9 SWAP1 PUSH1 0x4 ADD PUSH2 0x2209 JUMP JUMPDEST PUSH1 0x20 PUSH1 0x40 MLOAD DUP1 DUP4 SUB DUP2 PUSH1 0x0 DUP8 DUP1 EXTCODESIZE ISZERO DUP1 ISZERO PUSH2 0x1A1F JUMPI PUSH1 0x0 DUP1 REVERT JUMPDEST POP GAS CALL SWAP3 POP POP POP DUP1 ISZERO PUSH2 0x1A4F JUMPI POP PUSH1 0x40 DUP1 MLOAD PUSH1 0x1F RETURNDATASIZE SWAP1 DUP2 ADD PUSH1 0x1F NOT AND DUP3 ADD SWAP1 SWAP3 MSTORE PUSH2 0x1A4C SWAP2 DUP2 ADD SWAP1 PUSH2 0x20CC JUMP JUMPDEST PUSH1 0x1 JUMPDEST PUSH2 0x1AA9 JUMPI RETURNDATASIZE DUP1 DUP1 ISZERO PUSH2 0x1A7D JUMPI PUSH1 0x40 MLOAD SWAP2 POP PUSH1 0x1F NOT PUSH1 0x3F RETURNDATASIZE ADD AND DUP3 ADD PUSH1 0x40 MSTORE RETURNDATASIZE DUP3 MSTORE RETURNDATASIZE PUSH1 0x0 PUSH1 0x20 DUP5 ADD RETURNDATACOPY PUSH2 0x1A82 JUMP JUMPDEST PUSH1 0x60 SWAP2 POP JUMPDEST POP DUP1 MLOAD PUSH2 0x1AA1 JUMPI PUSH1 0x40 MLOAD PUSH3 0x461BCD PUSH1 0xE5 SHL DUP2 MSTORE PUSH1 0x4 ADD PUSH2 0x641 SWAP1 PUSH2 0x22F4 JUMP JUMPDEST DUP1 MLOAD DUP2 PUSH1 0x20 ADD REVERT JUMPDEST PUSH1 0x1 PUSH1 0x1 PUSH1 0xE0 SHL SUB NOT AND PUSH4 0xA85BD01 PUSH1 0xE1 SHL EQ SWAP1 POP PUSH2 0x11E0 JUMP JUMPDEST POP PUSH1 0x1 SWAP5 SWAP4 POP POP POP POP JUMP JUMPDEST PUSH1 0x60 PUSH1 0x0 PUSH2 0x1ADB DUP4 PUSH2 0x1D04 JUMP JUMPDEST PUSH1 0x1 ADD SWAP1 POP PUSH1 0x0 DUP2 PUSH8 0xFFFFFFFFFFFFFFFF DUP2 GT ISZERO PUSH2 0x1B09 JUMPI PUSH4 0x4E487B71 PUSH1 0xE0 SHL PUSH1 0x0 MSTORE PUSH1 0x41 PUSH1 0x4 MSTORE PUSH1 0x24 PUSH1 0x0 REVERT JUMPDEST PUSH1 0x40 MLOAD SWAP1 DUP1 DUP3 MSTORE DUP1 PUSH1 0x1F ADD PUSH1 0x1F NOT AND PUSH1 0x20 ADD DUP3 ADD PUSH1 0x40 MSTORE DUP1 ISZERO PUSH2 0x1B33 JUMPI PUSH1 0x20 DUP3 ADD DUP2 DUP1 CALLDATASIZE DUP4 CALLDATACOPY ADD SWAP1 POP JUMPDEST POP SWAP1 POP DUP2 DUP2 ADD PUSH1 0x20 ADD JUMPDEST PUSH1 0x0 NOT ADD PUSH16 0x181899199A1A9B1B9C1CB0B131B232B3 PUSH1 0x81 SHL PUSH1 0xA DUP7 MOD BYTE DUP2 MSTORE8 PUSH1 0xA DUP6 DIV SWAP5 POP DUP5 PUSH2 0x1B6C JUMPI PUSH2 0x1B71 JUMP JUMPDEST PUSH2 0x1B3D JUMP JUMPDEST POP SWAP4 SWAP3 POP POP POP JUMP JUMPDEST PUSH1 0x1 PUSH1 0x1 PUSH1 0xA0 SHL SUB DUP3 AND PUSH2 0x1BCF JUMPI PUSH1 0x40 MLOAD PUSH3 0x461BCD PUSH1 0xE5 SHL DUP2 MSTORE PUSH1 0x20 PUSH1 0x4 DUP3 ADD DUP2 SWAP1 MSTORE PUSH1 0x24 DUP3 ADD MSTORE PUSH32 0x4552433732313A206D696E7420746F20746865207A65726F2061646472657373 PUSH1 0x44 DUP3 ADD MSTORE PUSH1 0x64 ADD PUSH2 0x641 JUMP JUMPDEST PUSH1 0x0 DUP2 DUP2 MSTORE PUSH1 0x2 PUSH1 0x20 MSTORE PUSH1 0x40 SWAP1 KECCAK256 SLOAD PUSH1 0x1 PUSH1 0x1 PUSH1 0xA0 SHL SUB AND ISZERO PUSH2 0x1C34 JUMPI PUSH1 0x40 MLOAD PUSH3 0x461BCD PUSH1 0xE5 SHL DUP2 MSTORE PUSH1 0x20 PUSH1 0x4 DUP3 ADD MSTORE PUSH1 0x1C PUSH1 0x24 DUP3 ADD MSTORE PUSH32 0x4552433732313A20746F6B656E20616C7265616479206D696E74656400000000 PUSH1 0x44 DUP3 ADD MSTORE PUSH1 0x64 ADD PUSH2 0x641 JUMP JUMPDEST PUSH1 0x0 DUP2 DUP2 MSTORE PUSH1 0x2 PUSH1 0x20 MSTORE PUSH1 0x40 SWAP1 KECCAK256 SLOAD PUSH1 0x1 PUSH1 0x1 PUSH1 0xA0 SHL SUB AND ISZERO PUSH2 0x1C99 JUMPI PUSH1 0x40 MLOAD PUSH3 0x461BCD PUSH1 0xE5 SHL DUP2 MSTORE PUSH1 0x20 PUSH1 0x4 DUP3 ADD MSTORE PUSH1 0x1C PUSH1 0x24 DUP3 ADD MSTORE PUSH32 0x4552433732313A20746F6B656E20616C7265616479206D696E74656400000000 PUSH1 0x44 DUP3 ADD MSTORE PUSH1 0x64 ADD PUSH2 0x641 JUMP JUMPDEST PUSH1 0x1 PUSH1 0x1 PUSH1 0xA0 SHL SUB DUP3 AND PUSH1 0x0 DUP2 DUP2 MSTORE PUSH1 0x3 PUSH1 0x20 SWAP1 DUP2 MSTORE PUSH1 0x40 DUP1 DUP4 KECCAK256 DUP1 SLOAD PUSH1 0x1 ADD SWAP1 SSTORE DUP5 DUP4 MSTORE PUSH1 0x2 SWAP1 SWAP2 MSTORE DUP1 DUP3 KECCAK256 DUP1 SLOAD PUSH1 0x1 PUSH1 0x1 PUSH1 0xA0 SHL SUB NOT AND DUP5 OR SWAP1 SSTORE MLOAD DUP4 SWAP3 SWAP2 SWAP1 PUSH32 0xDDF252AD1BE2C89B69C2B068FC378DAA952BA7F163C4A11628F55A4DF523B3EF SWAP1 DUP3 SWAP1 LOG4 POP POP JUMP JUMPDEST PUSH1 0x0 DUP1 PUSH19 0x184F03E93FF9F4DAA797ED6E38ED64BF6A1F01 PUSH1 0x40 SHL DUP4 LT PUSH2 0x1D43 JUMPI PUSH19 0x184F03E93FF9F4DAA797ED6E38ED64BF6A1F01 PUSH1 0x40 SHL DUP4 DIV SWAP3 POP PUSH1 0x40 ADD JUMPDEST PUSH14 0x4EE2D6D415B85ACEF8100000000 DUP4 LT PUSH2 0x1D6F JUMPI PUSH14 0x4EE2D6D415B85ACEF8100000000 DUP4 DIV SWAP3 POP PUSH1 0x20 ADD JUMPDEST PUSH7 0x2386F26FC10000 DUP4 LT PUSH2 0x1D8D JUMPI PUSH7 0x2386F26FC10000 DUP4 DIV SWAP3 POP PUSH1 0x10 ADD JUMPDEST PUSH4 0x5F5E100 DUP4 LT PUSH2 0x1DA5 JUMPI PUSH4 0x5F5E100 DUP4 DIV SWAP3 POP PUSH1 0x8 ADD JUMPDEST PUSH2 0x2710 DUP4 LT PUSH2 0x1DB9 JUMPI PUSH2 0x2710 DUP4 DIV SWAP3 POP PUSH1 0x4 ADD JUMPDEST PUSH1 0x64 DUP4 LT PUSH2 0x1DCB JUMPI PUSH1 0x64 DUP4 DIV SWAP3 POP PUSH1 0x2 ADD JUMPDEST PUSH1 0xA DUP4 LT PUSH2 0x50D JUMPI PUSH1 0x1 ADD SWAP3 SWAP2 POP POP JUMP JUMPDEST PUSH1 0x40 DUP1 MLOAD PUSH1 0xA0 DUP2 ADD DUP3 MSTORE PUSH1 0x0 DUP1 DUP3 MSTORE PUSH1 0x20 DUP3 ADD DUP2 SWAP1 MSTORE SWAP2 DUP2 ADD DUP3 SWAP1 MSTORE PUSH1 0x60 DUP2 ADD DUP3 SWAP1 MSTORE PUSH1 0x80 DUP2 ADD SWAP2 SWAP1 SWAP2 MSTORE SWAP1 JUMP JUMPDEST DUP3 DUP1 SLOAD PUSH2 0x1E16 SWAP1 PUSH2 0x23DD JUMP JUMPDEST SWAP1 PUSH1 0x0 MSTORE PUSH1 0x20 PUSH1 0x0 KECCAK256 SWAP1 PUSH1 0x1F ADD PUSH1 0x20 SWAP1 DIV DUP2 ADD SWAP3 DUP3 PUSH2 0x1E38 JUMPI PUSH1 0x0 DUP6 SSTORE PUSH2 0x1E7E JUMP JUMPDEST DUP3 PUSH1 0x1F LT PUSH2 0x1E51 JUMPI DUP1 MLOAD PUSH1 0xFF NOT AND DUP4 DUP1 ADD OR DUP6 SSTORE PUSH2 0x1E7E JUMP JUMPDEST DUP3 DUP1 ADD PUSH1 0x1 ADD DUP6 SSTORE DUP3 ISZERO PUSH2 0x1E7E JUMPI SWAP2 DUP3 ADD JUMPDEST DUP3 DUP2 GT ISZERO PUSH2 0x1E7E JUMPI DUP3 MLOAD DUP3 SSTORE SWAP2 PUSH1 0x20 ADD SWAP2 SWAP1 PUSH1 0x1 ADD SWAP1 PUSH2 0x1E63 JUMP JUMPDEST POP PUSH2 0x1E8A SWAP3 SWAP2 POP PUSH2 0x1E8E JUMP JUMPDEST POP SWAP1 JUMP JUMPDEST JUMPDEST DUP1 DUP3 GT ISZERO PUSH2 0x1E8A JUMPI PUSH1 0x0 DUP2 SSTORE PUSH1 0x1 ADD PUSH2 0x1E8F JUMP JUMPDEST PUSH1 0x0 PUSH8 0xFFFFFFFFFFFFFFFF DUP1 DUP5 GT ISZERO PUSH2 0x1EBE JUMPI PUSH2 0x1EBE PUSH2 0x2449 JUMP JUMPDEST PUSH1 0x40 MLOAD PUSH1 0x1F DUP6 ADD PUSH1 0x1F NOT SWAP1 DUP2 AND PUSH1 0x3F ADD AND DUP2 ADD SWAP1 DUP3 DUP3 GT DUP2 DUP4 LT OR ISZERO PUSH2 0x1EE6 JUMPI PUSH2 0x1EE6 PUSH2 0x2449 JUMP JUMPDEST DUP2 PUSH1 0x40 MSTORE DUP1 SWAP4 POP DUP6 DUP2 MSTORE DUP7 DUP7 DUP7 ADD GT ISZERO PUSH2 0x1EFF JUMPI PUSH1 0x0 DUP1 REVERT JUMPDEST DUP6 DUP6 PUSH1 0x20 DUP4 ADD CALLDATACOPY PUSH1 0x0 PUSH1 0x20 DUP8 DUP4 ADD ADD MSTORE POP POP POP SWAP4 SWAP3 POP POP POP JUMP JUMPDEST DUP1 CALLDATALOAD PUSH1 0x1 PUSH1 0x1 PUSH1 0xA0 SHL SUB DUP2 AND DUP2 EQ PUSH2 0x1F30 JUMPI PUSH1 0x0 DUP1 REVERT JUMPDEST SWAP2 SWAP1 POP JUMP JUMPDEST PUSH1 0x0 PUSH1 0x20 DUP3 DUP5 SUB SLT ISZERO PUSH2 0x1F46 JUMPI DUP1 DUP2 REVERT JUMPDEST PUSH2 0xCA5 DUP3 PUSH2 0x1F19 JUMP JUMPDEST PUSH1 0x0 DUP1 PUSH1 0x40 DUP4 DUP6 SUB SLT ISZERO PUSH2 0x1F61 JUMPI DUP1 DUP2 REVERT JUMPDEST PUSH2 0x1F6A DUP4 PUSH2 0x1F19 JUMP JUMPDEST SWAP2 POP PUSH2 0x1F78 PUSH1 0x20 DUP5 ADD PUSH2 0x1F19 JUMP JUMPDEST SWAP1 POP SWAP3 POP SWAP3 SWAP1 POP JUMP JUMPDEST PUSH1 0x0 DUP1 PUSH1 0x0 PUSH1 0x60 DUP5 DUP7 SUB SLT ISZERO PUSH2 0x1F95 JUMPI DUP1 DUP2 REVERT JUMPDEST PUSH2 0x1F9E DUP5 PUSH2 0x1F19 JUMP JUMPDEST SWAP3 POP PUSH2 0x1FAC PUSH1 0x20 DUP6 ADD PUSH2 0x1F19 JUMP JUMPDEST SWAP2 POP PUSH1 0x40 DUP5 ADD CALLDATALOAD SWAP1 POP SWAP3 POP SWAP3 POP SWAP3 JUMP JUMPDEST PUSH1 0x0 DUP1 PUSH1 0x0 DUP1 PUSH1 0x80 DUP6 DUP8 SUB SLT ISZERO PUSH2 0x1FD1 JUMPI DUP1 DUP2 REVERT JUMPDEST PUSH2 0x1FDA DUP6 PUSH2 0x1F19 JUMP JUMPDEST SWAP4 POP PUSH2 0x1FE8 PUSH1 0x20 DUP7 ADD PUSH2 0x1F19 JUMP JUMPDEST SWAP3 POP PUSH1 0x40 DUP6 ADD CALLDATALOAD SWAP2 POP PUSH1 0x60 DUP6 ADD CALLDATALOAD PUSH8 0xFFFFFFFFFFFFFFFF DUP2 GT ISZERO PUSH2 0x200A JUMPI DUP2 DUP3 REVERT JUMPDEST DUP6 ADD PUSH1 0x1F DUP2 ADD DUP8 SGT PUSH2 0x201A JUMPI DUP2 DUP3 REVERT JUMPDEST PUSH2 0x2029 DUP8 DUP3 CALLDATALOAD PUSH1 0x20 DUP5 ADD PUSH2 0x1EA3 JUMP JUMPDEST SWAP2 POP POP SWAP3 SWAP6 SWAP2 SWAP5 POP SWAP3 POP JUMP JUMPDEST PUSH1 0x0 DUP1 PUSH1 0x40 DUP4 DUP6 SUB SLT ISZERO PUSH2 0x2047 JUMPI DUP2 DUP3 REVERT JUMPDEST PUSH2 0x2050 DUP4 PUSH2 0x1F19 JUMP JUMPDEST SWAP2 POP PUSH1 0x20 DUP4 ADD CALLDATALOAD PUSH2 0x2060 DUP2 PUSH2 0x245F JUMP JUMPDEST DUP1 SWAP2 POP POP SWAP3 POP SWAP3 SWAP1 POP JUMP JUMPDEST PUSH1 0x0 DUP1 PUSH1 0x40 DUP4 DUP6 SUB SLT ISZERO PUSH2 0x207D JUMPI DUP2 DUP3 REVERT JUMPDEST PUSH2 0x2086 DUP4 PUSH2 0x1F19 JUMP JUMPDEST SWAP5 PUSH1 0x20 SWAP4 SWAP1 SWAP4 ADD CALLDATALOAD SWAP4 POP POP POP JUMP JUMPDEST PUSH1 0x0 PUSH1 0x20 DUP3 DUP5 SUB SLT ISZERO PUSH2 0x20A5 JUMPI DUP1 DUP2 REVERT JUMPDEST DUP2 MLOAD PUSH2 0xCA5 DUP2 PUSH2 0x245F JUMP JUMPDEST PUSH1 0x0 PUSH1 0x20 DUP3 DUP5 SUB SLT ISZERO PUSH2 0x20C1 JUMPI DUP1 DUP2 REVERT JUMPDEST DUP2 CALLDATALOAD PUSH2 0xCA5 DUP2 PUSH2 0x246D JUMP JUMPDEST PUSH1 0x0 PUSH1 0x20 DUP3 DUP5 SUB SLT ISZERO PUSH2 0x20DD JUMPI DUP1 DUP2 REVERT JUMPDEST DUP2 MLOAD PUSH2 0xCA5 DUP2 PUSH2 0x246D JUMP JUMPDEST PUSH1 0x0 DUP1 PUSH1 0x40 DUP4 DUP6 SUB SLT ISZERO PUSH2 0x20FA JUMPI DUP2 DUP3 REVERT JUMPDEST DUP3 CALLDATALOAD PUSH8 0xFFFFFFFFFFFFFFFF DUP2 GT ISZERO PUSH2 0x2110 JUMPI DUP3 DUP4 REVERT JUMPDEST DUP4 ADD PUSH1 0x1F DUP2 ADD DUP6 SGT PUSH2 0x2120 JUMPI DUP3 DUP4 REVERT JUMPDEST PUSH2 0x212F DUP6 DUP3 CALLDATALOAD PUSH1 0x20 DUP5 ADD PUSH2 0x1EA3 JUMP JUMPDEST SWAP6 PUSH1 0x20 SWAP5 SWAP1 SWAP5 ADD CALLDATALOAD SWAP5 POP POP POP POP JUMP JUMPDEST PUSH1 0x0 PUSH1 0x20 DUP3 DUP5 SUB SLT ISZERO PUSH2 0x214F JUMPI DUP1 DUP2 REVERT JUMPDEST POP CALLDATALOAD SWAP2 SWAP1 POP JUMP JUMPDEST PUSH1 0x0 PUSH1 0x20 DUP3 DUP5 SUB SLT ISZERO PUSH2 0x2167 JUMPI DUP1 DUP2 REVERT JUMPDEST POP MLOAD SWAP2 SWAP1 POP JUMP JUMPDEST PUSH1 0x0 DUP2 MLOAD DUP1 DUP5 MSTORE PUSH2 0x2186 DUP2 PUSH1 0x20 DUP7 ADD PUSH1 0x20 DUP7 ADD PUSH2 0x23B1 JUMP JUMPDEST PUSH1 0x1F ADD PUSH1 0x1F NOT AND SWAP3 SWAP1 SWAP3 ADD PUSH1 0x20 ADD SWAP3 SWAP2 POP POP JUMP JUMPDEST DUP1 MLOAD DUP3 MSTORE PUSH1 0x20 DUP1 DUP3 ADD MLOAD PUSH1 0x1 PUSH1 0x1 PUSH1 0xA0 SHL SUB SWAP1 DUP2 AND SWAP2 DUP5 ADD SWAP2 SWAP1 SWAP2 MSTORE PUSH1 0x40 DUP1 DUP4 ADD MLOAD SWAP1 SWAP2 AND SWAP1 DUP4 ADD MSTORE PUSH1 0x60 DUP1 DUP3 ADD MLOAD SWAP1 DUP4 ADD MSTORE PUSH1 0x80 SWAP1 DUP2 ADD MLOAD ISZERO ISZERO SWAP2 ADD MSTORE JUMP JUMPDEST PUSH1 0x0 DUP4 MLOAD PUSH2 0x21EC DUP2 DUP5 PUSH1 0x20 DUP9 ADD PUSH2 0x23B1 JUMP JUMPDEST DUP4 MLOAD SWAP1 DUP4 ADD SWAP1 PUSH2 0x2200 DUP2 DUP4 PUSH1 0x20 DUP9 ADD PUSH2 0x23B1 JUMP JUMPDEST ADD SWAP5 SWAP4 POP POP POP POP JUMP JUMPDEST PUSH1 0x1 PUSH1 0x1 PUSH1 0xA0 SHL SUB DUP6 DUP2 AND DUP3 MSTORE DUP5 AND PUSH1 0x20 DUP3 ADD MSTORE PUSH1 0x40 DUP2 ADD DUP4 SWAP1 MSTORE PUSH1 0x80 PUSH1 0x60 DUP3 ADD DUP2 SWAP1 MSTORE PUSH1 0x0 SWAP1 PUSH2 0x223C SWAP1 DUP4 ADD DUP5 PUSH2 0x216E JUMP JUMPDEST SWAP7 SWAP6 POP POP POP POP POP POP JUMP JUMPDEST PUSH1 0x20 DUP1 DUP3 MSTORE DUP3 MLOAD DUP3 DUP3 ADD DUP2 SWAP1 MSTORE PUSH1 0x0 SWAP2 SWAP1 DUP5 DUP3 ADD SWAP1 PUSH1 0x40 DUP6 ADD SWAP1 DUP5 JUMPDEST DUP2 DUP2 LT ISZERO PUSH2 0x2288 JUMPI PUSH2 0x2275 DUP4 DUP6 MLOAD PUSH2 0x219A JUMP JUMPDEST SWAP3 DUP5 ADD SWAP3 PUSH1 0xA0 SWAP3 SWAP1 SWAP3 ADD SWAP2 PUSH1 0x1 ADD PUSH2 0x2262 JUMP JUMPDEST POP SWAP1 SWAP7 SWAP6 POP POP POP POP POP POP JUMP JUMPDEST PUSH1 0x20 DUP2 MSTORE PUSH1 0x0 PUSH2 0xCA5 PUSH1 0x20 DUP4 ADD DUP5 PUSH2 0x216E JUMP JUMPDEST PUSH1 0x20 DUP1 DUP3 MSTORE PUSH1 0x2D SWAP1 DUP3 ADD MSTORE PUSH32 0x4552433732313A2063616C6C6572206973206E6F7420746F6B656E206F776E65 PUSH1 0x40 DUP3 ADD MSTORE PUSH13 0x1C881BDC88185C1C1C9BDD9959 PUSH1 0x9A SHL PUSH1 0x60 DUP3 ADD MSTORE PUSH1 0x80 ADD SWAP1 JUMP JUMPDEST PUSH1 0x20 DUP1 DUP3 MSTORE PUSH1 0x32 SWAP1 DUP3 ADD MSTORE PUSH32 0x4552433732313A207472616E7366657220746F206E6F6E204552433732315265 PUSH1 0x40 DUP3 ADD MSTORE PUSH18 0x31B2B4BB32B91034B6B83632B6B2B73A32B9 PUSH1 0x71 SHL PUSH1 0x60 DUP3 ADD MSTORE PUSH1 0x80 ADD SWAP1 JUMP JUMPDEST PUSH1 0x20 DUP1 DUP3 MSTORE PUSH1 0x25 SWAP1 DUP3 ADD MSTORE PUSH32 0x4552433732313A207472616E736665722066726F6D20696E636F727265637420 PUSH1 0x40 DUP3 ADD MSTORE PUSH5 0x37BBB732B9 PUSH1 0xD9 SHL PUSH1 0x60 DUP3 ADD MSTORE PUSH1 0x80 ADD SWAP1 JUMP JUMPDEST PUSH1 0xA0 DUP2 ADD PUSH2 0x50D DUP3 DUP5 PUSH2 0x219A JUMP JUMPDEST PUSH1 0x0 DUP3 NOT DUP3 GT ISZERO PUSH2 0x23AC JUMPI PUSH2 0x23AC PUSH2 0x2433 JUMP JUMPDEST POP ADD SWAP1 JUMP JUMPDEST PUSH1 0x0 JUMPDEST DUP4 DUP2 LT ISZERO PUSH2 0x23CC JUMPI DUP2 DUP2 ADD MLOAD DUP4 DUP3 ADD MSTORE PUSH1 0x20 ADD PUSH2 0x23B4 JUMP JUMPDEST DUP4 DUP2 GT ISZERO PUSH2 0x1066 JUMPI POP POP PUSH1 0x0 SWAP2 ADD MSTORE JUMP JUMPDEST PUSH1 0x1 DUP2 DUP2 SHR SWAP1 DUP3 AND DUP1 PUSH2 0x23F1 JUMPI PUSH1 0x7F DUP3 AND SWAP2 POP JUMPDEST PUSH1 0x20 DUP3 LT DUP2 EQ ISZERO PUSH2 0x2412 JUMPI PUSH4 0x4E487B71 PUSH1 0xE0 SHL PUSH1 0x0 MSTORE PUSH1 0x22 PUSH1 0x4 MSTORE PUSH1 0x24 PUSH1 0x0 REVERT JUMPDEST POP SWAP2 SWAP1 POP JUMP JUMPDEST PUSH1 0x0 PUSH1 0x0 NOT DUP3 EQ ISZERO PUSH2 0x242C JUMPI PUSH2 0x242C PUSH2 0x2433 JUMP JUMPDEST POP PUSH1 0x1 ADD SWAP1 JUMP JUMPDEST PUSH4 0x4E487B71 PUSH1 0xE0 SHL PUSH1 0x0 MSTORE PUSH1 0x11 PUSH1 0x4 MSTORE PUSH1 0x24 PUSH1 0x0 REVERT JUMPDEST PUSH4 0x4E487B71 PUSH1 0xE0 SHL PUSH1 0x0 MSTORE PUSH1 0x41 PUSH1 0x4 MSTORE PUSH1 0x24 PUSH1 0x0 REVERT JUMPDEST DUP1 ISZERO ISZERO DUP2 EQ PUSH2 0x14DA JUMPI PUSH1 0x0 DUP1 REVERT JUMPDEST PUSH1 0x1 PUSH1 0x1 PUSH1 0xE0 SHL SUB NOT DUP2 AND DUP2 EQ PUSH2 0x14DA JUMPI PUSH1 0x0 DUP1 REVERT INVALID LOG2 PUSH5 0x6970667358 0x22 SLT KECCAK256 0xDC 0x4C 0x2F 0xBA 0xEC PUSH5 0x198F58B2AE PUSH27 0x537F268E9D597887F0E4AFC1A9BFB2FB8005AB4764736F6C634300 ADDMOD DIV STOP CALLER "},"methodIdentifiers":{"approve(address,uint256)":"095ea7b3","balanceOf(address)":"70a08231","coinCraftToken()":"aba7878b","createListedToken(string,uint256)":"6f818dfa","createToken(string,uint256)":"72b3b620","executeSale(uint256)":"9b1225c4","getAllNFTs()":"e0391b09","getApproved(uint256)":"081812fc","getCurrentToken()":"ef2d1746","getLatestIdToListedToken()":"d1a88ae5","getListPrice()":"68f1945f","getListedTokenForId(uint256)":"8e264590","getMyNFTs()":"629cb2e4","isApprovedForAll(address,address)":"e985e9c5","name()":"06fdde03","ownerOf(uint256)":"6352211e","safeTransferFrom(address,address,uint256)":"42842e0e","safeTransferFrom(address,address,uint256,bytes)":"b88d4fde","setApprovalForAll(address,bool)":"a22cb465","setCoinCraftTokenAddress(address)":"a70e084f","setCoinCraftTokenContract(address)":"d7eb5be4","supportsInterface(bytes4)":"01ffc9a7","symbol()":"95d89b41","tokenURI(uint256)":"c87b56dd","transferFrom(address,address,uint256)":"23b872dd","updateListPrice(uint256)":"c322579c"}}}}}