{
  "_format": "hh-sol-artifact-1",
  "contractName": "NFTMarketplace",
  "sourceName": "contracts/NFTMarketplace.sol",
  "abi": [
    {
      "inputs": [
        {
          "internalType": "address",
          "name": "_customToken",
          "type": "address"
        }
      ],
      "stateMutability": "nonpayable",
      "type": "constructor"
    },
    {
      "anonymous": false,
      "inputs": [
        {
          "indexed": true,
          "internalType": "address",
          "name": "owner",
          "type": "address"
        },
        {
          "indexed": true,
          "internalType": "address",
          "name": "approved",
          "type": "address"
        },
        {
          "indexed": true,
          "internalType": "uint256",
          "name": "tokenId",
          "type": "uint256"
        }
      ],
      "name": "Approval",
      "type": "event"
    },
    {
      "anonymous": false,
      "inputs": [
        {
          "indexed": true,
          "internalType": "address",
          "name": "owner",
          "type": "address"
        },
        {
          "indexed": true,
          "internalType": "address",
          "name": "operator",
          "type": "address"
        },
        {
          "indexed": false,
          "internalType": "bool",
          "name": "approved",
          "type": "bool"
        }
      ],
      "name": "ApprovalForAll",
      "type": "event"
    },
    {
      "anonymous": false,
      "inputs": [
        {
          "indexed": false,
          "internalType": "uint256",
          "name": "_fromTokenId",
          "type": "uint256"
        },
        {
          "indexed": false,
          "internalType": "uint256",
          "name": "_toTokenId",
          "type": "uint256"
        }
      ],
      "name": "BatchMetadataUpdate",
      "type": "event"
    },
    {
      "anonymous": false,
      "inputs": [
        {
          "indexed": false,
          "internalType": "uint256",
          "name": "_tokenId",
          "type": "uint256"
        }
      ],
      "name": "MetadataUpdate",
      "type": "event"
    },
    {
      "anonymous": false,
      "inputs": [
        {
          "indexed": true,
          "internalType": "address",
          "name": "previousOwner",
          "type": "address"
        },
        {
          "indexed": true,
          "internalType": "address",
          "name": "newOwner",
          "type": "address"
        }
      ],
      "name": "OwnershipTransferred",
      "type": "event"
    },
    {
      "anonymous": false,
      "inputs": [
        {
          "indexed": true,
          "internalType": "uint256",
          "name": "tokenId",
          "type": "uint256"
        },
        {
          "indexed": false,
          "internalType": "address",
          "name": "owner",
          "type": "address"
        },
        {
          "indexed": false,
          "internalType": "address",
          "name": "seller",
          "type": "address"
        },
        {
          "indexed": false,
          "internalType": "uint256",
          "name": "price",
          "type": "uint256"
        },
        {
          "indexed": false,
          "internalType": "bool",
          "name": "currentlyListed",
          "type": "bool"
        }
      ],
      "name": "TokenListedSuccess",
      "type": "event"
    },
    {
      "anonymous": false,
      "inputs": [
        {
          "indexed": true,
          "internalType": "address",
          "name": "from",
          "type": "address"
        },
        {
          "indexed": true,
          "internalType": "address",
          "name": "to",
          "type": "address"
        },
        {
          "indexed": true,
          "internalType": "uint256",
          "name": "tokenId",
          "type": "uint256"
        }
      ],
      "name": "Transfer",
      "type": "event"
    },
    {
      "inputs": [
        {
          "internalType": "address",
          "name": "to",
          "type": "address"
        },
        {
          "internalType": "uint256",
          "name": "tokenId",
          "type": "uint256"
        }
      ],
      "name": "approve",
      "outputs": [],
      "stateMutability": "nonpayable",
      "type": "function"
    },
    {
      "inputs": [
        {
          "internalType": "address",
          "name": "owner",
          "type": "address"
        }
      ],
      "name": "balanceOf",
      "outputs": [
        {
          "internalType": "uint256",
          "name": "",
          "type": "uint256"
        }
      ],
      "stateMutability": "view",
      "type": "function"
    },
    {
      "inputs": [],
      "name": "collectBalance",
      "outputs": [],
      "stateMutability": "nonpayable",
      "type": "function"
    },
    {
      "inputs": [
        {
          "internalType": "string",
          "name": "tokenURI",
          "type": "string"
        },
        {
          "internalType": "uint256",
          "name": "price",
          "type": "uint256"
        }
      ],
      "name": "createToken",
      "outputs": [
        {
          "internalType": "uint256",
          "name": "",
          "type": "uint256"
        }
      ],
      "stateMutability": "nonpayable",
      "type": "function"
    },
    {
      "inputs": [],
      "name": "customToken",
      "outputs": [
        {
          "internalType": "address",
          "name": "",
          "type": "address"
        }
      ],
      "stateMutability": "view",
      "type": "function"
    },
    {
      "inputs": [
        {
          "internalType": "uint256",
          "name": "tokenId",
          "type": "uint256"
        }
      ],
      "name": "executeSale",
      "outputs": [],
      "stateMutability": "nonpayable",
      "type": "function"
    },
    {
      "inputs": [],
      "name": "getAllNFTs",
      "outputs": [
        {
          "components": [
            {
              "internalType": "uint256",
              "name": "tokenId",
              "type": "uint256"
            },
            {
              "internalType": "address",
              "name": "owner",
              "type": "address"
            },
            {
              "internalType": "address",
              "name": "seller",
              "type": "address"
            },
            {
              "internalType": "uint256",
              "name": "price",
              "type": "uint256"
            },
            {
              "internalType": "bool",
              "name": "exists",
              "type": "bool"
            },
            {
              "internalType": "bool",
              "name": "currentlyListed",
              "type": "bool"
            }
          ],
          "internalType": "struct NFTMarketplace.ListedToken[]",
          "name": "",
          "type": "tuple[]"
        }
      ],
      "stateMutability": "view",
      "type": "function"
    },
    {
      "inputs": [
        {
          "internalType": "uint256",
          "name": "tokenId",
          "type": "uint256"
        }
      ],
      "name": "getApproved",
      "outputs": [
        {
          "internalType": "address",
          "name": "",
          "type": "address"
        }
      ],
      "stateMutability": "view",
      "type": "function"
    },
    {
      "inputs": [],
      "name": "getCurrentToken",
      "outputs": [
        {
          "internalType": "uint256",
          "name": "",
          "type": "uint256"
        }
      ],
      "stateMutability": "view",
      "type": "function"
    },
    {
      "inputs": [],
      "name": "getLatestIdToListedToken",
      "outputs": [
        {
          "components": [
            {
              "internalType": "uint256",
              "name": "tokenId",
              "type": "uint256"
            },
            {
              "internalType": "address",
              "name": "owner",
              "type": "address"
            },
            {
              "internalType": "address",
              "name": "seller",
              "type": "address"
            },
            {
              "internalType": "uint256",
              "name": "price",
              "type": "uint256"
            },
            {
              "internalType": "bool",
              "name": "exists",
              "type": "bool"
            },
            {
              "internalType": "bool",
              "name": "currentlyListed",
              "type": "bool"
            }
          ],
          "internalType": "struct NFTMarketplace.ListedToken",
          "name": "",
          "type": "tuple"
        }
      ],
      "stateMutability": "view",
      "type": "function"
    },
    {
      "inputs": [],
      "name": "getListPrice",
      "outputs": [
        {
          "internalType": "uint256",
          "name": "",
          "type": "uint256"
        }
      ],
      "stateMutability": "view",
      "type": "function"
    },
    {
      "inputs": [
        {
          "internalType": "uint256",
          "name": "tokenId",
          "type": "uint256"
        }
      ],
      "name": "getListedTokenForId",
      "outputs": [
        {
          "components": [
            {
              "internalType": "uint256",
              "name": "tokenId",
              "type": "uint256"
            },
            {
              "internalType": "address",
              "name": "owner",
              "type": "address"
            },
            {
              "internalType": "address",
              "name": "seller",
              "type": "address"
            },
            {
              "internalType": "uint256",
              "name": "price",
              "type": "uint256"
            },
            {
              "internalType": "bool",
              "name": "exists",
              "type": "bool"
            },
            {
              "internalType": "bool",
              "name": "currentlyListed",
              "type": "bool"
            }
          ],
          "internalType": "struct NFTMarketplace.ListedToken",
          "name": "",
          "type": "tuple"
        }
      ],
      "stateMutability": "view",
      "type": "function"
    },
    {
      "inputs": [],
      "name": "getMyNFTs",
      "outputs": [
        {
          "components": [
            {
              "internalType": "uint256",
              "name": "tokenId",
              "type": "uint256"
            },
            {
              "internalType": "address",
              "name": "owner",
              "type": "address"
            },
            {
              "internalType": "address",
              "name": "seller",
              "type": "address"
            },
            {
              "internalType": "uint256",
              "name": "price",
              "type": "uint256"
            },
            {
              "internalType": "bool",
              "name": "exists",
              "type": "bool"
            },
            {
              "internalType": "bool",
              "name": "currentlyListed",
              "type": "bool"
            }
          ],
          "internalType": "struct NFTMarketplace.ListedToken[]",
          "name": "",
          "type": "tuple[]"
        }
      ],
      "stateMutability": "view",
      "type": "function"
    },
    {
      "inputs": [
        {
          "internalType": "address",
          "name": "owner",
          "type": "address"
        },
        {
          "internalType": "address",
          "name": "operator",
          "type": "address"
        }
      ],
      "name": "isApprovedForAll",
      "outputs": [
        {
          "internalType": "bool",
          "name": "",
          "type": "bool"
        }
      ],
      "stateMutability": "view",
      "type": "function"
    },
    {
      "inputs": [],
      "name": "name",
      "outputs": [
        {
          "internalType": "string",
          "name": "",
          "type": "string"
        }
      ],
      "stateMutability": "view",
      "type": "function"
    },
    {
      "inputs": [],
      "name": "owner",
      "outputs": [
        {
          "internalType": "address",
          "name": "",
          "type": "address"
        }
      ],
      "stateMutability": "view",
      "type": "function"
    },
    {
      "inputs": [
        {
          "internalType": "uint256",
          "name": "tokenId",
          "type": "uint256"
        }
      ],
      "name": "ownerOf",
      "outputs": [
        {
          "internalType": "address",
          "name": "",
          "type": "address"
        }
      ],
      "stateMutability": "view",
      "type": "function"
    },
    {
      "inputs": [],
      "name": "renounceOwnership",
      "outputs": [],
      "stateMutability": "nonpayable",
      "type": "function"
    },
    {
      "inputs": [
        {
          "internalType": "uint256",
          "name": "tokenId",
          "type": "uint256"
        },
        {
          "internalType": "uint256",
          "name": "price",
          "type": "uint256"
        }
      ],
      "name": "resellToken",
      "outputs": [],
      "stateMutability": "nonpayable",
      "type": "function"
    },
    {
      "inputs": [
        {
          "internalType": "address",
          "name": "from",
          "type": "address"
        },
        {
          "internalType": "address",
          "name": "to",
          "type": "address"
        },
        {
          "internalType": "uint256",
          "name": "tokenId",
          "type": "uint256"
        }
      ],
      "name": "safeTransferFrom",
      "outputs": [],
      "stateMutability": "nonpayable",
      "type": "function"
    },
    {
      "inputs": [
        {
          "internalType": "address",
          "name": "from",
          "type": "address"
        },
        {
          "internalType": "address",
          "name": "to",
          "type": "address"
        },
        {
          "internalType": "uint256",
          "name": "tokenId",
          "type": "uint256"
        },
        {
          "internalType": "bytes",
          "name": "data",
          "type": "bytes"
        }
      ],
      "name": "safeTransferFrom",
      "outputs": [],
      "stateMutability": "nonpayable",
      "type": "function"
    },
    {
      "inputs": [
        {
          "internalType": "address",
          "name": "operator",
          "type": "address"
        },
        {
          "internalType": "bool",
          "name": "approved",
          "type": "bool"
        }
      ],
      "name": "setApprovalForAll",
      "outputs": [],
      "stateMutability": "nonpayable",
      "type": "function"
    },
    {
      "inputs": [
        {
          "internalType": "bytes4",
          "name": "interfaceId",
          "type": "bytes4"
        }
      ],
      "name": "supportsInterface",
      "outputs": [
        {
          "internalType": "bool",
          "name": "",
          "type": "bool"
        }
      ],
      "stateMutability": "view",
      "type": "function"
    },
    {
      "inputs": [],
      "name": "symbol",
      "outputs": [
        {
          "internalType": "string",
          "name": "",
          "type": "string"
        }
      ],
      "stateMutability": "view",
      "type": "function"
    },
    {
      "inputs": [
        {
          "internalType": "uint256",
          "name": "tokenId",
          "type": "uint256"
        }
      ],
      "name": "tokenURI",
      "outputs": [
        {
          "internalType": "string",
          "name": "",
          "type": "string"
        }
      ],
      "stateMutability": "view",
      "type": "function"
    },
    {
      "inputs": [
        {
          "internalType": "address",
          "name": "from",
          "type": "address"
        },
        {
          "internalType": "address",
          "name": "to",
          "type": "address"
        },
        {
          "internalType": "uint256",
          "name": "tokenId",
          "type": "uint256"
        }
      ],
      "name": "transferFrom",
      "outputs": [],
      "stateMutability": "nonpayable",
      "type": "function"
    },
    {
      "inputs": [
        {
          "internalType": "address",
          "name": "newOwner",
          "type": "address"
        }
      ],
      "name": "transferOwnership",
      "outputs": [],
      "stateMutability": "nonpayable",
      "type": "function"
    },
    {
      "inputs": [
        {
          "internalType": "uint256",
          "name": "tokenId",
          "type": "uint256"
        }
      ],
      "name": "unlistToken",
      "outputs": [],
      "stateMutability": "nonpayable",
      "type": "function"
    },
    {
      "inputs": [
        {
          "internalType": "uint256",
          "name": "_listPrice",
          "type": "uint256"
        }
      ],
      "name": "updateListPrice",
      "outputs": [],
      "stateMutability": "nonpayable",
      "type": "function"
    }
  ],
  "bytecode": "0x60a0604052678ac7230489e80000600b553480156200001d57600080fd5b50604051620055ef380380620055ef833981810160405281019062000043919062000270565b6040518060400160405280600e81526020017f4e46544d61726b6574706c6163650000000000000000000000000000000000008152506040518060400160405280600481526020017f4e46544d000000000000000000000000000000000000000000000000000000008152508160009081620000c091906200051c565b508060019081620000d291906200051c565b505050620000f5620000e96200013860201b60201c565b6200014060201b60201c565b8073ffffffffffffffffffffffffffffffffffffffff1660808173ffffffffffffffffffffffffffffffffffffffff16815250506000600a819055505062000603565b600033905090565b6000600760009054906101000a900473ffffffffffffffffffffffffffffffffffffffff16905081600760006101000a81548173ffffffffffffffffffffffffffffffffffffffff021916908373ffffffffffffffffffffffffffffffffffffffff1602179055508173ffffffffffffffffffffffffffffffffffffffff168173ffffffffffffffffffffffffffffffffffffffff167f8be0079c531659141344cd1fd0a4f28419497f9722a3daafe3b4186f6b6457e060405160405180910390a35050565b600080fd5b600073ffffffffffffffffffffffffffffffffffffffff82169050919050565b600062000238826200020b565b9050919050565b6200024a816200022b565b81146200025657600080fd5b50565b6000815190506200026a816200023f565b92915050565b60006020828403121562000289576200028862000206565b5b6000620002998482850162000259565b91505092915050565b600081519050919050565b7f4e487b7100000000000000000000000000000000000000000000000000000000600052604160045260246000fd5b7f4e487b7100000000000000000000000000000000000000000000000000000000600052602260045260246000fd5b600060028204905060018216806200032457607f821691505b6020821081036200033a5762000339620002dc565b5b50919050565b60008190508160005260206000209050919050565b60006020601f8301049050919050565b600082821b905092915050565b600060088302620003a47fffffffffffffffffffffffffffffffffffffffffffffffffffffffffffffffff8262000365565b620003b0868362000365565b95508019841693508086168417925050509392505050565b6000819050919050565b6000819050919050565b6000620003fd620003f7620003f184620003c8565b620003d2565b620003c8565b9050919050565b6000819050919050565b6200041983620003dc565b62000431620004288262000404565b84845462000372565b825550505050565b600090565b6200044862000439565b620004558184846200040e565b505050565b5b818110156200047d57620004716000826200043e565b6001810190506200045b565b5050565b601f821115620004cc57620004968162000340565b620004a18462000355565b81016020851015620004b1578190505b620004c9620004c08562000355565b8301826200045a565b50505b505050565b600082821c905092915050565b6000620004f160001984600802620004d1565b1980831691505092915050565b60006200050c8383620004de565b9150826002028217905092915050565b6200052782620002a2565b67ffffffffffffffff811115620005435762000542620002ad565b5b6200054f82546200030b565b6200055c82828562000481565b600060209050601f8311600181146200059457600084156200057f578287015190505b6200058b8582620004fe565b865550620005fb565b601f198416620005a48662000340565b60005b82811015620005ce57848901518255600182019150602085019450602081019050620005a7565b86831015620005ee5784890151620005ea601f891682620004de565b8355505b6001600288020188555050505b505050505050565b608051614f8a6200066560003960008181610df601528181610e220152818161116d015281816112490152818161132601528181611be301528181611cc101528181611d9e01528181612913015281816129f10152612ace0152614f8a6000f3fe608060405234801561001057600080fd5b50600436106101cf5760003560e01c80638da5cb5b11610104578063c322579c116100a2578063e219fc7511610071578063e219fc7514610508578063e985e9c514610524578063ef2d174614610554578063f2fde38b14610572576101cf565b8063c322579c14610480578063c87b56dd1461049c578063d1a88ae5146104cc578063e0391b09146104ea576101cf565b80639b1225c4116100de5780639b1225c414610410578063a22cb4651461042c578063ad3a358c14610448578063b88d4fde14610464576101cf565b80638da5cb5b146103a45780638e264590146103c257806395d89b41146103f2576101cf565b80636352211e11610171578063715018a61161014b578063715018a61461034257806372b3b6201461034c578063899e31061461037c5780638cf4dbfb1461039a576101cf565b80636352211e146102c457806368f1945f146102f457806370a0823114610312576101cf565b8063095ea7b3116101ad578063095ea7b31461025257806323b872dd1461026e57806342842e0e1461028a578063629cb2e4146102a6576101cf565b806301ffc9a7146101d457806306fdde0314610204578063081812fc14610222575b600080fd5b6101ee60048036038101906101e991906135e0565b61058e565b6040516101fb9190613628565b60405180910390f35b61020c6105ef565b60405161021991906136d3565b60405180910390f35b61023c6004803603810190610237919061372b565b610681565b6040516102499190613799565b60405180910390f35b61026c600480360381019061026791906137e0565b6106c7565b005b61028860048036038101906102839190613820565b6107de565b005b6102a4600480360381019061029f9190613820565b61083e565b005b6102ae61085e565b6040516102bb91906139ca565b60405180910390f35b6102de60048036038101906102d9919061372b565b610c57565b6040516102eb9190613799565b60405180910390f35b6102fc610cdd565b60405161030991906139fb565b60405180910390f35b61032c60048036038101906103279190613a16565b610ce7565b60405161033991906139fb565b60405180910390f35b61034a610d9e565b005b61036660048036038101906103619190613b78565b610db2565b60405161037391906139fb565b60405180910390f35b610384610df4565b6040516103919190613799565b60405180910390f35b6103a2610e18565b005b6103ac610ed2565b6040516103b99190613799565b60405180910390f35b6103dc60048036038101906103d7919061372b565b610efc565b6040516103e99190613c4f565b60405180910390f35b6103fa61101f565b60405161040791906136d3565b60405180910390f35b61042a6004803603810190610425919061372b565b6110b1565b005b61044660048036038101906104419190613c96565b61146d565b005b610462600480360381019061045d919061372b565b611483565b005b61047e60048036038101906104799190613d77565b6115c7565b005b61049a6004803603810190610495919061372b565b611629565b005b6104b660048036038101906104b1919061372b565b61163b565b6040516104c391906136d3565b60405180910390f35b6104d461174d565b6040516104e19190613c4f565b60405180910390f35b6104f261187d565b6040516104ff91906139ca565b60405180910390f35b610522600480360381019061051d9190613dfa565b611a82565b005b61053e60048036038101906105399190613e3a565b611e5e565b60405161054b9190613628565b60405180910390f35b61055c611ef2565b60405161056991906139fb565b60405180910390f35b61058c60048036038101906105879190613a16565b611f03565b005b6000634906490660e01b7bffffffffffffffffffffffffffffffffffffffffffffffffffffffff1916827bffffffffffffffffffffffffffffffffffffffffffffffffffffffff191614806105e857506105e782611f86565b5b9050919050565b6060600080546105fe90613ea9565b80601f016020809104026020016040519081016040528092919081815260200182805461062a90613ea9565b80156106775780601f1061064c57610100808354040283529160200191610677565b820191906000526020600020905b81548152906001019060200180831161065a57829003601f168201915b5050505050905090565b600061068c82612068565b6004600083815260200190815260200160002060009054906101000a900473ffffffffffffffffffffffffffffffffffffffff169050919050565b60006106d282610c57565b90508073ffffffffffffffffffffffffffffffffffffffff168373ffffffffffffffffffffffffffffffffffffffff1603610742576040517f08c379a000000000000000000000000000000000000000000000000000000000815260040161073990613f4c565b60405180910390fd5b8073ffffffffffffffffffffffffffffffffffffffff166107616120b3565b73ffffffffffffffffffffffffffffffffffffffff161480610790575061078f8161078a6120b3565b611e5e565b5b6107cf576040517f08c379a00000000000000000000000000000000000000000000000000000000081526004016107c690613fde565b60405180910390fd5b6107d983836120bb565b505050565b6107ef6107e96120b3565b82612174565b61082e576040517f08c379a000000000000000000000000000000000000000000000000000000000815260040161082590614070565b60405180910390fd5b610839838383612209565b505050565b610859838383604051806020016040528060008152506115c7565b505050565b6060600061086c6008612502565b905060008060005b8381101561098d573373ffffffffffffffffffffffffffffffffffffffff16600c60006001846108a491906140bf565b815260200190815260200160002060010160009054906101000a900473ffffffffffffffffffffffffffffffffffffffff1673ffffffffffffffffffffffffffffffffffffffff16148061096557503373ffffffffffffffffffffffffffffffffffffffff16600c600060018461091b91906140bf565b815260200190815260200160002060020160009054906101000a900473ffffffffffffffffffffffffffffffffffffffff1673ffffffffffffffffffffffffffffffffffffffff16145b1561097a5760018361097791906140bf565b92505b8080610985906140f3565b915050610874565b5060008267ffffffffffffffff8111156109aa576109a9613a4d565b5b6040519080825280602002602001820160405280156109e357816020015b6109d061350e565b8152602001906001900390816109c85790505b50905060005b84811015610c4c573373ffffffffffffffffffffffffffffffffffffffff16600c6000600184610a1991906140bf565b815260200190815260200160002060010160009054906101000a900473ffffffffffffffffffffffffffffffffffffffff1673ffffffffffffffffffffffffffffffffffffffff161480610ada57503373ffffffffffffffffffffffffffffffffffffffff16600c6000600184610a9091906140bf565b815260200190815260200160002060020160009054906101000a900473ffffffffffffffffffffffffffffffffffffffff1673ffffffffffffffffffffffffffffffffffffffff16145b15610c39576000600182610aee91906140bf565b90506000600c60008381526020019081526020016000209050806040518060c0016040529081600082015481526020016001820160009054906101000a900473ffffffffffffffffffffffffffffffffffffffff1673ffffffffffffffffffffffffffffffffffffffff1673ffffffffffffffffffffffffffffffffffffffff1681526020016002820160009054906101000a900473ffffffffffffffffffffffffffffffffffffffff1673ffffffffffffffffffffffffffffffffffffffff1673ffffffffffffffffffffffffffffffffffffffff168152602001600382015481526020016004820160009054906101000a900460ff161515151581526020016004820160019054906101000a900460ff161515151581525050848681518110610c1c57610c1b61413b565b5b6020026020010181905250600185610c3491906140bf565b945050505b8080610c44906140f3565b9150506109e9565b508094505050505090565b600080610c6383612510565b9050600073ffffffffffffffffffffffffffffffffffffffff168173ffffffffffffffffffffffffffffffffffffffff1603610cd4576040517f08c379a0000000000000000000000000000000000000000000000000000000008152600401610ccb906141b6565b60405180910390fd5b80915050919050565b6000600b54905090565b60008073ffffffffffffffffffffffffffffffffffffffff168273ffffffffffffffffffffffffffffffffffffffff1603610d57576040517f08c379a0000000000000000000000000000000000000000000000000000000008152600401610d4e90614248565b60405180910390fd5b600360008373ffffffffffffffffffffffffffffffffffffffff1673ffffffffffffffffffffffffffffffffffffffff168152602001908152602001600020549050919050565b610da661254d565b610db060006125cb565b565b6000610dbe6008612691565b6000610dca6008612502565b9050610dd633826126a7565b610de081856126c5565b610dea8184612769565b8091505092915050565b7f000000000000000000000000000000000000000000000000000000000000000081565b610e2061254d565b7f000000000000000000000000000000000000000000000000000000000000000073ffffffffffffffffffffffffffffffffffffffff1663a9059cbb610e64610ed2565b600a546040518363ffffffff1660e01b8152600401610e84929190614268565b6020604051808303816000875af1158015610ea3573d6000803e3d6000fd5b505050506040513d601f19601f82011682018060405250810190610ec791906142a6565b506000600a81905550565b6000600760009054906101000a900473ffffffffffffffffffffffffffffffffffffffff16905090565b610f0461350e565b600c60008381526020019081526020016000206040518060c0016040529081600082015481526020016001820160009054906101000a900473ffffffffffffffffffffffffffffffffffffffff1673ffffffffffffffffffffffffffffffffffffffff1673ffffffffffffffffffffffffffffffffffffffff1681526020016002820160009054906101000a900473ffffffffffffffffffffffffffffffffffffffff1673ffffffffffffffffffffffffffffffffffffffff1673ffffffffffffffffffffffffffffffffffffffff168152602001600382015481526020016004820160009054906101000a900460ff161515151581526020016004820160019054906101000a900460ff1615151515815250509050919050565b60606001805461102e90613ea9565b80601f016020809104026020016040519081016040528092919081815260200182805461105a90613ea9565b80156110a75780601f1061107c576101008083540402835291602001916110a7565b820191906000526020600020905b81548152906001019060200180831161108a57829003601f168201915b5050505050905090565b600c600082815260200190815260200160002060040160009054906101000a900460ff16611114576040517f08c379a000000000000000000000000000000000000000000000000000000000815260040161110b9061431f565b60405180910390fd5b6000600c60008381526020019081526020016000206003015490506000600c600084815260200190815260200160002060020160009054906101000a900473ffffffffffffffffffffffffffffffffffffffff169050817f000000000000000000000000000000000000000000000000000000000000000073ffffffffffffffffffffffffffffffffffffffff166370a08231336040518263ffffffff1660e01b81526004016111c49190613799565b602060405180830381865afa1580156111e1573d6000803e3d6000fd5b505050506040513d601f19601f820116820180604052508101906112059190614354565b1015611246576040517f08c379a000000000000000000000000000000000000000000000000000000000815260040161123d906143cd565b60405180910390fd5b817f000000000000000000000000000000000000000000000000000000000000000073ffffffffffffffffffffffffffffffffffffffff1663dd62ed3e33306040518363ffffffff1660e01b81526004016112a29291906143ed565b602060405180830381865afa1580156112bf573d6000803e3d6000fd5b505050506040513d601f19601f820116820180604052508101906112e39190614354565b1015611324576040517f08c379a000000000000000000000000000000000000000000000000000000000815260040161131b90614488565b60405180910390fd5b7f000000000000000000000000000000000000000000000000000000000000000073ffffffffffffffffffffffffffffffffffffffff166323b872dd3383856040518463ffffffff1660e01b8152600401611381939291906144a8565b6020604051808303816000875af11580156113a0573d6000803e3d6000fd5b505050506040513d601f19601f820116820180604052508101906113c491906142a6565b506000600c600085815260200190815260200160002060040160016101000a81548160ff02191690831515021790555033600c600085815260200190815260200160002060020160006101000a81548173ffffffffffffffffffffffffffffffffffffffff021916908373ffffffffffffffffffffffffffffffffffffffff1602179055506114536009612691565b61145e303385612209565b61146830846106c7565b505050565b61147f6114786120b3565b8383612bcd565b5050565b600c600082815260200190815260200160002060040160009054906101000a900460ff166114e6576040517f08c379a00000000000000000000000000000000000000000000000000000000081526004016114dd9061431f565b60405180910390fd5b600c600082815260200190815260200160002060020160009054906101000a900473ffffffffffffffffffffffffffffffffffffffff1673ffffffffffffffffffffffffffffffffffffffff163373ffffffffffffffffffffffffffffffffffffffff161461158a576040517f08c379a000000000000000000000000000000000000000000000000000000000815260040161158190614551565b60405180910390fd5b6000600c600083815260200190815260200160002060040160016101000a81548160ff0219169083151502179055506115c4303383612209565b50565b6115d86115d26120b3565b83612174565b611617576040517f08c379a000000000000000000000000000000000000000000000000000000000815260040161160e90614070565b60405180910390fd5b61162384848484612d39565b50505050565b61163161254d565b80600b8190555050565b606061164682612068565b600060066000848152602001908152602001600020805461166690613ea9565b80601f016020809104026020016040519081016040528092919081815260200182805461169290613ea9565b80156116df5780601f106116b4576101008083540402835291602001916116df565b820191906000526020600020905b8154815290600101906020018083116116c257829003601f168201915b5050505050905060006116f0612d95565b90506000815103611705578192505050611748565b60008251111561173a5780826040516020016117229291906145ad565b60405160208183030381529060405292505050611748565b61174384612dac565b925050505b919050565b61175561350e565b60006117616008612502565b9050600c60008281526020019081526020016000206040518060c0016040529081600082015481526020016001820160009054906101000a900473ffffffffffffffffffffffffffffffffffffffff1673ffffffffffffffffffffffffffffffffffffffff1673ffffffffffffffffffffffffffffffffffffffff1681526020016002820160009054906101000a900473ffffffffffffffffffffffffffffffffffffffff1673ffffffffffffffffffffffffffffffffffffffff1673ffffffffffffffffffffffffffffffffffffffff168152602001600382015481526020016004820160009054906101000a900460ff161515151581526020016004820160019054906101000a900460ff16151515158152505091505090565b6060600061188b6008612502565b905060008167ffffffffffffffff8111156118a9576118a8613a4d565b5b6040519080825280602002602001820160405280156118e257816020015b6118cf61350e565b8152602001906001900390816118c75790505b5090506000805b83811015611a7557600060018261190091906140bf565b90506000600c600083815260200190815260200160002090508060040160019054906101000a900460ff1615611a6057806040518060c0016040529081600082015481526020016001820160009054906101000a900473ffffffffffffffffffffffffffffffffffffffff1673ffffffffffffffffffffffffffffffffffffffff1673ffffffffffffffffffffffffffffffffffffffff1681526020016002820160009054906101000a900473ffffffffffffffffffffffffffffffffffffffff1673ffffffffffffffffffffffffffffffffffffffff1673ffffffffffffffffffffffffffffffffffffffff168152602001600382015481526020016004820160009054906101000a900460ff161515151581526020016004820160019054906101000a900460ff161515151581525050858581518110611a4557611a4461413b565b5b6020026020010181905250600184611a5d91906140bf565b93505b50508080611a6d906140f3565b9150506118e9565b5080825281935050505090565b600c600083815260200190815260200160002060040160009054906101000a900460ff16611ae5576040517f08c379a0000000000000000000000000000000000000000000000000000000008152600401611adc9061431f565b60405180910390fd5b600c600083815260200190815260200160002060020160009054906101000a900473ffffffffffffffffffffffffffffffffffffffff1673ffffffffffffffffffffffffffffffffffffffff163373ffffffffffffffffffffffffffffffffffffffff1614611b89576040517f08c379a0000000000000000000000000000000000000000000000000000000008152600401611b8090614551565b60405180910390fd5b80600c6000848152602001908152602001600020600301819055506001600c600084815260200190815260200160002060040160016101000a81548160ff021916908315150217905550611bde333084612209565b600b547f000000000000000000000000000000000000000000000000000000000000000073ffffffffffffffffffffffffffffffffffffffff166370a08231336040518263ffffffff1660e01b8152600401611c3a9190613799565b602060405180830381865afa158015611c57573d6000803e3d6000fd5b505050506040513d601f19601f82011682018060405250810190611c7b9190614354565b1015611cbc576040517f08c379a0000000000000000000000000000000000000000000000000000000008152600401611cb3906143cd565b60405180910390fd5b600b547f000000000000000000000000000000000000000000000000000000000000000073ffffffffffffffffffffffffffffffffffffffff1663dd62ed3e33306040518363ffffffff1660e01b8152600401611d1a9291906143ed565b602060405180830381865afa158015611d37573d6000803e3d6000fd5b505050506040513d601f19601f82011682018060405250810190611d5b9190614354565b1015611d9c576040517f08c379a0000000000000000000000000000000000000000000000000000000008152600401611d9390614488565b60405180910390fd5b7f000000000000000000000000000000000000000000000000000000000000000073ffffffffffffffffffffffffffffffffffffffff166323b872dd3330600b546040518463ffffffff1660e01b8152600401611dfb939291906144a8565b6020604051808303816000875af1158015611e1a573d6000803e3d6000fd5b505050506040513d601f19601f82011682018060405250810190611e3e91906142a6565b50600b54600a6000828254611e5391906140bf565b925050819055505050565b6000600560008473ffffffffffffffffffffffffffffffffffffffff1673ffffffffffffffffffffffffffffffffffffffff16815260200190815260200160002060008373ffffffffffffffffffffffffffffffffffffffff1673ffffffffffffffffffffffffffffffffffffffff16815260200190815260200160002060009054906101000a900460ff16905092915050565b6000611efe6008612502565b905090565b611f0b61254d565b600073ffffffffffffffffffffffffffffffffffffffff168173ffffffffffffffffffffffffffffffffffffffff1603611f7a576040517f08c379a0000000000000000000000000000000000000000000000000000000008152600401611f7190614643565b60405180910390fd5b611f83816125cb565b50565b60007f80ac58cd000000000000000000000000000000000000000000000000000000007bffffffffffffffffffffffffffffffffffffffffffffffffffffffff1916827bffffffffffffffffffffffffffffffffffffffffffffffffffffffff1916148061205157507f5b5e139f000000000000000000000000000000000000000000000000000000007bffffffffffffffffffffffffffffffffffffffffffffffffffffffff1916827bffffffffffffffffffffffffffffffffffffffffffffffffffffffff1916145b80612061575061206082612e14565b5b9050919050565b61207181612e7e565b6120b0576040517f08c379a00000000000000000000000000000000000000000000000000000000081526004016120a7906141b6565b60405180910390fd5b50565b600033905090565b816004600083815260200190815260200160002060006101000a81548173ffffffffffffffffffffffffffffffffffffffff021916908373ffffffffffffffffffffffffffffffffffffffff160217905550808273ffffffffffffffffffffffffffffffffffffffff1661212e83610c57565b73ffffffffffffffffffffffffffffffffffffffff167f8c5be1e5ebec7d5bd14f71427d1e84f3dd0314c0f7b2291e5b200ac8c7c3b92560405160405180910390a45050565b60008061218083610c57565b90508073ffffffffffffffffffffffffffffffffffffffff168473ffffffffffffffffffffffffffffffffffffffff1614806121c257506121c18185611e5e565b5b8061220057508373ffffffffffffffffffffffffffffffffffffffff166121e884610681565b73ffffffffffffffffffffffffffffffffffffffff16145b91505092915050565b8273ffffffffffffffffffffffffffffffffffffffff1661222982610c57565b73ffffffffffffffffffffffffffffffffffffffff161461227f576040517f08c379a0000000000000000000000000000000000000000000000000000000008152600401612276906146d5565b60405180910390fd5b600073ffffffffffffffffffffffffffffffffffffffff168273ffffffffffffffffffffffffffffffffffffffff16036122ee576040517f08c379a00000000000000000000000000000000000000000000000000000000081526004016122e590614767565b60405180910390fd5b6122fb8383836001612ebf565b8273ffffffffffffffffffffffffffffffffffffffff1661231b82610c57565b73ffffffffffffffffffffffffffffffffffffffff1614612371576040517f08c379a0000000000000000000000000000000000000000000000000000000008152600401612368906146d5565b60405180910390fd5b6004600082815260200190815260200160002060006101000a81549073ffffffffffffffffffffffffffffffffffffffff02191690556001600360008573ffffffffffffffffffffffffffffffffffffffff1673ffffffffffffffffffffffffffffffffffffffff168152602001908152602001600020600082825403925050819055506001600360008473ffffffffffffffffffffffffffffffffffffffff1673ffffffffffffffffffffffffffffffffffffffff16815260200190815260200160002060008282540192505081905550816002600083815260200190815260200160002060006101000a81548173ffffffffffffffffffffffffffffffffffffffff021916908373ffffffffffffffffffffffffffffffffffffffff160217905550808273ffffffffffffffffffffffffffffffffffffffff168473ffffffffffffffffffffffffffffffffffffffff167fddf252ad1be2c89b69c2b068fc378daa952ba7f163c4a11628f55a4df523b3ef60405160405180910390a46124fd8383836001612ec5565b505050565b600081600001549050919050565b60006002600083815260200190815260200160002060009054906101000a900473ffffffffffffffffffffffffffffffffffffffff169050919050565b6125556120b3565b73ffffffffffffffffffffffffffffffffffffffff16612573610ed2565b73ffffffffffffffffffffffffffffffffffffffff16146125c9576040517f08c379a00000000000000000000000000000000000000000000000000000000081526004016125c0906147d3565b60405180910390fd5b565b6000600760009054906101000a900473ffffffffffffffffffffffffffffffffffffffff16905081600760006101000a81548173ffffffffffffffffffffffffffffffffffffffff021916908373ffffffffffffffffffffffffffffffffffffffff1602179055508173ffffffffffffffffffffffffffffffffffffffff168173ffffffffffffffffffffffffffffffffffffffff167f8be0079c531659141344cd1fd0a4f28419497f9722a3daafe3b4186f6b6457e060405160405180910390a35050565b6001816000016000828254019250508190555050565b6126c1828260405180602001604052806000815250612ecb565b5050565b6126ce82612e7e565b61270d576040517f08c379a000000000000000000000000000000000000000000000000000000000815260040161270490614865565b60405180910390fd5b8060066000848152602001908152602001600020908161272d9190614a31565b507ff8e1a15aba9398e019f0b49df1a4fde98ee17ae345cb5f6b5e2c27f5033e8ce78260405161275d91906139fb565b60405180910390a15050565b600081116127ac576040517f08c379a00000000000000000000000000000000000000000000000000000000081526004016127a390614b75565b60405180910390fd5b6040518060c001604052808381526020013073ffffffffffffffffffffffffffffffffffffffff1681526020013373ffffffffffffffffffffffffffffffffffffffff16815260200182815260200160011515815260200160011515815250600c60008481526020019081526020016000206000820151816000015560208201518160010160006101000a81548173ffffffffffffffffffffffffffffffffffffffff021916908373ffffffffffffffffffffffffffffffffffffffff16021790555060408201518160020160006101000a81548173ffffffffffffffffffffffffffffffffffffffff021916908373ffffffffffffffffffffffffffffffffffffffff1602179055506060820151816003015560808201518160040160006101000a81548160ff02191690831515021790555060a08201518160040160016101000a81548160ff02191690831515021790555090505061290e333084612209565b600b547f000000000000000000000000000000000000000000000000000000000000000073ffffffffffffffffffffffffffffffffffffffff166370a08231336040518263ffffffff1660e01b815260040161296a9190613799565b602060405180830381865afa158015612987573d6000803e3d6000fd5b505050506040513d601f19601f820116820180604052508101906129ab9190614354565b10156129ec576040517f08c379a00000000000000000000000000000000000000000000000000000000081526004016129e390614c07565b60405180910390fd5b600b547f000000000000000000000000000000000000000000000000000000000000000073ffffffffffffffffffffffffffffffffffffffff1663dd62ed3e33306040518363ffffffff1660e01b8152600401612a4a9291906143ed565b602060405180830381865afa158015612a67573d6000803e3d6000fd5b505050506040513d601f19601f82011682018060405250810190612a8b9190614354565b1015612acc576040517f08c379a0000000000000000000000000000000000000000000000000000000008152600401612ac390614488565b60405180910390fd5b7f000000000000000000000000000000000000000000000000000000000000000073ffffffffffffffffffffffffffffffffffffffff166323b872dd3330600b546040518463ffffffff1660e01b8152600401612b2b939291906144a8565b6020604051808303816000875af1158015612b4a573d6000803e3d6000fd5b505050506040513d601f19601f82011682018060405250810190612b6e91906142a6565b50600b54600a6000828254612b8391906140bf565b92505081905550817f9339409317fd01fabff48b703019016f49159bacc801ae872d2ca637d226e4c03033846001604051612bc19493929190614c27565b60405180910390a25050565b8173ffffffffffffffffffffffffffffffffffffffff168373ffffffffffffffffffffffffffffffffffffffff1603612c3b576040517f08c379a0000000000000000000000000000000000000000000000000000000008152600401612c3290614cb8565b60405180910390fd5b80600560008573ffffffffffffffffffffffffffffffffffffffff1673ffffffffffffffffffffffffffffffffffffffff16815260200190815260200160002060008473ffffffffffffffffffffffffffffffffffffffff1673ffffffffffffffffffffffffffffffffffffffff16815260200190815260200160002060006101000a81548160ff0219169083151502179055508173ffffffffffffffffffffffffffffffffffffffff168373ffffffffffffffffffffffffffffffffffffffff167f17307eab39ab6107e8899845ad3d59bd9653f200f220920489ca2b5937696c3183604051612d2c9190613628565b60405180910390a3505050565b612d44848484612209565b612d5084848484612f26565b612d8f576040517f08c379a0000000000000000000000000000000000000000000000000000000008152600401612d8690614d4a565b60405180910390fd5b50505050565b606060405180602001604052806000815250905090565b6060612db782612068565b6000612dc1612d95565b90506000815111612de15760405180602001604052806000815250612e0c565b80612deb846130ad565b604051602001612dfc9291906145ad565b6040516020818303038152906040525b915050919050565b60007f01ffc9a7000000000000000000000000000000000000000000000000000000007bffffffffffffffffffffffffffffffffffffffffffffffffffffffff1916827bffffffffffffffffffffffffffffffffffffffffffffffffffffffff1916149050919050565b60008073ffffffffffffffffffffffffffffffffffffffff16612ea083612510565b73ffffffffffffffffffffffffffffffffffffffff1614159050919050565b50505050565b50505050565b612ed5838361317b565b612ee26000848484612f26565b612f21576040517f08c379a0000000000000000000000000000000000000000000000000000000008152600401612f1890614d4a565b60405180910390fd5b505050565b6000612f478473ffffffffffffffffffffffffffffffffffffffff16613398565b156130a0578373ffffffffffffffffffffffffffffffffffffffff1663150b7a02612f706120b3565b8786866040518563ffffffff1660e01b8152600401612f929493929190614dbf565b6020604051808303816000875af1925050508015612fce57506040513d601f19601f82011682018060405250810190612fcb9190614e20565b60015b613050573d8060008114612ffe576040519150601f19603f3d011682016040523d82523d6000602084013e613003565b606091505b506000815103613048576040517f08c379a000000000000000000000000000000000000000000000000000000000815260040161303f90614d4a565b60405180910390fd5b805181602001fd5b63150b7a0260e01b7bffffffffffffffffffffffffffffffffffffffffffffffffffffffff1916817bffffffffffffffffffffffffffffffffffffffffffffffffffffffff1916149150506130a5565b600190505b949350505050565b6060600060016130bc846133bb565b01905060008167ffffffffffffffff8111156130db576130da613a4d565b5b6040519080825280601f01601f19166020018201604052801561310d5781602001600182028036833780820191505090505b509050600082602001820190505b600115613170578080600190039150507f3031323334353637383961626364656600000000000000000000000000000000600a86061a8153600a858161316457613163614e4d565b5b0494506000850361311b575b819350505050919050565b600073ffffffffffffffffffffffffffffffffffffffff168273ffffffffffffffffffffffffffffffffffffffff16036131ea576040517f08c379a00000000000000000000000000000000000000000000000000000000081526004016131e190614ec8565b60405180910390fd5b6131f381612e7e565b15613233576040517f08c379a000000000000000000000000000000000000000000000000000000000815260040161322a90614f34565b60405180910390fd5b613241600083836001612ebf565b61324a81612e7e565b1561328a576040517f08c379a000000000000000000000000000000000000000000000000000000000815260040161328190614f34565b60405180910390fd5b6001600360008473ffffffffffffffffffffffffffffffffffffffff1673ffffffffffffffffffffffffffffffffffffffff16815260200190815260200160002060008282540192505081905550816002600083815260200190815260200160002060006101000a81548173ffffffffffffffffffffffffffffffffffffffff021916908373ffffffffffffffffffffffffffffffffffffffff160217905550808273ffffffffffffffffffffffffffffffffffffffff16600073ffffffffffffffffffffffffffffffffffffffff167fddf252ad1be2c89b69c2b068fc378daa952ba7f163c4a11628f55a4df523b3ef60405160405180910390a4613394600083836001612ec5565b5050565b6000808273ffffffffffffffffffffffffffffffffffffffff163b119050919050565b600080600090507a184f03e93ff9f4daa797ed6e38ed64bf6a1f0100000000000000008310613419577a184f03e93ff9f4daa797ed6e38ed64bf6a1f010000000000000000838161340f5761340e614e4d565b5b0492506040810190505b6d04ee2d6d415b85acef81000000008310613456576d04ee2d6d415b85acef8100000000838161344c5761344b614e4d565b5b0492506020810190505b662386f26fc10000831061348557662386f26fc10000838161347b5761347a614e4d565b5b0492506010810190505b6305f5e10083106134ae576305f5e10083816134a4576134a3614e4d565b5b0492506008810190505b61271083106134d35761271083816134c9576134c8614e4d565b5b0492506004810190505b606483106134f657606483816134ec576134eb614e4d565b5b0492506002810190505b600a8310613505576001810190505b80915050919050565b6040518060c0016040528060008152602001600073ffffffffffffffffffffffffffffffffffffffff168152602001600073ffffffffffffffffffffffffffffffffffffffff168152602001600081526020016000151581526020016000151581525090565b6000604051905090565b600080fd5b600080fd5b60007fffffffff0000000000000000000000000000000000000000000000000000000082169050919050565b6135bd81613588565b81146135c857600080fd5b50565b6000813590506135da816135b4565b92915050565b6000602082840312156135f6576135f561357e565b5b6000613604848285016135cb565b91505092915050565b60008115159050919050565b6136228161360d565b82525050565b600060208201905061363d6000830184613619565b92915050565b600081519050919050565b600082825260208201905092915050565b60005b8381101561367d578082015181840152602081019050613662565b60008484015250505050565b6000601f19601f8301169050919050565b60006136a582613643565b6136af818561364e565b93506136bf81856020860161365f565b6136c881613689565b840191505092915050565b600060208201905081810360008301526136ed818461369a565b905092915050565b6000819050919050565b613708816136f5565b811461371357600080fd5b50565b600081359050613725816136ff565b92915050565b6000602082840312156137415761374061357e565b5b600061374f84828501613716565b91505092915050565b600073ffffffffffffffffffffffffffffffffffffffff82169050919050565b600061378382613758565b9050919050565b61379381613778565b82525050565b60006020820190506137ae600083018461378a565b92915050565b6137bd81613778565b81146137c857600080fd5b50565b6000813590506137da816137b4565b92915050565b600080604083850312156137f7576137f661357e565b5b6000613805858286016137cb565b925050602061381685828601613716565b9150509250929050565b6000806000606084860312156138395761383861357e565b5b6000613847868287016137cb565b9350506020613858868287016137cb565b925050604061386986828701613716565b9150509250925092565b600081519050919050565b600082825260208201905092915050565b6000819050602082019050919050565b6138a8816136f5565b82525050565b6138b781613778565b82525050565b6138c68161360d565b82525050565b60c0820160008201516138e2600085018261389f565b5060208201516138f560208501826138ae565b50604082015161390860408501826138ae565b50606082015161391b606085018261389f565b50608082015161392e60808501826138bd565b5060a082015161394160a08501826138bd565b50505050565b600061395383836138cc565b60c08301905092915050565b6000602082019050919050565b600061397782613873565b613981818561387e565b935061398c8361388f565b8060005b838110156139bd5781516139a48882613947565b97506139af8361395f565b925050600181019050613990565b5085935050505092915050565b600060208201905081810360008301526139e4818461396c565b905092915050565b6139f5816136f5565b82525050565b6000602082019050613a1060008301846139ec565b92915050565b600060208284031215613a2c57613a2b61357e565b5b6000613a3a848285016137cb565b91505092915050565b600080fd5b600080fd5b7f4e487b7100000000000000000000000000000000000000000000000000000000600052604160045260246000fd5b613a8582613689565b810181811067ffffffffffffffff82111715613aa457613aa3613a4d565b5b80604052505050565b6000613ab7613574565b9050613ac38282613a7c565b919050565b600067ffffffffffffffff821115613ae357613ae2613a4d565b5b613aec82613689565b9050602081019050919050565b82818337600083830152505050565b6000613b1b613b1684613ac8565b613aad565b905082815260208101848484011115613b3757613b36613a48565b5b613b42848285613af9565b509392505050565b600082601f830112613b5f57613b5e613a43565b5b8135613b6f848260208601613b08565b91505092915050565b60008060408385031215613b8f57613b8e61357e565b5b600083013567ffffffffffffffff811115613bad57613bac613583565b5b613bb985828601613b4a565b9250506020613bca85828601613716565b9150509250929050565b60c082016000820151613bea600085018261389f565b506020820151613bfd60208501826138ae565b506040820151613c1060408501826138ae565b506060820151613c23606085018261389f565b506080820151613c3660808501826138bd565b5060a0820151613c4960a08501826138bd565b50505050565b600060c082019050613c646000830184613bd4565b92915050565b613c738161360d565b8114613c7e57600080fd5b50565b600081359050613c9081613c6a565b92915050565b60008060408385031215613cad57613cac61357e565b5b6000613cbb858286016137cb565b9250506020613ccc85828601613c81565b9150509250929050565b600067ffffffffffffffff821115613cf157613cf0613a4d565b5b613cfa82613689565b9050602081019050919050565b6000613d1a613d1584613cd6565b613aad565b905082815260208101848484011115613d3657613d35613a48565b5b613d41848285613af9565b509392505050565b600082601f830112613d5e57613d5d613a43565b5b8135613d6e848260208601613d07565b91505092915050565b60008060008060808587031215613d9157613d9061357e565b5b6000613d9f878288016137cb565b9450506020613db0878288016137cb565b9350506040613dc187828801613716565b925050606085013567ffffffffffffffff811115613de257613de1613583565b5b613dee87828801613d49565b91505092959194509250565b60008060408385031215613e1157613e1061357e565b5b6000613e1f85828601613716565b9250506020613e3085828601613716565b9150509250929050565b60008060408385031215613e5157613e5061357e565b5b6000613e5f858286016137cb565b9250506020613e70858286016137cb565b9150509250929050565b7f4e487b7100000000000000000000000000000000000000000000000000000000600052602260045260246000fd5b60006002820490506001821680613ec157607f821691505b602082108103613ed457613ed3613e7a565b5b50919050565b7f4552433732313a20617070726f76616c20746f2063757272656e74206f776e6560008201527f7200000000000000000000000000000000000000000000000000000000000000602082015250565b6000613f3660218361364e565b9150613f4182613eda565b604082019050919050565b60006020820190508181036000830152613f6581613f29565b9050919050565b7f4552433732313a20617070726f76652063616c6c6572206973206e6f7420746f60008201527f6b656e206f776e6572206f7220617070726f76656420666f7220616c6c000000602082015250565b6000613fc8603d8361364e565b9150613fd382613f6c565b604082019050919050565b60006020820190508181036000830152613ff781613fbb565b9050919050565b7f4552433732313a2063616c6c6572206973206e6f7420746f6b656e206f776e6560008201527f72206f7220617070726f76656400000000000000000000000000000000000000602082015250565b600061405a602d8361364e565b915061406582613ffe565b604082019050919050565b600060208201905081810360008301526140898161404d565b9050919050565b7f4e487b7100000000000000000000000000000000000000000000000000000000600052601160045260246000fd5b60006140ca826136f5565b91506140d5836136f5565b92508282019050808211156140ed576140ec614090565b5b92915050565b60006140fe826136f5565b91507fffffffffffffffffffffffffffffffffffffffffffffffffffffffffffffffff82036141305761412f614090565b5b600182019050919050565b7f4e487b7100000000000000000000000000000000000000000000000000000000600052603260045260246000fd5b7f4552433732313a20696e76616c696420746f6b656e2049440000000000000000600082015250565b60006141a060188361364e565b91506141ab8261416a565b602082019050919050565b600060208201905081810360008301526141cf81614193565b9050919050565b7f4552433732313a2061646472657373207a65726f206973206e6f74206120766160008201527f6c6964206f776e65720000000000000000000000000000000000000000000000602082015250565b600061423260298361364e565b915061423d826141d6565b604082019050919050565b6000602082019050818103600083015261426181614225565b9050919050565b600060408201905061427d600083018561378a565b61428a60208301846139ec565b9392505050565b6000815190506142a081613c6a565b92915050565b6000602082840312156142bc576142bb61357e565b5b60006142ca84828501614291565b91505092915050565b7f546f6b656e20646f65736e277420657869737400000000000000000000000000600082015250565b600061430960138361364e565b9150614314826142d3565b602082019050919050565b60006020820190508181036000830152614338816142fc565b9050919050565b60008151905061434e816136ff565b92915050565b60006020828403121561436a5761436961357e565b5b60006143788482850161433f565b91505092915050565b7f496e737566696369656e742062616c616e6365206f6620434320546f6b656e00600082015250565b60006143b7601f8361364e565b91506143c282614381565b602082019050919050565b600060208201905081810360008301526143e6816143aa565b9050919050565b6000604082019050614402600083018561378a565b61440f602083018461378a565b9392505050565b7f5468697320636f6e7472616374206e6565647320617070726f76616c2066726f60008201527f6d206d73672e73656e6465720000000000000000000000000000000000000000602082015250565b6000614472602c8361364e565b915061447d82614416565b604082019050919050565b600060208201905081810360008301526144a181614465565b9050919050565b60006060820190506144bd600083018661378a565b6144ca602083018561378a565b6144d760408301846139ec565b949350505050565b7f4f6e6c792074686520746f6b656e206f776e65722063616e20726573656c6c2060008201527f6974000000000000000000000000000000000000000000000000000000000000602082015250565b600061453b60228361364e565b9150614546826144df565b604082019050919050565b6000602082019050818103600083015261456a8161452e565b9050919050565b600081905092915050565b600061458782613643565b6145918185614571565b93506145a181856020860161365f565b80840191505092915050565b60006145b9828561457c565b91506145c5828461457c565b91508190509392505050565b7f4f776e61626c653a206e6577206f776e657220697320746865207a65726f206160008201527f6464726573730000000000000000000000000000000000000000000000000000602082015250565b600061462d60268361364e565b9150614638826145d1565b604082019050919050565b6000602082019050818103600083015261465c81614620565b9050919050565b7f4552433732313a207472616e736665722066726f6d20696e636f72726563742060008201527f6f776e6572000000000000000000000000000000000000000000000000000000602082015250565b60006146bf60258361364e565b91506146ca82614663565b604082019050919050565b600060208201905081810360008301526146ee816146b2565b9050919050565b7f4552433732313a207472616e7366657220746f20746865207a65726f2061646460008201527f7265737300000000000000000000000000000000000000000000000000000000602082015250565b600061475160248361364e565b915061475c826146f5565b604082019050919050565b6000602082019050818103600083015261478081614744565b9050919050565b7f4f776e61626c653a2063616c6c6572206973206e6f7420746865206f776e6572600082015250565b60006147bd60208361364e565b91506147c882614787565b602082019050919050565b600060208201905081810360008301526147ec816147b0565b9050919050565b7f45524337323155524953746f726167653a2055524920736574206f66206e6f6e60008201527f6578697374656e7420746f6b656e000000000000000000000000000000000000602082015250565b600061484f602e8361364e565b915061485a826147f3565b604082019050919050565b6000602082019050818103600083015261487e81614842565b9050919050565b60008190508160005260206000209050919050565b60006020601f8301049050919050565b600082821b905092915050565b6000600883026148e77fffffffffffffffffffffffffffffffffffffffffffffffffffffffffffffffff826148aa565b6148f186836148aa565b95508019841693508086168417925050509392505050565b6000819050919050565b600061492e614929614924846136f5565b614909565b6136f5565b9050919050565b6000819050919050565b61494883614913565b61495c61495482614935565b8484546148b7565b825550505050565b600090565b614971614964565b61497c81848461493f565b505050565b5b818110156149a057614995600082614969565b600181019050614982565b5050565b601f8211156149e5576149b681614885565b6149bf8461489a565b810160208510156149ce578190505b6149e26149da8561489a565b830182614981565b50505b505050565b600082821c905092915050565b6000614a08600019846008026149ea565b1980831691505092915050565b6000614a2183836149f7565b9150826002028217905092915050565b614a3a82613643565b67ffffffffffffffff811115614a5357614a52613a4d565b5b614a5d8254613ea9565b614a688282856149a4565b600060209050601f831160018114614a9b5760008415614a89578287015190505b614a938582614a15565b865550614afb565b601f198416614aa986614885565b60005b82811015614ad157848901518255600182019150602085019450602081019050614aac565b86831015614aee5784890151614aea601f8916826149f7565b8355505b6001600288020188555050505b505050505050565b7f4d616b652073757265207468652070726963652069736e2774206e656761746960008201527f7665000000000000000000000000000000000000000000000000000000000000602082015250565b6000614b5f60228361364e565b9150614b6a82614b03565b604082019050919050565b60006020820190508181036000830152614b8e81614b52565b9050919050565b7f496e737566696369656e742062616c616e6365206f6620455243323020546f6b60008201527f656e000000000000000000000000000000000000000000000000000000000000602082015250565b6000614bf160228361364e565b9150614bfc82614b95565b604082019050919050565b60006020820190508181036000830152614c2081614be4565b9050919050565b6000608082019050614c3c600083018761378a565b614c49602083018661378a565b614c5660408301856139ec565b614c636060830184613619565b95945050505050565b7f4552433732313a20617070726f766520746f2063616c6c657200000000000000600082015250565b6000614ca260198361364e565b9150614cad82614c6c565b602082019050919050565b60006020820190508181036000830152614cd181614c95565b9050919050565b7f4552433732313a207472616e7366657220746f206e6f6e20455243373231526560008201527f63656976657220696d706c656d656e7465720000000000000000000000000000602082015250565b6000614d3460328361364e565b9150614d3f82614cd8565b604082019050919050565b60006020820190508181036000830152614d6381614d27565b9050919050565b600081519050919050565b600082825260208201905092915050565b6000614d9182614d6a565b614d9b8185614d75565b9350614dab81856020860161365f565b614db481613689565b840191505092915050565b6000608082019050614dd4600083018761378a565b614de1602083018661378a565b614dee60408301856139ec565b8181036060830152614e008184614d86565b905095945050505050565b600081519050614e1a816135b4565b92915050565b600060208284031215614e3657614e3561357e565b5b6000614e4484828501614e0b565b91505092915050565b7f4e487b7100000000000000000000000000000000000000000000000000000000600052601260045260246000fd5b7f4552433732313a206d696e7420746f20746865207a65726f2061646472657373600082015250565b6000614eb260208361364e565b9150614ebd82614e7c565b602082019050919050565b60006020820190508181036000830152614ee181614ea5565b9050919050565b7f4552433732313a20746f6b656e20616c7265616479206d696e74656400000000600082015250565b6000614f1e601c8361364e565b9150614f2982614ee8565b602082019050919050565b60006020820190508181036000830152614f4d81614f11565b905091905056fea2646970667358221220646d111cef8e1e3e49e9282e327b132a963ff79eb8d244de4ccfcb65041222f764736f6c63430008140033",
  "linkReferences": {},
  "deployedLinkReferences": {}
}