{
  "_format": "hh-sol-artifact-1",
  "contractName": "NFTMarketplace",
  "sourceName": "contracts/NFTMarketplace.sol",
  "abi": [
    {
      "inputs": [],
      "stateMutability": "nonpayable",
      "type": "constructor"
    },
    {
      "anonymous": false,
      "inputs": [
        {
          "indexed": true,
          "internalType": "address",
          "name": "owner",
          "type": "address"
        },
        {
          "indexed": true,
          "internalType": "address",
          "name": "approved",
          "type": "address"
        },
        {
          "indexed": true,
          "internalType": "uint256",
          "name": "tokenId",
          "type": "uint256"
        }
      ],
      "name": "Approval",
      "type": "event"
    },
    {
      "anonymous": false,
      "inputs": [
        {
          "indexed": true,
          "internalType": "address",
          "name": "owner",
          "type": "address"
        },
        {
          "indexed": true,
          "internalType": "address",
          "name": "operator",
          "type": "address"
        },
        {
          "indexed": false,
          "internalType": "bool",
          "name": "approved",
          "type": "bool"
        }
      ],
      "name": "ApprovalForAll",
      "type": "event"
    },
    {
      "anonymous": false,
      "inputs": [
        {
          "indexed": false,
          "internalType": "uint256",
          "name": "_fromTokenId",
          "type": "uint256"
        },
        {
          "indexed": false,
          "internalType": "uint256",
          "name": "_toTokenId",
          "type": "uint256"
        }
      ],
      "name": "BatchMetadataUpdate",
      "type": "event"
    },
    {
      "anonymous": false,
      "inputs": [
        {
          "indexed": false,
          "internalType": "uint256",
          "name": "_tokenId",
          "type": "uint256"
        }
      ],
      "name": "MetadataUpdate",
      "type": "event"
    },
    {
      "anonymous": false,
      "inputs": [
        {
          "indexed": true,
          "internalType": "uint256",
          "name": "tokenId",
          "type": "uint256"
        },
        {
          "indexed": false,
          "internalType": "address",
          "name": "owner",
          "type": "address"
        },
        {
          "indexed": false,
          "internalType": "address",
          "name": "seller",
          "type": "address"
        },
        {
          "indexed": false,
          "internalType": "uint256",
          "name": "price",
          "type": "uint256"
        },
        {
          "indexed": false,
          "internalType": "bool",
          "name": "currentlyListed",
          "type": "bool"
        }
      ],
      "name": "TokenListedSuccess",
      "type": "event"
    },
    {
      "anonymous": false,
      "inputs": [
        {
          "indexed": true,
          "internalType": "address",
          "name": "from",
          "type": "address"
        },
        {
          "indexed": true,
          "internalType": "address",
          "name": "to",
          "type": "address"
        },
        {
          "indexed": true,
          "internalType": "uint256",
          "name": "tokenId",
          "type": "uint256"
        }
      ],
      "name": "Transfer",
      "type": "event"
    },
    {
      "inputs": [
        {
          "internalType": "address",
          "name": "to",
          "type": "address"
        },
        {
          "internalType": "uint256",
          "name": "tokenId",
          "type": "uint256"
        }
      ],
      "name": "approve",
      "outputs": [],
      "stateMutability": "nonpayable",
      "type": "function"
    },
    {
      "inputs": [
        {
          "internalType": "address",
          "name": "owner",
          "type": "address"
        }
      ],
      "name": "balanceOf",
      "outputs": [
        {
          "internalType": "uint256",
          "name": "",
          "type": "uint256"
        }
      ],
      "stateMutability": "view",
      "type": "function"
    },
    {
      "inputs": [],
      "name": "coinCraftToken",
      "outputs": [
        {
          "internalType": "contract CoinCraft",
          "name": "",
          "type": "address"
        }
      ],
      "stateMutability": "view",
      "type": "function"
    },
    {
      "inputs": [
        {
          "internalType": "string",
          "name": "tokenURI",
          "type": "string"
        },
        {
          "internalType": "uint256",
          "name": "price",
          "type": "uint256"
        }
      ],
      "name": "createListedToken",
      "outputs": [],
      "stateMutability": "nonpayable",
      "type": "function"
    },
    {
      "inputs": [
        {
          "internalType": "string",
          "name": "tokenURI",
          "type": "string"
        },
        {
          "internalType": "uint256",
          "name": "price",
          "type": "uint256"
        }
      ],
      "name": "createToken",
      "outputs": [
        {
          "internalType": "uint256",
          "name": "",
          "type": "uint256"
        }
      ],
      "stateMutability": "payable",
      "type": "function"
    },
    {
      "inputs": [
        {
          "internalType": "uint256",
          "name": "tokenId",
          "type": "uint256"
        }
      ],
      "name": "executeSale",
      "outputs": [],
      "stateMutability": "nonpayable",
      "type": "function"
    },
    {
      "inputs": [],
      "name": "getAllNFTs",
      "outputs": [
        {
          "components": [
            {
              "internalType": "uint256",
              "name": "tokenId",
              "type": "uint256"
            },
            {
              "internalType": "address payable",
              "name": "owner",
              "type": "address"
            },
            {
              "internalType": "address payable",
              "name": "seller",
              "type": "address"
            },
            {
              "internalType": "uint256",
              "name": "price",
              "type": "uint256"
            },
            {
              "internalType": "bool",
              "name": "currentlyListed",
              "type": "bool"
            }
          ],
          "internalType": "struct NFTMarketplace.ListedToken[]",
          "name": "",
          "type": "tuple[]"
        }
      ],
      "stateMutability": "view",
      "type": "function"
    },
    {
      "inputs": [
        {
          "internalType": "uint256",
          "name": "tokenId",
          "type": "uint256"
        }
      ],
      "name": "getApproved",
      "outputs": [
        {
          "internalType": "address",
          "name": "",
          "type": "address"
        }
      ],
      "stateMutability": "view",
      "type": "function"
    },
    {
      "inputs": [],
      "name": "getCurrentToken",
      "outputs": [
        {
          "internalType": "uint256",
          "name": "",
          "type": "uint256"
        }
      ],
      "stateMutability": "view",
      "type": "function"
    },
    {
      "inputs": [],
      "name": "getLatestIdToListedToken",
      "outputs": [
        {
          "components": [
            {
              "internalType": "uint256",
              "name": "tokenId",
              "type": "uint256"
            },
            {
              "internalType": "address payable",
              "name": "owner",
              "type": "address"
            },
            {
              "internalType": "address payable",
              "name": "seller",
              "type": "address"
            },
            {
              "internalType": "uint256",
              "name": "price",
              "type": "uint256"
            },
            {
              "internalType": "bool",
              "name": "currentlyListed",
              "type": "bool"
            }
          ],
          "internalType": "struct NFTMarketplace.ListedToken",
          "name": "",
          "type": "tuple"
        }
      ],
      "stateMutability": "view",
      "type": "function"
    },
    {
      "inputs": [],
      "name": "getListPrice",
      "outputs": [
        {
          "internalType": "uint256",
          "name": "",
          "type": "uint256"
        }
      ],
      "stateMutability": "view",
      "type": "function"
    },
    {
      "inputs": [
        {
          "internalType": "uint256",
          "name": "tokenId",
          "type": "uint256"
        }
      ],
      "name": "getListedTokenForId",
      "outputs": [
        {
          "components": [
            {
              "internalType": "uint256",
              "name": "tokenId",
              "type": "uint256"
            },
            {
              "internalType": "address payable",
              "name": "owner",
              "type": "address"
            },
            {
              "internalType": "address payable",
              "name": "seller",
              "type": "address"
            },
            {
              "internalType": "uint256",
              "name": "price",
              "type": "uint256"
            },
            {
              "internalType": "bool",
              "name": "currentlyListed",
              "type": "bool"
            }
          ],
          "internalType": "struct NFTMarketplace.ListedToken",
          "name": "",
          "type": "tuple"
        }
      ],
      "stateMutability": "view",
      "type": "function"
    },
    {
      "inputs": [],
      "name": "getMyNFTs",
      "outputs": [
        {
          "components": [
            {
              "internalType": "uint256",
              "name": "tokenId",
              "type": "uint256"
            },
            {
              "internalType": "address payable",
              "name": "owner",
              "type": "address"
            },
            {
              "internalType": "address payable",
              "name": "seller",
              "type": "address"
            },
            {
              "internalType": "uint256",
              "name": "price",
              "type": "uint256"
            },
            {
              "internalType": "bool",
              "name": "currentlyListed",
              "type": "bool"
            }
          ],
          "internalType": "struct NFTMarketplace.ListedToken[]",
          "name": "",
          "type": "tuple[]"
        }
      ],
      "stateMutability": "view",
      "type": "function"
    },
    {
      "inputs": [
        {
          "internalType": "address",
          "name": "owner",
          "type": "address"
        },
        {
          "internalType": "address",
          "name": "operator",
          "type": "address"
        }
      ],
      "name": "isApprovedForAll",
      "outputs": [
        {
          "internalType": "bool",
          "name": "",
          "type": "bool"
        }
      ],
      "stateMutability": "view",
      "type": "function"
    },
    {
      "inputs": [],
      "name": "name",
      "outputs": [
        {
          "internalType": "string",
          "name": "",
          "type": "string"
        }
      ],
      "stateMutability": "view",
      "type": "function"
    },
    {
      "inputs": [
        {
          "internalType": "uint256",
          "name": "tokenId",
          "type": "uint256"
        }
      ],
      "name": "ownerOf",
      "outputs": [
        {
          "internalType": "address",
          "name": "",
          "type": "address"
        }
      ],
      "stateMutability": "view",
      "type": "function"
    },
    {
      "inputs": [
        {
          "internalType": "address",
          "name": "from",
          "type": "address"
        },
        {
          "internalType": "address",
          "name": "to",
          "type": "address"
        },
        {
          "internalType": "uint256",
          "name": "tokenId",
          "type": "uint256"
        }
      ],
      "name": "safeTransferFrom",
      "outputs": [],
      "stateMutability": "nonpayable",
      "type": "function"
    },
    {
      "inputs": [
        {
          "internalType": "address",
          "name": "from",
          "type": "address"
        },
        {
          "internalType": "address",
          "name": "to",
          "type": "address"
        },
        {
          "internalType": "uint256",
          "name": "tokenId",
          "type": "uint256"
        },
        {
          "internalType": "bytes",
          "name": "data",
          "type": "bytes"
        }
      ],
      "name": "safeTransferFrom",
      "outputs": [],
      "stateMutability": "nonpayable",
      "type": "function"
    },
    {
      "inputs": [
        {
          "internalType": "address",
          "name": "operator",
          "type": "address"
        },
        {
          "internalType": "bool",
          "name": "approved",
          "type": "bool"
        }
      ],
      "name": "setApprovalForAll",
      "outputs": [],
      "stateMutability": "nonpayable",
      "type": "function"
    },
    {
      "inputs": [
        {
          "internalType": "address",
          "name": "_tokenAddress",
          "type": "address"
        }
      ],
      "name": "setCoinCraftTokenAddress",
      "outputs": [],
      "stateMutability": "nonpayable",
      "type": "function"
    },
    {
      "inputs": [
        {
          "internalType": "address",
          "name": "_tokenContractAddress",
          "type": "address"
        }
      ],
      "name": "setCoinCraftTokenContract",
      "outputs": [],
      "stateMutability": "nonpayable",
      "type": "function"
    },
    {
      "inputs": [
        {
          "internalType": "bytes4",
          "name": "interfaceId",
          "type": "bytes4"
        }
      ],
      "name": "supportsInterface",
      "outputs": [
        {
          "internalType": "bool",
          "name": "",
          "type": "bool"
        }
      ],
      "stateMutability": "view",
      "type": "function"
    },
    {
      "inputs": [],
      "name": "symbol",
      "outputs": [
        {
          "internalType": "string",
          "name": "",
          "type": "string"
        }
      ],
      "stateMutability": "view",
      "type": "function"
    },
    {
      "inputs": [
        {
          "internalType": "uint256",
          "name": "tokenId",
          "type": "uint256"
        }
      ],
      "name": "tokenURI",
      "outputs": [
        {
          "internalType": "string",
          "name": "",
          "type": "string"
        }
      ],
      "stateMutability": "view",
      "type": "function"
    },
    {
      "inputs": [
        {
          "internalType": "address",
          "name": "from",
          "type": "address"
        },
        {
          "internalType": "address",
          "name": "to",
          "type": "address"
        },
        {
          "internalType": "uint256",
          "name": "tokenId",
          "type": "uint256"
        }
      ],
      "name": "transferFrom",
      "outputs": [],
      "stateMutability": "nonpayable",
      "type": "function"
    },
    {
      "inputs": [
        {
          "internalType": "uint256",
          "name": "_listPrice",
          "type": "uint256"
        }
      ],
      "name": "updateListPrice",
      "outputs": [],
      "stateMutability": "payable",
      "type": "function"
    }
  ],
  "bytecode": "0x6080604052662386f26fc10000600a553480156200001c57600080fd5b50604080518082018252600e81526d4e46544d61726b6574706c61636560901b6020808301918252835180850190945260048452634e46544d60e01b9084015281519192916200006f91600091620000a0565b50805162000085906001906020840190620000a0565b5050600980546001600160a01b031916331790555062000183565b828054620000ae9062000146565b90600052602060002090601f016020900481019282620000d257600085556200011d565b82601f10620000ed57805160ff19168380011785556200011d565b828001600101855582156200011d579182015b828111156200011d57825182559160200191906001019062000100565b506200012b9291506200012f565b5090565b5b808211156200012b576000815560010162000130565b600181811c908216806200015b57607f821691505b602082108114156200017d57634e487b7160e01b600052602260045260246000fd5b50919050565b6124b980620001936000396000f3fe6080604052600436106101815760003560e01c806395d89b41116100d1578063c322579c1161008a578063d7eb5be411610064578063d7eb5be414610455578063e0391b0914610475578063e985e9c51461048a578063ef2d1746146104d357600080fd5b8063c322579c1461040d578063c87b56dd14610420578063d1a88ae51461044057600080fd5b806395d89b41146103585780639b1225c41461036d578063a22cb4651461038d578063a70e084f146103ad578063aba7878b146103cd578063b88d4fde146103ed57600080fd5b8063629cb2e41161013e5780636f818dfa116101185780636f818dfa146102d857806370a08231146102f857806372b3b620146103185780638e2645901461032b57600080fd5b8063629cb2e4146102775780636352211e1461029957806368f1945f146102b957600080fd5b806301ffc9a71461018657806306fdde03146101bb578063081812fc146101dd578063095ea7b31461021557806323b872dd1461023757806342842e0e14610257575b600080fd5b34801561019257600080fd5b506101a66101a13660046120b0565b6104e8565b60405190151581526020015b60405180910390f35b3480156101c757600080fd5b506101d0610513565b6040516101b29190612294565b3480156101e957600080fd5b506101fd6101f836600461213e565b6105a5565b6040516001600160a01b0390911681526020016101b2565b34801561022157600080fd5b5061023561023036600461206b565b6105cc565b005b34801561024357600080fd5b50610235610252366004611f81565b6106e7565b34801561026357600080fd5b50610235610272366004611f81565b610718565b34801561028357600080fd5b5061028c610733565b6040516101b29190612246565b3480156102a557600080fd5b506101fd6102b436600461213e565b610978565b3480156102c557600080fd5b50600a545b6040519081526020016101b2565b3480156102e457600080fd5b506102356102f33660046120e8565b6109d8565b34801561030457600080fd5b506102ca610313366004611f35565b610be4565b6102ca6103263660046120e8565b610c6a565b34801561033757600080fd5b5061034b61034636600461213e565b610cac565b6040516101b2919061238b565b34801561036457600080fd5b506101d0610d16565b34801561037957600080fd5b5061023561038836600461213e565b610d25565b34801561039957600080fd5b506102356103a8366004612035565b610f96565b3480156103b957600080fd5b506102356103c8366004611f35565b610fa5565b3480156103d957600080fd5b50600b546101fd906001600160a01b031681565b3480156103f957600080fd5b50610235610408366004611fbc565b611034565b61023561041b36600461213e565b61106c565b34801561042c57600080fd5b506101d061043b36600461213e565b6110d7565b34801561044c57600080fd5b5061034b6111e8565b34801561046157600080fd5b50610235610470366004611f35565b61125f565b34801561048157600080fd5b5061028c6112cd565b34801561049657600080fd5b506101a66104a5366004611f4f565b6001600160a01b03918216600090815260056020908152604080832093909416825291909152205460ff1690565b3480156104df57600080fd5b506102ca61141b565b60006001600160e01b03198216632483248360e11b148061050d575061050d8261142b565b92915050565b606060008054610522906123dd565b80601f016020809104026020016040519081016040528092919081815260200182805461054e906123dd565b801561059b5780601f106105705761010080835404028352916020019161059b565b820191906000526020600020905b81548152906001019060200180831161057e57829003601f168201915b5050505050905090565b60006105b08261147b565b506000908152600460205260409020546001600160a01b031690565b60006105d782610978565b9050806001600160a01b0316836001600160a01b0316141561064a5760405162461bcd60e51b815260206004820152602160248201527f4552433732313a20617070726f76616c20746f2063757272656e74206f776e656044820152603960f91b60648201526084015b60405180910390fd5b336001600160a01b0382161480610666575061066681336104a5565b6106d85760405162461bcd60e51b815260206004820152603d60248201527f4552433732313a20617070726f76652063616c6c6572206973206e6f7420746f60448201527f6b656e206f776e6572206f7220617070726f76656420666f7220616c6c0000006064820152608401610641565b6106e283836114dd565b505050565b6106f1338261154b565b61070d5760405162461bcd60e51b8152600401610641906122a7565b6106e28383836115c9565b6106e283838360405180602001604052806000815250611034565b6060600061074060075490565b905060008060005b838110156107d85733600c6000610760846001612399565b81526020810191909152604001600020600101546001600160a01b031614806107b3575033600c6000610794846001612399565b81526020810191909152604001600020600201546001600160a01b0316145b156107c6576107c3600184612399565b92505b806107d081612418565b915050610748565b5060008267ffffffffffffffff81111561080257634e487b7160e01b600052604160045260246000fd5b60405190808252806020026020018201604052801561083b57816020015b610828611ddc565b8152602001906001900390816108205790505b50905060005b8481101561096f5733600c6000610859846001612399565b81526020810191909152604001600020600101546001600160a01b031614806108ac575033600c600061088d846001612399565b81526020810191909152604001600020600201546001600160a01b0316145b1561095d5760006108be826001612399565b6000818152600c6020908152604091829020825160a0810184528154815260018201546001600160a01b039081169382019390935260028201549092169282019290925260038201546060820152600482015460ff16151560808201528551929350909185908790811061094257634e487b7160e01b600052603260045260246000fd5b6020908102919091010152610958600186612399565b945050505b8061096781612418565b915050610841565b50949350505050565b6000818152600260205260408120546001600160a01b03168061050d5760405162461bcd60e51b8152602060048201526018602482015277115490cdcc8c4e881a5b9d985b1a59081d1bdad95b88125160421b6044820152606401610641565b600b54600a546040516323b872dd60e01b815233600482015230602482015260448101919091526001600160a01b03909116906323b872dd90606401602060405180830381600087803b158015610a2e57600080fd5b505af1158015610a42573d6000803e3d6000fd5b505050506040513d601f19601f82011682018060405250810190610a669190612094565b610aca5760405162461bcd60e51b815260206004820152602f60248201527f5472616e73666572206f6620436f696e437261667420746f6b656e7320666f7260448201526e081b1a5cdd1a5b99c819985a5b1959608a1b6064820152608401610641565b610ad8600780546001019055565b6000610ae360075490565b9050610aef338261172d565b610af98184611747565b6040805160a081018252828152306020808301828152338486018181526060860189815260016080880181815260008b8152600c9097529890952096518755925193860180546001600160a01b039586166001600160a01b03199182161790915590516002870180549190951691161790925551600384015592516004909201805492151560ff1990931692909217909155610b969190836115c9565b604080513081523360208201529081018390526001606082015281907f9339409317fd01fabff48b703019016f49159bacc801ae872d2ca637d226e4c09060800160405180910390a2505050565b60006001600160a01b038216610c4e5760405162461bcd60e51b815260206004820152602960248201527f4552433732313a2061646472657373207a65726f206973206e6f7420612076616044820152683634b21037bbb732b960b91b6064820152608401610641565b506001600160a01b031660009081526003602052604090205490565b6000610c7a600780546001019055565b6000610c8560075490565b9050610c91338261172d565b610c9b8185611747565b610ca584846109d8565b9392505050565b610cb4611ddc565b506000908152600c6020908152604091829020825160a0810184528154815260018201546001600160a01b03908116938201939093526002820154909216928201929092526003820154606082015260049091015460ff161515608082015290565b606060018054610522906123dd565b6000818152600c6020526040908190206003810154600290910154600b5492516323b872dd60e01b81523360048201526001600160a01b039182166024820181905260448201849052929391909116906323b872dd90606401602060405180830381600087803b158015610d9857600080fd5b505af1158015610dac573d6000803e3d6000fd5b505050506040513d601f19601f82011682018060405250810190610dd09190612094565b610e355760405162461bcd60e51b815260206004820152603060248201527f5472616e73666572206f6620436f696e437261667420746f6b656e7320666f7260448201526f081c1d5c98da185cd94819985a5b195960821b6064820152608401610641565b600b546040516370a0823160e01b81523360048201526000916001600160a01b0316906370a082319060240160206040518083038186803b158015610e7957600080fd5b505afa158015610e8d573d6000803e3d6000fd5b505050506040513d601f19601f82011682018060405250810190610eb19190612156565b905082811015610f035760405162461bcd60e51b815260206004820152601e60248201527f496e73756666696369656e7420436f696e43726166742062616c616e636500006044820152606401610641565b6000848152600c6020526040902060048101805460ff1916905560020180546001600160a01b03191633179055610f3e600880546001019055565b610f493033866115c9565b610f5333856105cc565b600954600a546040516001600160a01b039092169181156108fc0291906000818181858888f19350505050158015610f8f573d6000803e3d6000fd5b5050505050565b610fa1338383611819565b5050565b6009546001600160a01b031633146110125760405162461bcd60e51b815260206004820152602a60248201527f4f6e6c79206f776e65722063616e2073657420436f696e437261667420746f6b604482015269656e206164647265737360b01b6064820152608401610641565b600b80546001600160a01b0319166001600160a01b0392909216919091179055565b61103e338361154b565b61105a5760405162461bcd60e51b8152600401610641906122a7565b611066848484846118e8565b50505050565b6009546001600160a01b031633146110d25760405162461bcd60e51b815260206004820152602360248201527f4f6e6c79206f776e65722063616e20757064617465206c697374696e6720707260448201526269636560e81b6064820152608401610641565b600a55565b60606110e28261147b565b600082815260066020526040812080546110fb906123dd565b80601f0160208091040260200160405190810160405280929190818152602001828054611127906123dd565b80156111745780601f1061114957610100808354040283529160200191611174565b820191906000526020600020905b81548152906001019060200180831161115757829003601f168201915b50505050509050600061119260408051602081019091526000815290565b90508051600014156111a5575092915050565b8151156111d75780826040516020016111bf9291906121da565b60405160208183030381529060405292505050919050565b6111e08461191b565b949350505050565b6111f0611ddc565b60006111fb60075490565b6000908152600c6020908152604091829020825160a0810184528154815260018201546001600160a01b03908116938201939093526002820154909216928201929092526003820154606082015260049091015460ff161515608082015292915050565b6009546001600160a01b031633146110125760405162461bcd60e51b815260206004820152602b60248201527f4f6e6c79206f776e65722063616e2073657420436f696e437261667420746f6b60448201526a195b8818dbdb9d1c9858dd60aa1b6064820152608401610641565b606060006112da60075490565b905060008167ffffffffffffffff81111561130557634e487b7160e01b600052604160045260246000fd5b60405190808252806020026020018201604052801561133e57816020015b61132b611ddc565b8152602001906001900390816113235790505b5090506000805b8381101561141257600061135a826001612399565b6000818152600c6020526040902060048101549192509060ff16156113f0576040805160a0810182528254815260018301546001600160a01b0390811660208301526002840154169181019190915260038201546060820152600482015460ff161515608082015285518690869081106113e457634e487b7160e01b600052603260045260246000fd5b60200260200101819052505b6113fb600185612399565b93505050808061140a90612418565b915050611345565b50909392505050565b600061142660075490565b905090565b60006001600160e01b031982166380ac58cd60e01b148061145c57506001600160e01b03198216635b5e139f60e01b145b8061050d57506301ffc9a760e01b6001600160e01b031983161461050d565b6000818152600260205260409020546001600160a01b03166114da5760405162461bcd60e51b8152602060048201526018602482015277115490cdcc8c4e881a5b9d985b1a59081d1bdad95b88125160421b6044820152606401610641565b50565b600081815260046020526040902080546001600160a01b0319166001600160a01b038416908117909155819061151282610978565b6001600160a01b03167f8c5be1e5ebec7d5bd14f71427d1e84f3dd0314c0f7b2291e5b200ac8c7c3b92560405160405180910390a45050565b60008061155783610978565b9050806001600160a01b0316846001600160a01b0316148061159e57506001600160a01b0380821660009081526005602090815260408083209388168352929052205460ff165b806111e05750836001600160a01b03166115b7846105a5565b6001600160a01b031614949350505050565b826001600160a01b03166115dc82610978565b6001600160a01b0316146116025760405162461bcd60e51b815260040161064190612346565b6001600160a01b0382166116645760405162461bcd60e51b8152602060048201526024808201527f4552433732313a207472616e7366657220746f20746865207a65726f206164646044820152637265737360e01b6064820152608401610641565b826001600160a01b031661167782610978565b6001600160a01b03161461169d5760405162461bcd60e51b815260040161064190612346565b600081815260046020908152604080832080546001600160a01b03199081169091556001600160a01b0387811680865260038552838620805460001901905590871680865283862080546001019055868652600290945282852080549092168417909155905184937fddf252ad1be2c89b69c2b068fc378daa952ba7f163c4a11628f55a4df523b3ef91a4505050565b610fa182826040518060200160405280600081525061198e565b6000828152600260205260409020546001600160a01b03166117c25760405162461bcd60e51b815260206004820152602e60248201527f45524337323155524953746f726167653a2055524920736574206f66206e6f6e60448201526d32bc34b9ba32b73a103a37b5b2b760911b6064820152608401610641565b600082815260066020908152604090912082516117e192840190611e0a565b506040518281527ff8e1a15aba9398e019f0b49df1a4fde98ee17ae345cb5f6b5e2c27f5033e8ce79060200160405180910390a15050565b816001600160a01b0316836001600160a01b0316141561187b5760405162461bcd60e51b815260206004820152601960248201527f4552433732313a20617070726f766520746f2063616c6c6572000000000000006044820152606401610641565b6001600160a01b03838116600081815260056020908152604080832094871680845294825291829020805460ff191686151590811790915591519182527f17307eab39ab6107e8899845ad3d59bd9653f200f220920489ca2b5937696c31910160405180910390a3505050565b6118f38484846115c9565b6118ff848484846119c1565b6110665760405162461bcd60e51b8152600401610641906122f4565b60606119268261147b565b600061193d60408051602081019091526000815290565b9050600081511161195d5760405180602001604052806000815250610ca5565b8061196784611ace565b6040516020016119789291906121da565b6040516020818303038152906040529392505050565b6119988383611b79565b6119a560008484846119c1565b6106e25760405162461bcd60e51b8152600401610641906122f4565b60006001600160a01b0384163b15611ac357604051630a85bd0160e11b81526001600160a01b0385169063150b7a0290611a05903390899088908890600401612209565b602060405180830381600087803b158015611a1f57600080fd5b505af1925050508015611a4f575060408051601f3d908101601f19168201909252611a4c918101906120cc565b60015b611aa9573d808015611a7d576040519150601f19603f3d011682016040523d82523d6000602084013e611a82565b606091505b508051611aa15760405162461bcd60e51b8152600401610641906122f4565b805181602001fd5b6001600160e01b031916630a85bd0160e11b1490506111e0565b506001949350505050565b60606000611adb83611d04565b600101905060008167ffffffffffffffff811115611b0957634e487b7160e01b600052604160045260246000fd5b6040519080825280601f01601f191660200182016040528015611b33576020820181803683370190505b5090508181016020015b600019016f181899199a1a9b1b9c1cb0b131b232b360811b600a86061a8153600a8504945084611b6c57611b71565b611b3d565b509392505050565b6001600160a01b038216611bcf5760405162461bcd60e51b815260206004820181905260248201527f4552433732313a206d696e7420746f20746865207a65726f20616464726573736044820152606401610641565b6000818152600260205260409020546001600160a01b031615611c345760405162461bcd60e51b815260206004820152601c60248201527f4552433732313a20746f6b656e20616c7265616479206d696e746564000000006044820152606401610641565b6000818152600260205260409020546001600160a01b031615611c995760405162461bcd60e51b815260206004820152601c60248201527f4552433732313a20746f6b656e20616c7265616479206d696e746564000000006044820152606401610641565b6001600160a01b038216600081815260036020908152604080832080546001019055848352600290915280822080546001600160a01b0319168417905551839291907fddf252ad1be2c89b69c2b068fc378daa952ba7f163c4a11628f55a4df523b3ef908290a45050565b60008072184f03e93ff9f4daa797ed6e38ed64bf6a1f0160401b8310611d435772184f03e93ff9f4daa797ed6e38ed64bf6a1f0160401b830492506040015b6d04ee2d6d415b85acef81000000008310611d6f576d04ee2d6d415b85acef8100000000830492506020015b662386f26fc100008310611d8d57662386f26fc10000830492506010015b6305f5e1008310611da5576305f5e100830492506008015b6127108310611db957612710830492506004015b60648310611dcb576064830492506002015b600a831061050d5760010192915050565b6040805160a08101825260008082526020820181905291810182905260608101829052608081019190915290565b828054611e16906123dd565b90600052602060002090601f016020900481019282611e385760008555611e7e565b82601f10611e5157805160ff1916838001178555611e7e565b82800160010185558215611e7e579182015b82811115611e7e578251825591602001919060010190611e63565b50611e8a929150611e8e565b5090565b5b80821115611e8a5760008155600101611e8f565b600067ffffffffffffffff80841115611ebe57611ebe612449565b604051601f8501601f19908116603f01168101908282118183101715611ee657611ee6612449565b81604052809350858152868686011115611eff57600080fd5b858560208301376000602087830101525050509392505050565b80356001600160a01b0381168114611f3057600080fd5b919050565b600060208284031215611f46578081fd5b610ca582611f19565b60008060408385031215611f61578081fd5b611f6a83611f19565b9150611f7860208401611f19565b90509250929050565b600080600060608486031215611f95578081fd5b611f9e84611f19565b9250611fac60208501611f19565b9150604084013590509250925092565b60008060008060808587031215611fd1578081fd5b611fda85611f19565b9350611fe860208601611f19565b925060408501359150606085013567ffffffffffffffff81111561200a578182fd5b8501601f8101871361201a578182fd5b61202987823560208401611ea3565b91505092959194509250565b60008060408385031215612047578182fd5b61205083611f19565b915060208301356120608161245f565b809150509250929050565b6000806040838503121561207d578182fd5b61208683611f19565b946020939093013593505050565b6000602082840312156120a5578081fd5b8151610ca58161245f565b6000602082840312156120c1578081fd5b8135610ca58161246d565b6000602082840312156120dd578081fd5b8151610ca58161246d565b600080604083850312156120fa578182fd5b823567ffffffffffffffff811115612110578283fd5b8301601f81018513612120578283fd5b61212f85823560208401611ea3565b95602094909401359450505050565b60006020828403121561214f578081fd5b5035919050565b600060208284031215612167578081fd5b5051919050565b600081518084526121868160208601602086016123b1565b601f01601f19169290920160200192915050565b805182526020808201516001600160a01b039081169184019190915260408083015190911690830152606080820151908301526080908101511515910152565b600083516121ec8184602088016123b1565b8351908301906122008183602088016123b1565b01949350505050565b6001600160a01b038581168252841660208201526040810183905260806060820181905260009061223c9083018461216e565b9695505050505050565b6020808252825182820181905260009190848201906040850190845b818110156122885761227583855161219a565b9284019260a09290920191600101612262565b50909695505050505050565b602081526000610ca5602083018461216e565b6020808252602d908201527f4552433732313a2063616c6c6572206973206e6f7420746f6b656e206f776e6560408201526c1c881bdc88185c1c1c9bdd9959609a1b606082015260800190565b60208082526032908201527f4552433732313a207472616e7366657220746f206e6f6e20455243373231526560408201527131b2b4bb32b91034b6b83632b6b2b73a32b960711b606082015260800190565b60208082526025908201527f4552433732313a207472616e736665722066726f6d20696e636f72726563742060408201526437bbb732b960d91b606082015260800190565b60a0810161050d828461219a565b600082198211156123ac576123ac612433565b500190565b60005b838110156123cc5781810151838201526020016123b4565b838111156110665750506000910152565b600181811c908216806123f157607f821691505b6020821081141561241257634e487b7160e01b600052602260045260246000fd5b50919050565b600060001982141561242c5761242c612433565b5060010190565b634e487b7160e01b600052601160045260246000fd5b634e487b7160e01b600052604160045260246000fd5b80151581146114da57600080fd5b6001600160e01b0319811681146114da57600080fdfea2646970667358221220b23e24b98aaa88854bb4e4ffd4c57d4c5e185abc320ddb5466ef3def37d73fa364736f6c63430008040033",
  "linkReferences": {},
  "deployedLinkReferences": {}
}