{
  "_format": "hh-sol-artifact-1",
  "contractName": "NFTMarketplace",
  "sourceName": "contracts/NFTMarketplace.sol",
  "abi": [
    {
      "inputs": [],
      "stateMutability": "nonpayable",
      "type": "constructor"
    },
    {
      "anonymous": false,
      "inputs": [
        {
          "indexed": true,
          "internalType": "address",
          "name": "owner",
          "type": "address"
        },
        {
          "indexed": true,
          "internalType": "address",
          "name": "approved",
          "type": "address"
        },
        {
          "indexed": true,
          "internalType": "uint256",
          "name": "tokenId",
          "type": "uint256"
        }
      ],
      "name": "Approval",
      "type": "event"
    },
    {
      "anonymous": false,
      "inputs": [
        {
          "indexed": true,
          "internalType": "address",
          "name": "owner",
          "type": "address"
        },
        {
          "indexed": true,
          "internalType": "address",
          "name": "operator",
          "type": "address"
        },
        {
          "indexed": false,
          "internalType": "bool",
          "name": "approved",
          "type": "bool"
        }
      ],
      "name": "ApprovalForAll",
      "type": "event"
    },
    {
      "anonymous": false,
      "inputs": [
        {
          "indexed": false,
          "internalType": "uint256",
          "name": "_fromTokenId",
          "type": "uint256"
        },
        {
          "indexed": false,
          "internalType": "uint256",
          "name": "_toTokenId",
          "type": "uint256"
        }
      ],
      "name": "BatchMetadataUpdate",
      "type": "event"
    },
    {
      "anonymous": false,
      "inputs": [
        {
          "indexed": false,
          "internalType": "uint256",
          "name": "_tokenId",
          "type": "uint256"
        }
      ],
      "name": "MetadataUpdate",
      "type": "event"
    },
    {
      "anonymous": false,
      "inputs": [
        {
          "indexed": true,
          "internalType": "uint256",
          "name": "tokenId",
          "type": "uint256"
        },
        {
          "indexed": false,
          "internalType": "address",
          "name": "owner",
          "type": "address"
        },
        {
          "indexed": false,
          "internalType": "address",
          "name": "seller",
          "type": "address"
        },
        {
          "indexed": false,
          "internalType": "uint256",
          "name": "price",
          "type": "uint256"
        },
        {
          "indexed": false,
          "internalType": "bool",
          "name": "currentlyListed",
          "type": "bool"
        }
      ],
      "name": "TokenListedSuccess",
      "type": "event"
    },
    {
      "anonymous": false,
      "inputs": [
        {
          "indexed": true,
          "internalType": "address",
          "name": "from",
          "type": "address"
        },
        {
          "indexed": true,
          "internalType": "address",
          "name": "to",
          "type": "address"
        },
        {
          "indexed": true,
          "internalType": "uint256",
          "name": "tokenId",
          "type": "uint256"
        }
      ],
      "name": "Transfer",
      "type": "event"
    },
    {
      "inputs": [
        {
          "internalType": "address",
          "name": "to",
          "type": "address"
        },
        {
          "internalType": "uint256",
          "name": "tokenId",
          "type": "uint256"
        }
      ],
      "name": "approve",
      "outputs": [],
      "stateMutability": "nonpayable",
      "type": "function"
    },
    {
      "inputs": [
        {
          "internalType": "address",
          "name": "owner",
          "type": "address"
        }
      ],
      "name": "balanceOf",
      "outputs": [
        {
          "internalType": "uint256",
          "name": "",
          "type": "uint256"
        }
      ],
      "stateMutability": "view",
      "type": "function"
    },
    {
      "inputs": [],
      "name": "coinCraftToken",
      "outputs": [
        {
          "internalType": "contract CoinCraft",
          "name": "",
          "type": "address"
        }
      ],
      "stateMutability": "view",
      "type": "function"
    },
    {
      "inputs": [
        {
          "internalType": "string",
          "name": "tokenURI",
          "type": "string"
        },
        {
          "internalType": "uint256",
          "name": "price",
          "type": "uint256"
        }
      ],
      "name": "createListedToken",
      "outputs": [],
      "stateMutability": "nonpayable",
      "type": "function"
    },
    {
      "inputs": [
        {
          "internalType": "uint256",
          "name": "tokenId",
          "type": "uint256"
        }
      ],
      "name": "executeSale",
      "outputs": [],
      "stateMutability": "nonpayable",
      "type": "function"
    },
    {
      "inputs": [
        {
          "internalType": "uint256",
          "name": "tokenId",
          "type": "uint256"
        }
      ],
      "name": "getApproved",
      "outputs": [
        {
          "internalType": "address",
          "name": "",
          "type": "address"
        }
      ],
      "stateMutability": "view",
      "type": "function"
    },
    {
      "inputs": [],
      "name": "getCurrentToken",
      "outputs": [
        {
          "internalType": "uint256",
          "name": "",
          "type": "uint256"
        }
      ],
      "stateMutability": "view",
      "type": "function"
    },
    {
      "inputs": [],
      "name": "getLatestIdToListedToken",
      "outputs": [
        {
          "components": [
            {
              "internalType": "uint256",
              "name": "tokenId",
              "type": "uint256"
            },
            {
              "internalType": "address payable",
              "name": "owner",
              "type": "address"
            },
            {
              "internalType": "address payable",
              "name": "seller",
              "type": "address"
            },
            {
              "internalType": "uint256",
              "name": "price",
              "type": "uint256"
            },
            {
              "internalType": "bool",
              "name": "currentlyListed",
              "type": "bool"
            }
          ],
          "internalType": "struct NFTMarketplace.ListedToken",
          "name": "",
          "type": "tuple"
        }
      ],
      "stateMutability": "view",
      "type": "function"
    },
    {
      "inputs": [],
      "name": "getListPrice",
      "outputs": [
        {
          "internalType": "uint256",
          "name": "",
          "type": "uint256"
        }
      ],
      "stateMutability": "view",
      "type": "function"
    },
    {
      "inputs": [
        {
          "internalType": "uint256",
          "name": "tokenId",
          "type": "uint256"
        }
      ],
      "name": "getListedTokenForId",
      "outputs": [
        {
          "components": [
            {
              "internalType": "uint256",
              "name": "tokenId",
              "type": "uint256"
            },
            {
              "internalType": "address payable",
              "name": "owner",
              "type": "address"
            },
            {
              "internalType": "address payable",
              "name": "seller",
              "type": "address"
            },
            {
              "internalType": "uint256",
              "name": "price",
              "type": "uint256"
            },
            {
              "internalType": "bool",
              "name": "currentlyListed",
              "type": "bool"
            }
          ],
          "internalType": "struct NFTMarketplace.ListedToken",
          "name": "",
          "type": "tuple"
        }
      ],
      "stateMutability": "view",
      "type": "function"
    },
    {
      "inputs": [
        {
          "internalType": "address",
          "name": "owner",
          "type": "address"
        },
        {
          "internalType": "address",
          "name": "operator",
          "type": "address"
        }
      ],
      "name": "isApprovedForAll",
      "outputs": [
        {
          "internalType": "bool",
          "name": "",
          "type": "bool"
        }
      ],
      "stateMutability": "view",
      "type": "function"
    },
    {
      "inputs": [],
      "name": "name",
      "outputs": [
        {
          "internalType": "string",
          "name": "",
          "type": "string"
        }
      ],
      "stateMutability": "view",
      "type": "function"
    },
    {
      "inputs": [
        {
          "internalType": "uint256",
          "name": "tokenId",
          "type": "uint256"
        }
      ],
      "name": "ownerOf",
      "outputs": [
        {
          "internalType": "address",
          "name": "",
          "type": "address"
        }
      ],
      "stateMutability": "view",
      "type": "function"
    },
    {
      "inputs": [
        {
          "internalType": "address",
          "name": "from",
          "type": "address"
        },
        {
          "internalType": "address",
          "name": "to",
          "type": "address"
        },
        {
          "internalType": "uint256",
          "name": "tokenId",
          "type": "uint256"
        }
      ],
      "name": "safeTransferFrom",
      "outputs": [],
      "stateMutability": "nonpayable",
      "type": "function"
    },
    {
      "inputs": [
        {
          "internalType": "address",
          "name": "from",
          "type": "address"
        },
        {
          "internalType": "address",
          "name": "to",
          "type": "address"
        },
        {
          "internalType": "uint256",
          "name": "tokenId",
          "type": "uint256"
        },
        {
          "internalType": "bytes",
          "name": "data",
          "type": "bytes"
        }
      ],
      "name": "safeTransferFrom",
      "outputs": [],
      "stateMutability": "nonpayable",
      "type": "function"
    },
    {
      "inputs": [
        {
          "internalType": "address",
          "name": "operator",
          "type": "address"
        },
        {
          "internalType": "bool",
          "name": "approved",
          "type": "bool"
        }
      ],
      "name": "setApprovalForAll",
      "outputs": [],
      "stateMutability": "nonpayable",
      "type": "function"
    },
    {
      "inputs": [
        {
          "internalType": "address",
          "name": "_tokenContractAddress",
          "type": "address"
        }
      ],
      "name": "setCoinCraftTokenContract",
      "outputs": [],
      "stateMutability": "nonpayable",
      "type": "function"
    },
    {
      "inputs": [
        {
          "internalType": "bytes4",
          "name": "interfaceId",
          "type": "bytes4"
        }
      ],
      "name": "supportsInterface",
      "outputs": [
        {
          "internalType": "bool",
          "name": "",
          "type": "bool"
        }
      ],
      "stateMutability": "view",
      "type": "function"
    },
    {
      "inputs": [],
      "name": "symbol",
      "outputs": [
        {
          "internalType": "string",
          "name": "",
          "type": "string"
        }
      ],
      "stateMutability": "view",
      "type": "function"
    },
    {
      "inputs": [
        {
          "internalType": "uint256",
          "name": "tokenId",
          "type": "uint256"
        }
      ],
      "name": "tokenURI",
      "outputs": [
        {
          "internalType": "string",
          "name": "",
          "type": "string"
        }
      ],
      "stateMutability": "view",
      "type": "function"
    },
    {
      "inputs": [
        {
          "internalType": "address",
          "name": "from",
          "type": "address"
        },
        {
          "internalType": "address",
          "name": "to",
          "type": "address"
        },
        {
          "internalType": "uint256",
          "name": "tokenId",
          "type": "uint256"
        }
      ],
      "name": "transferFrom",
      "outputs": [],
      "stateMutability": "nonpayable",
      "type": "function"
    },
    {
      "inputs": [
        {
          "internalType": "uint256",
          "name": "_listPrice",
          "type": "uint256"
        }
      ],
      "name": "updateListPrice",
      "outputs": [],
      "stateMutability": "payable",
      "type": "function"
    }
  ],
  "bytecode": "0x6080604052662386f26fc10000600a553480156200001c57600080fd5b50604080518082018252600e81526d4e46544d61726b6574706c61636560901b6020808301918252835180850190945260048452634e46544d60e01b9084015281519192916200006f91600091620000a0565b50805162000085906001906020840190620000a0565b5050600980546001600160a01b031916331790555062000183565b828054620000ae9062000146565b90600052602060002090601f016020900481019282620000d257600085556200011d565b82601f10620000ed57805160ff19168380011785556200011d565b828001600101855582156200011d579182015b828111156200011d57825182559160200191906001019062000100565b506200012b9291506200012f565b5090565b5b808211156200012b576000815560010162000130565b600181811c908216806200015b57607f821691505b602082108114156200017d57634e487b7160e01b600052602260045260246000fd5b50919050565b611f3080620001936000396000f3fe6080604052600436106101355760003560e01c806395d89b41116100ab578063c322579c1161006f578063c322579c14610434578063c87b56dd14610447578063d1a88ae514610467578063d7eb5be41461047c578063e985e9c51461049c578063ef2d1746146104e557600080fd5b806395d89b411461039f5780639b1225c4146103b4578063a22cb465146103d4578063aba7878b146103f4578063b88d4fde1461041457600080fd5b806342842e0e116100fd57806342842e0e1461020b5780636352211e1461022b57806368f1945f1461024b5780636f818dfa1461026a57806370a082311461028a5780638e264590146102aa57600080fd5b806301ffc9a71461013a57806306fdde031461016f578063081812fc14610191578063095ea7b3146101c957806323b872dd146101eb575b600080fd5b34801561014657600080fd5b5061015a610155366004611c0c565b6104fa565b60405190151581526020015b60405180910390f35b34801561017b57600080fd5b50610184610525565b6040516101669190611d62565b34801561019d57600080fd5b506101b16101ac366004611c9a565b6105b7565b6040516001600160a01b039091168152602001610166565b3480156101d557600080fd5b506101e96101e4366004611bc7565b6105de565b005b3480156101f757600080fd5b506101e9610206366004611add565b6106f9565b34801561021757600080fd5b506101e9610226366004611add565b61072a565b34801561023757600080fd5b506101b1610246366004611c9a565b610745565b34801561025757600080fd5b50600a545b604051908152602001610166565b34801561027657600080fd5b506101e9610285366004611c44565b6107a5565b34801561029657600080fd5b5061025c6102a5366004611a91565b6109b1565b3480156102b657600080fd5b506103526102c5366004611c9a565b6040805160a081018252600080825260208201819052918101829052606081018290526080810191909152506000908152600c6020908152604091829020825160a0810184528154815260018201546001600160a01b03908116938201939093526002820154909216928201929092526003820154606082015260049091015460ff161515608082015290565b60408051825181526020808401516001600160a01b03908116918301919091528383015116918101919091526060808301519082015260809182015115159181019190915260a001610166565b3480156103ab57600080fd5b50610184610a37565b3480156103c057600080fd5b506101e96103cf366004611c9a565b610a46565b3480156103e057600080fd5b506101e96103ef366004611b91565b610cb7565b34801561040057600080fd5b50600b546101b1906001600160a01b031681565b34801561042057600080fd5b506101e961042f366004611b18565b610cc6565b6101e9610442366004611c9a565b610cfe565b34801561045357600080fd5b50610184610462366004611c9a565b610d69565b34801561047357600080fd5b50610352610e7a565b34801561048857600080fd5b506101e9610497366004611a91565b610f14565b3480156104a857600080fd5b5061015a6104b7366004611aab565b6001600160a01b03918216600090815260056020908152604080832093909416825291909152205460ff1690565b3480156104f157600080fd5b5061025c610fa4565b60006001600160e01b03198216632483248360e11b148061051f575061051f82610fb4565b92915050565b60606000805461053490611e85565b80601f016020809104026020016040519081016040528092919081815260200182805461056090611e85565b80156105ad5780601f10610582576101008083540402835291602001916105ad565b820191906000526020600020905b81548152906001019060200180831161059057829003601f168201915b5050505050905090565b60006105c282611004565b506000908152600460205260409020546001600160a01b031690565b60006105e982610745565b9050806001600160a01b0316836001600160a01b0316141561065c5760405162461bcd60e51b815260206004820152602160248201527f4552433732313a20617070726f76616c20746f2063757272656e74206f776e656044820152603960f91b60648201526084015b60405180910390fd5b336001600160a01b0382161480610678575061067881336104b7565b6106ea5760405162461bcd60e51b815260206004820152603d60248201527f4552433732313a20617070726f76652063616c6c6572206973206e6f7420746f60448201527f6b656e206f776e6572206f7220617070726f76656420666f7220616c6c0000006064820152608401610653565b6106f48383611066565b505050565b61070333826110d4565b61071f5760405162461bcd60e51b815260040161065390611d75565b6106f4838383611152565b6106f483838360405180602001604052806000815250610cc6565b6000818152600260205260408120546001600160a01b03168061051f5760405162461bcd60e51b8152602060048201526018602482015277115490cdcc8c4e881a5b9d985b1a59081d1bdad95b88125160421b6044820152606401610653565b600b54600a546040516323b872dd60e01b815233600482015230602482015260448101919091526001600160a01b03909116906323b872dd90606401602060405180830381600087803b1580156107fb57600080fd5b505af115801561080f573d6000803e3d6000fd5b505050506040513d601f19601f820116820180604052508101906108339190611bf0565b6108975760405162461bcd60e51b815260206004820152602f60248201527f5472616e73666572206f6620436f696e437261667420746f6b656e7320666f7260448201526e081b1a5cdd1a5b99c819985a5b1959608a1b6064820152608401610653565b6108a5600780546001019055565b60006108b060075490565b90506108bc33826112b6565b6108c681846112d0565b6040805160a081018252828152306020808301828152338486018181526060860189815260016080880181815260008b8152600c9097529890952096518755925193860180546001600160a01b039586166001600160a01b03199182161790915590516002870180549190951691161790925551600384015592516004909201805492151560ff1990931692909217909155610963919083611152565b604080513081523360208201529081018390526001606082015281907f9339409317fd01fabff48b703019016f49159bacc801ae872d2ca637d226e4c09060800160405180910390a2505050565b60006001600160a01b038216610a1b5760405162461bcd60e51b815260206004820152602960248201527f4552433732313a2061646472657373207a65726f206973206e6f7420612076616044820152683634b21037bbb732b960b91b6064820152608401610653565b506001600160a01b031660009081526003602052604090205490565b60606001805461053490611e85565b6000818152600c6020526040908190206003810154600290910154600b5492516323b872dd60e01b81523360048201526001600160a01b039182166024820181905260448201849052929391909116906323b872dd90606401602060405180830381600087803b158015610ab957600080fd5b505af1158015610acd573d6000803e3d6000fd5b505050506040513d601f19601f82011682018060405250810190610af19190611bf0565b610b565760405162461bcd60e51b815260206004820152603060248201527f5472616e73666572206f6620436f696e437261667420746f6b656e7320666f7260448201526f081c1d5c98da185cd94819985a5b195960821b6064820152608401610653565b600b546040516370a0823160e01b81523360048201526000916001600160a01b0316906370a082319060240160206040518083038186803b158015610b9a57600080fd5b505afa158015610bae573d6000803e3d6000fd5b505050506040513d601f19601f82011682018060405250810190610bd29190611cb2565b905082811015610c245760405162461bcd60e51b815260206004820152601e60248201527f496e73756666696369656e7420436f696e43726166742062616c616e636500006044820152606401610653565b6000848152600c6020526040902060048101805460ff1916905560020180546001600160a01b03191633179055610c5f600880546001019055565b610c6a333086611152565b610c7433856105de565b600954600a546040516001600160a01b039092169181156108fc0291906000818181858888f19350505050158015610cb0573d6000803e3d6000fd5b5050505050565b610cc23383836113a2565b5050565b610cd033836110d4565b610cec5760405162461bcd60e51b815260040161065390611d75565b610cf884848484611471565b50505050565b6009546001600160a01b03163314610d645760405162461bcd60e51b815260206004820152602360248201527f4f6e6c79206f776e65722063616e20757064617465206c697374696e6720707260448201526269636560e81b6064820152608401610653565b600a55565b6060610d7482611004565b60008281526006602052604081208054610d8d90611e85565b80601f0160208091040260200160405190810160405280929190818152602001828054610db990611e85565b8015610e065780601f10610ddb57610100808354040283529160200191610e06565b820191906000526020600020905b815481529060010190602001808311610de957829003601f168201915b505050505090506000610e2460408051602081019091526000815290565b9050805160001415610e37575092915050565b815115610e69578082604051602001610e51929190611cf6565b60405160208183030381529060405292505050919050565b610e72846114a4565b949350505050565b6040805160a0810182526000808252602082018190529181018290526060810182905260808101919091526000610eb060075490565b6000908152600c6020908152604091829020825160a0810184528154815260018201546001600160a01b03908116938201939093526002820154909216928201929092526003820154606082015260049091015460ff161515608082015292915050565b6009546001600160a01b03163314610f825760405162461bcd60e51b815260206004820152602b60248201527f4f6e6c79206f776e65722063616e2073657420436f696e437261667420746f6b60448201526a195b8818dbdb9d1c9858dd60aa1b6064820152608401610653565b600b80546001600160a01b0319166001600160a01b0392909216919091179055565b6000610faf60075490565b905090565b60006001600160e01b031982166380ac58cd60e01b1480610fe557506001600160e01b03198216635b5e139f60e01b145b8061051f57506301ffc9a760e01b6001600160e01b031983161461051f565b6000818152600260205260409020546001600160a01b03166110635760405162461bcd60e51b8152602060048201526018602482015277115490cdcc8c4e881a5b9d985b1a59081d1bdad95b88125160421b6044820152606401610653565b50565b600081815260046020526040902080546001600160a01b0319166001600160a01b038416908117909155819061109b82610745565b6001600160a01b03167f8c5be1e5ebec7d5bd14f71427d1e84f3dd0314c0f7b2291e5b200ac8c7c3b92560405160405180910390a45050565b6000806110e083610745565b9050806001600160a01b0316846001600160a01b0316148061112757506001600160a01b0380821660009081526005602090815260408083209388168352929052205460ff165b80610e725750836001600160a01b0316611140846105b7565b6001600160a01b031614949350505050565b826001600160a01b031661116582610745565b6001600160a01b03161461118b5760405162461bcd60e51b815260040161065390611e14565b6001600160a01b0382166111ed5760405162461bcd60e51b8152602060048201526024808201527f4552433732313a207472616e7366657220746f20746865207a65726f206164646044820152637265737360e01b6064820152608401610653565b826001600160a01b031661120082610745565b6001600160a01b0316146112265760405162461bcd60e51b815260040161065390611e14565b600081815260046020908152604080832080546001600160a01b03199081169091556001600160a01b0387811680865260038552838620805460001901905590871680865283862080546001019055868652600290945282852080549092168417909155905184937fddf252ad1be2c89b69c2b068fc378daa952ba7f163c4a11628f55a4df523b3ef91a4505050565b610cc2828260405180602001604052806000815250611518565b6000828152600260205260409020546001600160a01b031661134b5760405162461bcd60e51b815260206004820152602e60248201527f45524337323155524953746f726167653a2055524920736574206f66206e6f6e60448201526d32bc34b9ba32b73a103a37b5b2b760911b6064820152608401610653565b6000828152600660209081526040909120825161136a92840190611966565b506040518281527ff8e1a15aba9398e019f0b49df1a4fde98ee17ae345cb5f6b5e2c27f5033e8ce79060200160405180910390a15050565b816001600160a01b0316836001600160a01b031614156114045760405162461bcd60e51b815260206004820152601960248201527f4552433732313a20617070726f766520746f2063616c6c6572000000000000006044820152606401610653565b6001600160a01b03838116600081815260056020908152604080832094871680845294825291829020805460ff191686151590811790915591519182527f17307eab39ab6107e8899845ad3d59bd9653f200f220920489ca2b5937696c31910160405180910390a3505050565b61147c848484611152565b6114888484848461154b565b610cf85760405162461bcd60e51b815260040161065390611dc2565b60606114af82611004565b60006114c660408051602081019091526000815290565b905060008151116114e65760405180602001604052806000815250611511565b806114f084611658565b604051602001611501929190611cf6565b6040516020818303038152906040525b9392505050565b6115228383611703565b61152f600084848461154b565b6106f45760405162461bcd60e51b815260040161065390611dc2565b60006001600160a01b0384163b1561164d57604051630a85bd0160e11b81526001600160a01b0385169063150b7a029061158f903390899088908890600401611d25565b602060405180830381600087803b1580156115a957600080fd5b505af19250505080156115d9575060408051601f3d908101601f191682019092526115d691810190611c28565b60015b611633573d808015611607576040519150601f19603f3d011682016040523d82523d6000602084013e61160c565b606091505b50805161162b5760405162461bcd60e51b815260040161065390611dc2565b805181602001fd5b6001600160e01b031916630a85bd0160e11b149050610e72565b506001949350505050565b606060006116658361188e565b600101905060008167ffffffffffffffff81111561169357634e487b7160e01b600052604160045260246000fd5b6040519080825280601f01601f1916602001820160405280156116bd576020820181803683370190505b5090508181016020015b600019016f181899199a1a9b1b9c1cb0b131b232b360811b600a86061a8153600a85049450846116f6576116fb565b6116c7565b509392505050565b6001600160a01b0382166117595760405162461bcd60e51b815260206004820181905260248201527f4552433732313a206d696e7420746f20746865207a65726f20616464726573736044820152606401610653565b6000818152600260205260409020546001600160a01b0316156117be5760405162461bcd60e51b815260206004820152601c60248201527f4552433732313a20746f6b656e20616c7265616479206d696e746564000000006044820152606401610653565b6000818152600260205260409020546001600160a01b0316156118235760405162461bcd60e51b815260206004820152601c60248201527f4552433732313a20746f6b656e20616c7265616479206d696e746564000000006044820152606401610653565b6001600160a01b038216600081815260036020908152604080832080546001019055848352600290915280822080546001600160a01b0319168417905551839291907fddf252ad1be2c89b69c2b068fc378daa952ba7f163c4a11628f55a4df523b3ef908290a45050565b60008072184f03e93ff9f4daa797ed6e38ed64bf6a1f0160401b83106118cd5772184f03e93ff9f4daa797ed6e38ed64bf6a1f0160401b830492506040015b6d04ee2d6d415b85acef810000000083106118f9576d04ee2d6d415b85acef8100000000830492506020015b662386f26fc10000831061191757662386f26fc10000830492506010015b6305f5e100831061192f576305f5e100830492506008015b612710831061194357612710830492506004015b60648310611955576064830492506002015b600a831061051f5760010192915050565b82805461197290611e85565b90600052602060002090601f01602090048101928261199457600085556119da565b82601f106119ad57805160ff19168380011785556119da565b828001600101855582156119da579182015b828111156119da5782518255916020019190600101906119bf565b506119e69291506119ea565b5090565b5b808211156119e657600081556001016119eb565b600067ffffffffffffffff80841115611a1a57611a1a611ec0565b604051601f8501601f19908116603f01168101908282118183101715611a4257611a42611ec0565b81604052809350858152868686011115611a5b57600080fd5b858560208301376000602087830101525050509392505050565b80356001600160a01b0381168114611a8c57600080fd5b919050565b600060208284031215611aa2578081fd5b61151182611a75565b60008060408385031215611abd578081fd5b611ac683611a75565b9150611ad460208401611a75565b90509250929050565b600080600060608486031215611af1578081fd5b611afa84611a75565b9250611b0860208501611a75565b9150604084013590509250925092565b60008060008060808587031215611b2d578081fd5b611b3685611a75565b9350611b4460208601611a75565b925060408501359150606085013567ffffffffffffffff811115611b66578182fd5b8501601f81018713611b76578182fd5b611b85878235602084016119ff565b91505092959194509250565b60008060408385031215611ba3578182fd5b611bac83611a75565b91506020830135611bbc81611ed6565b809150509250929050565b60008060408385031215611bd9578182fd5b611be283611a75565b946020939093013593505050565b600060208284031215611c01578081fd5b815161151181611ed6565b600060208284031215611c1d578081fd5b813561151181611ee4565b600060208284031215611c39578081fd5b815161151181611ee4565b60008060408385031215611c56578182fd5b823567ffffffffffffffff811115611c6c578283fd5b8301601f81018513611c7c578283fd5b611c8b858235602084016119ff565b95602094909401359450505050565b600060208284031215611cab578081fd5b5035919050565b600060208284031215611cc3578081fd5b5051919050565b60008151808452611ce2816020860160208601611e59565b601f01601f19169290920160200192915050565b60008351611d08818460208801611e59565b835190830190611d1c818360208801611e59565b01949350505050565b6001600160a01b0385811682528416602082015260408101839052608060608201819052600090611d5890830184611cca565b9695505050505050565b6020815260006115116020830184611cca565b6020808252602d908201527f4552433732313a2063616c6c6572206973206e6f7420746f6b656e206f776e6560408201526c1c881bdc88185c1c1c9bdd9959609a1b606082015260800190565b60208082526032908201527f4552433732313a207472616e7366657220746f206e6f6e20455243373231526560408201527131b2b4bb32b91034b6b83632b6b2b73a32b960711b606082015260800190565b60208082526025908201527f4552433732313a207472616e736665722066726f6d20696e636f72726563742060408201526437bbb732b960d91b606082015260800190565b60005b83811015611e74578181015183820152602001611e5c565b83811115610cf85750506000910152565b600181811c90821680611e9957607f821691505b60208210811415611eba57634e487b7160e01b600052602260045260246000fd5b50919050565b634e487b7160e01b600052604160045260246000fd5b801515811461106357600080fd5b6001600160e01b03198116811461106357600080fdfea2646970667358221220e2067d6aa5254cdc33fd42f6fd124328b8aa8602b62af78fde0c46efe397aad464736f6c63430008040033",
  "linkReferences": {},
  "deployedLinkReferences": {}
}