{
  "_format": "hh-sol-artifact-1",
  "contractName": "CoinCraft",
  "sourceName": "CoinCraft/sepolia-testnet-deployment/contracts/coincraft.sol",
  "abi": [
    {
      "inputs": [],
      "stateMutability": "nonpayable",
      "type": "constructor"
    },
    {
      "anonymous": false,
      "inputs": [
        {
          "indexed": true,
          "internalType": "address",
          "name": "owner",
          "type": "address"
        },
        {
          "indexed": true,
          "internalType": "address",
          "name": "spender",
          "type": "address"
        },
        {
          "indexed": false,
          "internalType": "uint256",
          "name": "value",
          "type": "uint256"
        }
      ],
      "name": "Approval",
      "type": "event"
    },
    {
      "anonymous": false,
      "inputs": [
        {
          "indexed": true,
          "internalType": "address",
          "name": "from",
          "type": "address"
        },
        {
          "indexed": true,
          "internalType": "address",
          "name": "to",
          "type": "address"
        },
        {
          "indexed": false,
          "internalType": "uint256",
          "name": "value",
          "type": "uint256"
        }
      ],
      "name": "Transfer",
      "type": "event"
    },
    {
      "inputs": [
        {
          "internalType": "address",
          "name": "owner",
          "type": "address"
        },
        {
          "internalType": "address",
          "name": "spender",
          "type": "address"
        }
      ],
      "name": "allowance",
      "outputs": [
        {
          "internalType": "uint256",
          "name": "",
          "type": "uint256"
        }
      ],
      "stateMutability": "view",
      "type": "function"
    },
    {
      "inputs": [
        {
          "internalType": "address",
          "name": "spender",
          "type": "address"
        },
        {
          "internalType": "uint256",
          "name": "amount",
          "type": "uint256"
        }
      ],
      "name": "approve",
      "outputs": [
        {
          "internalType": "bool",
          "name": "",
          "type": "bool"
        }
      ],
      "stateMutability": "nonpayable",
      "type": "function"
    },
    {
      "inputs": [
        {
          "internalType": "address",
          "name": "account",
          "type": "address"
        }
      ],
      "name": "balanceOf",
      "outputs": [
        {
          "internalType": "uint256",
          "name": "",
          "type": "uint256"
        }
      ],
      "stateMutability": "view",
      "type": "function"
    },
    {
      "inputs": [],
      "name": "decimals",
      "outputs": [
        {
          "internalType": "uint8",
          "name": "",
          "type": "uint8"
        }
      ],
      "stateMutability": "view",
      "type": "function"
    },
    {
      "inputs": [
        {
          "internalType": "address",
          "name": "spender",
          "type": "address"
        },
        {
          "internalType": "uint256",
          "name": "subtractedValue",
          "type": "uint256"
        }
      ],
      "name": "decreaseAllowance",
      "outputs": [
        {
          "internalType": "bool",
          "name": "",
          "type": "bool"
        }
      ],
      "stateMutability": "nonpayable",
      "type": "function"
    },
    {
      "inputs": [
        {
          "internalType": "address",
          "name": "spender",
          "type": "address"
        },
        {
          "internalType": "uint256",
          "name": "addedValue",
          "type": "uint256"
        }
      ],
      "name": "increaseAllowance",
      "outputs": [
        {
          "internalType": "bool",
          "name": "",
          "type": "bool"
        }
      ],
      "stateMutability": "nonpayable",
      "type": "function"
    },
    {
      "inputs": [
        {
          "internalType": "address",
          "name": "account",
          "type": "address"
        },
        {
          "internalType": "uint256",
          "name": "amount",
          "type": "uint256"
        }
      ],
      "name": "mint",
      "outputs": [],
      "stateMutability": "nonpayable",
      "type": "function"
    },
    {
      "inputs": [],
      "name": "name",
      "outputs": [
        {
          "internalType": "string",
          "name": "",
          "type": "string"
        }
      ],
      "stateMutability": "view",
      "type": "function"
    },
    {
      "inputs": [],
      "name": "owner",
      "outputs": [
        {
          "internalType": "address",
          "name": "",
          "type": "address"
        }
      ],
      "stateMutability": "view",
      "type": "function"
    },
    {
      "inputs": [],
      "name": "symbol",
      "outputs": [
        {
          "internalType": "string",
          "name": "",
          "type": "string"
        }
      ],
      "stateMutability": "view",
      "type": "function"
    },
    {
      "inputs": [],
      "name": "totalSupply",
      "outputs": [
        {
          "internalType": "uint256",
          "name": "",
          "type": "uint256"
        }
      ],
      "stateMutability": "view",
      "type": "function"
    },
    {
      "inputs": [
        {
          "internalType": "address",
          "name": "recipient",
          "type": "address"
        },
        {
          "internalType": "uint256",
          "name": "amount",
          "type": "uint256"
        }
      ],
      "name": "transfer",
      "outputs": [
        {
          "internalType": "bool",
          "name": "",
          "type": "bool"
        }
      ],
      "stateMutability": "nonpayable",
      "type": "function"
    },
    {
      "inputs": [
        {
          "internalType": "address",
          "name": "sender",
          "type": "address"
        },
        {
          "internalType": "address",
          "name": "recipient",
          "type": "address"
        },
        {
          "internalType": "uint256",
          "name": "amount",
          "type": "uint256"
        }
      ],
      "name": "transferFrom",
      "outputs": [
        {
          "internalType": "bool",
          "name": "",
          "type": "bool"
        }
      ],
      "stateMutability": "nonpayable",
      "type": "function"
    }
  ],
  "bytecode": "0x60806040523480156200001157600080fd5b50604080518082018252600981526810dbda5b90dc98599d60ba1b602080830191825283518085019094526002845261434360f01b9084015281519192916200005d9160039162000170565b5080516200007390600490602084019062000170565b5050600580546001600160a01b0319163390811790915569021e19e0c9bab24000009150620000a39082620000aa565b5062000278565b6001600160a01b038216620001055760405162461bcd60e51b815260206004820152601f60248201527f45524332303a206d696e7420746f20746865207a65726f206164647265737300604482015260640160405180910390fd5b806002600082825462000119919062000216565b90915550506001600160a01b038216600081815260208181526040808320805486019055518481527fddf252ad1be2c89b69c2b068fc378daa952ba7f163c4a11628f55a4df523b3ef910160405180910390a35050565b8280546200017e906200023b565b90600052602060002090601f016020900481019282620001a25760008555620001ed565b82601f10620001bd57805160ff1916838001178555620001ed565b82800160010185558215620001ed579182015b82811115620001ed578251825591602001919060010190620001d0565b50620001fb929150620001ff565b5090565b5b80821115620001fb576000815560010162000200565b600082198211156200023657634e487b7160e01b81526011600452602481fd5b500190565b600181811c908216806200025057607f821691505b602082108114156200027257634e487b7160e01b600052602260045260246000fd5b50919050565b610a1d80620002886000396000f3fe608060405234801561001057600080fd5b50600436106100cf5760003560e01c806340c10f191161008c57806395d89b411161006657806395d89b41146101c5578063a457c2d7146101cd578063a9059cbb146101e0578063dd62ed3e146101f357600080fd5b806340c10f191461015c57806370a08231146101715780638da5cb5b1461019a57600080fd5b806306fdde03146100d4578063095ea7b3146100f257806318160ddd1461011557806323b872dd14610127578063313ce5671461013a5780633950935114610149575b600080fd5b6100dc610206565b6040516100e99190610935565b60405180910390f35b61010561010036600461090c565b610298565b60405190151581526020016100e9565b6002545b6040519081526020016100e9565b6101056101353660046108d1565b6102ab565b604051601281526020016100e9565b61010561015736600461090c565b6102c0565b61016f61016a36600461090c565b6102ec565b005b61011961017f366004610885565b6001600160a01b031660009081526020819052604090205490565b6005546101ad906001600160a01b031681565b6040516001600160a01b0390911681526020016100e9565b6100dc610367565b6101056101db36600461090c565b610376565b6101056101ee36600461090c565b6103fc565b61011961020136600461089f565b610408565b606060038054610215906109ac565b80601f0160208091040260200160405190810160405280929190818152602001828054610241906109ac565b801561028e5780601f106102635761010080835404028352916020019161028e565b820191906000526020600020905b81548152906001019060200180831161027157829003601f168201915b5050505050905090565b60006102a48383610433565b9392505050565b60006102b8848484610441565b949350505050565b6000336102e28185856102d38383610408565b6102dd9190610988565b61045a565b5060019392505050565b6005546001600160a01b031633146103595760405162461bcd60e51b815260206004820152602560248201527f4f6e6c7920746865206f776e65722063616e2063616c6c20746869732066756e60448201526431ba34b7b760d91b60648201526084015b60405180910390fd5b610363828261057e565b5050565b606060048054610215906109ac565b600033816103848286610408565b9050838110156103e45760405162461bcd60e51b815260206004820152602560248201527f45524332303a2064656372656173656420616c6c6f77616e63652062656c6f77604482015264207a65726f60d81b6064820152608401610350565b6103f1828686840361045a565b506001949350505050565b60006102a4838361063d565b6001600160a01b03918216600090815260016020908152604080832093909416825291909152205490565b6000336102e281858561045a565b60003361044f85828561064b565b6103f18585856106c5565b6001600160a01b0383166104bc5760405162461bcd60e51b8152602060048201526024808201527f45524332303a20617070726f76652066726f6d20746865207a65726f206164646044820152637265737360e01b6064820152608401610350565b6001600160a01b03821661051d5760405162461bcd60e51b815260206004820152602260248201527f45524332303a20617070726f766520746f20746865207a65726f206164647265604482015261737360f01b6064820152608401610350565b6001600160a01b0383811660008181526001602090815260408083209487168084529482529182902085905590518481527f8c5be1e5ebec7d5bd14f71427d1e84f3dd0314c0f7b2291e5b200ac8c7c3b925910160405180910390a3505050565b6001600160a01b0382166105d45760405162461bcd60e51b815260206004820152601f60248201527f45524332303a206d696e7420746f20746865207a65726f2061646472657373006044820152606401610350565b80600260008282546105e69190610988565b90915550506001600160a01b038216600081815260208181526040808320805486019055518481527fddf252ad1be2c89b69c2b068fc378daa952ba7f163c4a11628f55a4df523b3ef910160405180910390a35050565b6000336102e28185856106c5565b60006106578484610408565b905060001981146106bf57818110156106b25760405162461bcd60e51b815260206004820152601d60248201527f45524332303a20696e73756666696369656e7420616c6c6f77616e63650000006044820152606401610350565b6106bf848484840361045a565b50505050565b6001600160a01b0383166107295760405162461bcd60e51b815260206004820152602560248201527f45524332303a207472616e736665722066726f6d20746865207a65726f206164604482015264647265737360d81b6064820152608401610350565b6001600160a01b03821661078b5760405162461bcd60e51b815260206004820152602360248201527f45524332303a207472616e7366657220746f20746865207a65726f206164647260448201526265737360e81b6064820152608401610350565b6001600160a01b038316600090815260208190526040902054818110156108035760405162461bcd60e51b815260206004820152602660248201527f45524332303a207472616e7366657220616d6f756e7420657863656564732062604482015265616c616e636560d01b6064820152608401610350565b6001600160a01b03848116600081815260208181526040808320878703905593871680835291849020805487019055925185815290927fddf252ad1be2c89b69c2b068fc378daa952ba7f163c4a11628f55a4df523b3ef910160405180910390a36106bf565b80356001600160a01b038116811461088057600080fd5b919050565b600060208284031215610896578081fd5b6102a482610869565b600080604083850312156108b1578081fd5b6108ba83610869565b91506108c860208401610869565b90509250929050565b6000806000606084860312156108e5578081fd5b6108ee84610869565b92506108fc60208501610869565b9150604084013590509250925092565b6000806040838503121561091e578182fd5b61092783610869565b946020939093013593505050565b6000602080835283518082850152825b8181101561096157858101830151858201604001528201610945565b818111156109725783604083870101525b50601f01601f1916929092016040019392505050565b600082198211156109a757634e487b7160e01b81526011600452602481fd5b500190565b600181811c908216806109c057607f821691505b602082108114156109e157634e487b7160e01b600052602260045260246000fd5b5091905056fea26469706673582212206dfe9eead63d8c2fad3b713db1404b3b4c5e6d6869444f9a8350b26bc8a57d0e64736f6c63430008040033",
  "linkReferences": {},
  "deployedLinkReferences": {}
}